:020000040100F9
:1040000000000430895100010D4E0001DD4F0030E9
:10401000F54D0001F94D0001FD4D000100000000CB
:10402000000000000000000000000000F14F003020
:10403000014E000100000000054E0001094E000184
:104040000000000000000000000000000000000070
:104050000000000000000000000000000000000060
:104060000000000000000000000000000000000050
:104070000000000000000000000000000000000040
:104080000000000000000000000000000000000030
:104090000000000000000000000000000000000020
:1040A0000000000000000000000000000000000010
:1040B0000000000000000000000000000000000000
:1040C00000000000000000000000000000000000F0
:1040D00000000000000000000000000000000000E0
:1040E00000000000000000000000000000000000D0
:1040F00000000000000000000000000000000000C0
:1041000000000000000000000000000000000000AF
:10411000000000000000000000000000000000009F
:10412000000000000000000000000000000000008F
:10413000000000000000000000000000000000007F
:10414000000000000000000000000000000000006F
:10415000000000000000000000000000000000005F
:10416000000000000000000000000000000000004F
:10417000000000000000000000000000000000003F
:10418000000000000000000000000000000000002F
:10419000000000000000000000000000000000001F
:1041A000000000000000000000000000000000000F
:1041B00000000000000000000000000000000000FF
:1041C00000000000000000000000000000000000EF
:1041D00000000000000000000000000000000000DF
:1041E00000000000000000000000000000000000CF
:1041F00000000000000000000000000000000000BF
:1042000058585247010000001555000000400001B9
:10421000004000016E2D5349010100000000000024
:10422000000000000000000000000000000000008E
:10423000000000000000000000000000000000007E
:1042400010B5054C237833B9044B13B10448AFF3D0
:1042500000800123237010BDE0B100300000000099
:1042600044E1010108B5034B1BB103490348AFF317
:10427000008008BD00000000E4B1003044E101010D
:1042800008B500F00DF80449044800F083FF0EF073
:1042900053FA17F05DFAFAE7004000305D4A00017A
:1042A00008B5074A06214CF201000BF069F800F04E
:1042B00013FD0EF05FFABDE80840022074F4D294BA
:1042C000B0B7010110B5437884B0032B16D8DFE8EE
:1042D00003F02F2502171E491E4B1F4C00200A22F7
:1042E00008801A700DF030FA4FF4B970CDE900046F
:1042F0001A4B1B4A1B4903200EF0C2F804B010BD34
:10430000194C164B164A03204FF4BC710091CDE9AD
:10431000014014490EF0B4F804B010BD1348144C19
:104320000EF00AFF13480EF007FF40F26B10DDE7B6
:1043300000224FF47A710D480F4C0EF0B5FD0D4878
:1043400000224FF496710EF0AFFD40F26510CDE7FC
:104350005EF800305CF8003020B80101A8BA010115
:10436000B8B70101D0B7010140B8010178F80030B9
:10437000FCB70101B0F80030D8B7010110B5104901
:10438000104886B010F0AAF80021C2B208460CF01E
:1043900099FF1A28034600D008B906B010BD0022C4
:1043A00009490A4C029201A8ADF80830EC23CDE986
:1043B0000341019205930DF0C9FC06B010BD00BF8A
:1043C00050F8003058F8003050BA0101B8B7010178
:1043D00010B50C4C0C49204610F080F880B20DF05E
:1043E000A1F90949204610F079F880B20DF09AF948
:1043F0002046054910F072F8BDE8104080B20DF07B
:1044000091B900BFE0F80030D8F8003030B5214D48
:104410002149224889B010F061F82B780A2B81B22B
:104420002ED001331E4C2B70002220884FF6FF73D4
:104430001D1A642DC4BF00F164039BB200202380C9
:104440000DF08EF9034658B9164C2078003818BF85
:1044500001200DF07FF92378DB43237009B030BDD4
:104460000022114C1149049203A8ADF810304FF40A
:104470009473CDE90541039207930DF067FCE3E7E0
:10448000074C019120880DF05FF9002301992B70F2
:104490000122CAE75CF80030A0F80030A8F800302C
:1044A0005EF8003038400030B8B70101D4B90101DE
:1044B00010B50378012B82B00ED0022B0AD1084C24
:1044C00040F24F10CDE90004064B074A074903208C
:1044D0000DF0D6FF02B010BD054C40F24B10F1E7D5
:1044E00084B8010188BA0101B8B70101D0B7010150
:1044F00060B80101F0B5A7B00AA800F089FC0B99DB
:10450000BDF82A309DF82920BC4EBD4DCDE90431BF
:104510009DF82830BB49CDE9023240F2AA22CDE90C
:1045200000213346B8492A4602200DF0A9FF08A809
:1045300061F43ED515AC002840F004829DF820209F
:104540009DF821309DF82210CDE906329DF82330E8
:104550009DF82420CDE904319DF82530AB49CDE903
:10456000023240F2AF22CDE90021A44BA44AA64971
:1045700002200DF085FFA649A04B40F2B622CDE9FE
:10458000002102209E4AA0490DF07AFFA149A24BCA
:104590000B600127A1488F808F710FF091FFA04918
:1045A000A04B0B6000260A239F488B808E710FF072
:1045B00087FF9E499E4B0B609E488F808E710FF047
:1045C0007FFF9D4B9D481E809D4B17901E709D4BFD
:1045D000159310F0F5FF8DF858009B48199010F0D6
:1045E000EFFF8DF8600099481B9010F0E9FF8DF8FF
:1045F000680097481D9010F0E3FF8DF87000954813
:104600001F9010F0DDFF8DF878009348219010F096
:10461000D7FF924B8DF880009148CDE9223010F001
:10462000CFFF904B8DF89000204625930CF09CFF17
:104630000346002840F078818B4B0C930F22012118
:104640000CA8ADF834200CF075FE0346002840F0AD
:104650005C81864B0E9340F2FF3201230EA8ADF829
:104660003D208DF83C300DF063F9002840F03E818C
:1046700000200DF08BF9012063F462D101214FF489
:10468000617002F007FC002840F02181784B93E82C
:1046900003000E90ADF83C100EA8090C8DF83E10EA
:1046A00003F04CF9002840F00381724B724AC3F8C2
:1046B0000A2007229A7300264FF480721A809E7097
:1046C0000CA920232046ADF8303062F461D40346B3
:1046D000002840F08480694B159A9A4256D00022F7
:1046E0001146012002F0B2FC0346002840F0A181EF
:1046F0000021604A084661F49BD50346002840F03B
:104700008981002118235E4A084661F409D50346D1
:10471000002840F0708106235A4A0121002061F4EC
:10472000FFD40346002840F0578157490026304601
:104730000E808E7002F084F80346002840F03E811F
:104740005249534B40F2F712CDE9002103202C4A85
:104750002D490DF095FE4F4A4F4801210EF09AFE6B
:10476000002840F01C814D4A4D4801210EF092FE78
:10477000002840F005814B4A4B4801210EF08AFE8B
:104780000346002840F0EC8027B0F0BD03F17E43E3
:10479000169A03F5801303F602139A429FD1BDF8CF
:1047A0005C2044F24C539A4299D19DF85E60002EF1
:1047B00095D10A223D49012002F048FC024600281A
:1047C00096D0334B10A8CDE9125340F2DF13CDE958
:1047D00010661493ADF844200DF0B8FA88E72C4A1F
:1047E000CDE9106610A8ADF8443040F2D913CDE9F8
:1047F000125214930DF0AAFA6DE700BFD8BA010166
:10480000B8B70101A8B80101D0B70101D0B80101C2
:10481000FCB8010150F800305100640058F8003035
:10482000A0F80030B4002C01A8F80030D8F800300F
:104830006400F401E0F800305EF8003054400030CD
:104840005CF80030FFFF07005C400030744000302F
:10485000504000304C4000307C40003084400030FC
:104860003C4000306C400030B1440001C5420001C2
:10487000CCB9010160F8003020003000474F4F44B0
:1048800000BB010118BB010174F8003038B9010107
:1048900078BA01010D44000178F80030D1430001DD
:1048A000B0F800307D43000128F800302CB9010138
:1048B000002315936360664BADF85800CDE917539C
:1048C00020464FF4E67319930DF040FAEDE600230D
:1048D000159363605E4BADF85800CDE91753204641
:1048E00040F2BD1319930DF031FACFE60023CDE964
:1048F0001033584BADF84400139310A84FF40B73CA
:10490000129514930DF022FAB2E60022CDE910229E
:10491000ADF844304F4B139310A840F22223129568
:1049200014930DF013FA94E64A4ACDE9106610A8E4
:10493000ADF8443040F21B23CDE9125214930DF030
:1049400005FA79E600231593636040F2AE23ADF8D3
:1049500058002046CDE9175619930DF0F7F9EDE50B
:1049600000223D49159220466260ADF8583040F271
:104970004123CDE9175119930DF0E8F927B0F0BDA7
:104980000023354A15936360ADF8580040F23E238A
:104990002046CDE9175219930DF0D8F9EBE6002324
:1049A0002D4A15936360ADF8580040F23B23204632
:1049B000CDE9175219930DF0C9F9D4E6244ACDE98F
:1049C000106610A8ADF8443040F2F513CDE912524C
:1049D00014930DF0BBF9B3E60022119210921C4A19
:1049E000ADF8443010A840F2EF13CDE91252149301
:1049F0000DF0ACF999E6002211921092144AADF82C
:104A0000443010A84FF4F673CDE9125214930DF010
:104A10009DF980E60022119210920D4AADF84430C3
:104A200010A840F2E913CDE9125214930DF08EF95B
:104A300067E6002211921092054AADF8443010A8A2
:104A400040F2E513CDE9125214930DF07FF94FE6D1
:104A500078BA0101C8BA010168BA010130B503880A
:104A600040F2023293428FB004464BD02BD8B3F5BC
:104A7000027F00F08F800FD940F20132934209D1BA
:104A80007B4800224FF4FA610EF00EFA034600282C
:104A900040F0A1800FB030BDB3F5807F6BD040F205
:104AA00007229342F6D141880029F3D0714C724B12
:104AB000724A40F27F20CDE9014100907049032005
:104AC0000DF0DEFCE6E7B3F5C06F59D0B3F5E06F4B
:104AD0000DD12222002105A8257910F081FC6379EF
:104AE000002B74D005A9284669F4AED3D2E740F272
:104AF00006329342CED1007901210FB0BDE830409B
:104B000062F45290017A5F4A5C4D5F4B4FF41A7029
:104B1000CDE9012100905A492A4602200DF0B0FC4F
:104B200053480EF009FB59480EF006FB58480EF0AA
:104B300003FB584A584BC2F80A300021084661F47A
:104B400077D30346002865D1544940F6B833002096
:104B50000B8001F075FE034600284CD1504C514BA0
:104B60004FF4CA70CDE90004444A454903200DF0D2
:104B700087FC0FB030BD0FB0BDE83040FFF7BABCC6
:104B80004388002B86D1C18800790FB0BDE8304042
:104B90000DF0CCB8047A002C7FF47CAF3D4A424B38
:104BA000C2F80A302146204661F442D30346002869
:104BB0004ED13A49002420460C8001F041FE0346C4
:104BC000002836D1394C3A4B4FF4D570CAE701234F
:104BD0008DF8153086E70022284C3649069205A844
:104BE000ADF8183040F26323CDE9074105920993EF
:104BF0000DF0ACF84EE700222A49069205A8ADF860
:104C000018304FF4C973CDE90751059209930DF09F
:104C10009DF8A3E700222349069205A8ADF81830B5
:104C200040F28D13CDE90751059209930DF08EF8EE
:104C30008AE712491E4A069405A8ADF818304FF4C9
:104C4000D473CDE90712059409930DF07FF8B9E705
:104C50000A49174A069405A8ADF818304FF4D273E4
:104C6000CDE90712059409930DF070F8A1E700BF94
:104C700028F8003058B9010140BA0101B8B7010164
:104C8000D0B7010198B90101F4B9010178F80030F9
:104C9000B0F8003060F800302000300074F80030C8
:104CA000B0B90101E8BA01014006A00F7CB90101C9
:104CB00028BA010110BA0101704700BF704700BF58
:104CC0000A464FF47A73014600200FF047B800BF40
:104CD00000200FF06BB800BF2DE9F0433E483F4A7B
:104CE0003F4991B04FF48063CDE90123836040F2E6
:104CF0000523038283804FF4E1330024032501263A
:104D000001AA03644FF40063C0E91154C0E91344DD
:104D1000047046650676067343610EF05DFF314B05
:104D2000314A3249CDF81A3001A84FF0100940F24B
:104D3000022807278DF804500DF074FB0DF000F8E1
:104D400001A90520CDF80490ADF808808DF80A700F
:104D50000EF0C8FB01A90420CDF80490ADF808803E
:104D60008DF80A700EF0BEFB4FF480538DF80E40A4
:104D7000022202934FF4004040F20513042405215F
:104D80000890ADF80C30ADF81830ADF82430ADF81F
:104D900030308DF832200E92ADF83C308DF83E4028
:104DA0004FF48043124A8DF81A6001A84FF4005462
:104DB0008DF804108DF810108DF81C108DF8265009
:104DC0008DF834508DF8281005940B930DF0FEF8F3
:104DD00011B0BDE8F08300BFE4FC0030E4F800301F
:104DE000B94C00011D010101D14C0001C14C000171
:104DF000BD4C0001FEE700BFFEE700BFFEE700BFBD
:104E0000FEE700BFFEE700BFFEE700BFFEE700BF12
:104E1000024A034603CA18605960704740BB01014B
:104E2000024B103043F82010704700BF00410030A3
:104E3000024B1B6803B11847704700BF4CFE00309F
:104E400010B5054C012120460AF09EF920460121AB
:104E5000BDE810400AF036B800F00F0110B5714BF4
:104E60005A68100682B000F1D0805B68590600F1E4
:104E7000CC806C4B5B6C5A0604D56B4A137843F0BC
:104E800004031370694B6A4C40F25F10984700238B
:104E900001205A0903F01F016032013300FA01F1C9
:104EA000222B44F82210F4D100200BF02BF8002024
:104EB00007F008FE0146002007F0FAFD012008F087
:104EC0005DFC5C48012109F0FDFF002840F0A68050
:104ED000642007F045FD00234FF4FA7218460121C3
:104EE00007F054FD08F096F908F032FC4D4A53687B
:104EF0005B070ED0536850490B4043F4002343F046
:104F00000503536000BF00BF00BF00BF53680B40E4
:104F100053604A4B4A4A1A6074F46CD0002008F07F
:104F2000A1FB484B3F4C484A93E80300ADF80410FE
:104F30000090636803F0070308336B4413F8084CD0
:104F400002FB04F403F016FF404A516853685B1AF1
:104F50009C42FBD803F03AFF16F01EFC0AF0CEFE8E
:104F60003B4BD3F8102242F48022C3F81022D3F82E
:104F7000082222F48022C3F80822D3F8102222F457
:104F80008012C3F81022D3F8082242F48012C3F82A
:104F90000822D3F8102242F40002C3F81022D3F8FA
:104FA000082222F40002C3F80822D3F8102242F4A7
:104FB0008002C3F81022D3F8082222F48002C3F83A
:104FC0000822D3F8102242F40012C3F81022D3F8BA
:104FD000082222F40012C3F80822D3F8102242F467
:104FE0000022C3F81022D3F8082222F40022C3F8CA
:104FF000082247F230500DF033FD002008F086FA09
:1050000002B0BDE810400EF02BBD124B9847124B7A
:105010009847124B9847124B98472AE7FFF710FF23
:1050200056E700BF00C500A048FE003059500030D0
:1050300000E100E000F00F01F8FFE3FFC84100309D
:105040000090D00320BB0101A0860100001000E009
:1050500000E000A009500030F94F00303950003016
:1050600019500030BFF35F8F044B054A99680968F7
:1050700011609A60BFF34F8F704700BF00ED00E0F2
:1050800000410030BFF35F8F044B054A99680968FF
:1050900011609A60BFF34F8F08F060BB00ED00E035
:1050A0000041003008B50E4B1B6E4FF275129BB2DB
:1050B000934211D0022009F07FF903F0A7FE00B956
:1050C000FEE707F0D9FCFFF7C9FE03F01FFE054A13
:1050D000054B12681A6008BD03F028FEFEE700BF0A
:1050E00000C500A00040000144FE0030052810B4B7
:1050F00025D814494B6803F0070383421DD04A6842
:10510000114C224042F4002242F005024A6000BFE6
:1051100000BF00BF00BF0D4A4B6852F8202023405B
:10512000034343EA82434B60094A0A4B52F820206A
:105130005DF8044B1A6073F45D971846F4E75DF868
:10514000044B704700C500A0F8FFE3FF28BB010136
:1051500048BB0101C8410030024B5B6803F0070304
:105160000370704700C500A0044B05495B68054A01
:1051700003F0070351F823301360704700C500A007
:1051800048BB0101C841003000F062F800F054F85B
:10519000FEE700BF38B504460D460D48242103F054
:1051A0006BFF0C480A2107F033F803210A4803F08B
:1051B0001BFC02F071FC052002F098FC02F084FC5C
:1051C00002F08EFC29462046BDE8384000F02CBD98
:1051D00034420030E4410030CC41003008B5FFF7E4
:1051E00041FF0AF0E1F9BDE80840FFF75BBF00BFEF
:1051F00008B50C490C4A0D4B9A42BEBF51F8040B3E
:1052000042F8040BF8E70A490A4A00209142BCBF61
:1052100041F8040BFAE7FFF7E1FFBDE80840FFF7AC
:105220002FB8000050E101010040003098B100307B
:10523000E0B100303014013008B573F459D418B916
:10524000BDE80840FFF7D4BFFFF71CFFFEE700BF33
:10525000034AD2F8883043F47003C2F888307047AC
:1052600000ED00E010B5044638B100F057FD20B95C
:10527000024B1B680BB12046984710BD50FE003012
:1052800070B58AB005460E4614462422FF2101A8B7
:1052900010F0A6F840F20153ADF80030ADF802600E
:1052A0008DF8045034F8043BADF808300394684698
:1052B000FFF7D8FF0AB070BD70B58AB005460E463C
:1052C00014462422FF2101A810F08AF840F202536C
:1052D000ADF80030ADF802608DF8045034F8043BAE
:1052E000ADF8083003946846FFF7BCFF0AB070BD04
:1052F00070B58AB005460E4614462422FF2101A847
:1053000010F06EF840F20353ADF80030ADF80260D3
:105310008DF8045034F8043BADF808300394684627
:10532000FFF7A0FF0AB070BD70B58AB005460E4603
:1053300014462422FF2101A810F052F840F2045331
:10534000ADF80030ADF802608DF8045034F8043B3D
:10535000ADF8083003946846FFF784FF0AB070BDCB
:1053600070B58AB005460E4614462422FF2101A8D6
:1053700010F036F840F20553ADF80030ADF8026099
:105380008DF8045034F8043BADF8083003946846B7
:10539000FFF768FF0AB070BD70B58AB005460E46CB
:1053A00014462422FF2101A810F01AF840F20653F7
:1053B000ADF80030ADF802608DF80450ADF808404B
:1053C0006846FFF74FFF0AB070BD30B58BB0054699
:1053D0000C462422FF2101A810F002F840F20753E6
:1053E000ADF800300023ADF802308DF8045002AB68
:1053F00020686168A26807C36846FFF733FF0BB0F7
:1054000030BD70B58AB005460E4614462422FF21F1
:1054100001A80FF0E5FF4FF4A063ADF80030ADF840
:1054200002608DF8045002AD20686168A268E368EC
:105430000FC520692860A38AAB801634089468469B
:10544000FFF710FF0AB070BD10B58AB004462422E1
:10545000FF2101A80FF0C4FF40F20273ADF8003045
:105460000023ADF802308DF804406846FFF7FAFEDD
:105470000AB010BD30B58BB005460C460A4B002271
:105480001A702422FF2101A80FF0AAFF40F2016345
:10549000ADF80030ADF802508DF806406846FFF7D1
:1054A000E1FE0BB030BD00BF55FE003030B58BB013
:1054B00005460C462422FF2101A80FF091FF4FF46E
:1054C0008063ADF800300023ADF802308DF8045051
:1054D0002388ADF808306846FFF7C4FE0BB030BD36
:1054E00030B58BB005460C462422FF2101A80FF0F1
:1054F00077FF40F20143ADF800300023ADF80230F1
:105500008DF8045020680290A388ADF80C30063462
:1055100004946846FFF7A6FE0BB030BD30B58BB0E3
:1055200005460C462422FF2101A80FF059FF40F246
:105530000243ADF800300023ADF802308DF804507E
:105540002388ADF808306846FFF78CFE0BB030BDFD
:1055500030B58BB0054614462422FF2101A80FF078
:105560003FFF40F20343ADF800300023ADF80230B6
:105570008DF80450236802936846FFF773FE0BB062
:1055800030BD70B58AB006460D4614462422FF2170
:1055900001A80FF025FF40F20443ADF800300023CE
:1055A000ADF802308DF804604FF0FF33CDF80B30CA
:1055B000ADF81050ADF812406846FFF753FE0AB040
:1055C00070BD30B58BB005460C462422FF2101A8E2
:1055D0000FF006FF40F20473ADF800300023ADF881
:1055E00002308DF804508DF805406846FFF73AFE0A
:1055F0000BB030BD30B58BB005460C462422FF21E0
:1056000001A80FF0EDFE40F20373ADF80030002367
:10561000ADF802308DF804508DF805406846FFF76C
:1056200021FE0BB030BD70B58AB0054614460E465B
:1056300009B16036F6B22422FF2101A80FF0D0FE96
:1056400040F20173ADF80030ADF802608DF80450FF
:105650008DF805406846FFF705FE0AB070BD70B5CD
:105660008AB04FF6FF73ADF826304FF4E063ADF823
:1056700000300023ADF802308DF804000B460DF128
:10568000050220311E685D689C68D8681660556008
:105690009460D060103310328B42F3D11B781370BA
:1056A0006846FFF7DFFD0AB070BD70B58AB00546E9
:1056B0000E4614462422FF2101A80FF091FE4FF45C
:1056C000C063ADF80030ADF802608DF80450ADF85D
:1056D00006406846FFF7C6FD0AB070BD30B58BB016
:1056E00005460C462422FF2101A80FF079FE40F266
:1056F0001123ADF80030ADF8025020680290A28866
:10570000A379ADF80C208DF80E306846FFF7AAFD9E
:105710000BB030BD70B58AB005460E461446242243
:10572000FF2101A80FF05CFE40F20A33ADF8003013
:10573000ADF802608DF8045002AB2068616803C3C5
:105740006846FFF78FFD0AB070BD70B58AB0054698
:105750000E4614462422FF2101A80FF041FE40F21C
:105760000933ADF80030ADF802608DF8045002AB9B
:105770002068616803C322891A806846FFF772FDBA
:105780000AB070BD70B58AB005460E461446242294
:10579000FF2101A80FF024FE4FF44273ADF8003052
:1057A000ADF802608DF8045020680290A388ADF82F
:1057B0000C306846FFF756FD0AB070BD30B58BB0AF
:1057C00005460C462422FF2101A80FF009FE40F2F5
:1057D0000633ADF800300023ADF802308DF80450E8
:1057E00002AB2068616803C36846FFF73BFD0BB05E
:1057F00030BD70B58AB005460E4614462422FF21FE
:1058000001A80FF0EDFD40F20533ADF80030ADF822
:1058100002608DF8045020680290A388ADF80C3027
:105820006846FFF71FFD0AB070BD30B58BB0054666
:105830000C462422FF2101A80FF0D2FD40F20733CD
:10584000ADF800300023ADF802308DF8045002AB03
:105850002068616803C3083404946846FFF702FDBA
:105860000BB030BD00B58BB02422FF2101A80FF092
:10587000B7FD4FF44173ADF800300023ADF80230AE
:105880006846FFF7EFFC0BB05DF804FB10B58AB07B
:1058900004462422FF2101A80FF0A2FD40F20333A9
:1058A000ADF80030ADF802406846FFF7DBFC0AB007
:1058B00010BD70B58AB005460E4614462422FF215D
:1058C00001A80FF08DFD40F20233ADF80030ADF8C5
:1058D00002608DF804508DF808406846FFF7C2FC5E
:1058E0000AB070BD70B58AB004460E461546242233
:1058F000FF2101A80FF074FD40F20133ADF8003034
:10590000ADF802608DF8044002AC28686968AA68A6
:10591000EB680FC42B8A23806846FFF7A3FC0AB00C
:1059200070BD10B58AB004462422FF2101A80FF0F3
:1059300057FD4FF40473ADF800300023ADF802308A
:105940008DF804406846FFF78DFC0AB010BD30B5F5
:105950008BB004460D462422FF2101A80FF040FD24
:1059600040F20F23ADF80030ADF802508DF804403E
:105970006846FFF777FC0BB030BD70B58AB00646BD
:105980000C4615462422FF2101A80FF029FD40F204
:105990000E23ADF80030ADF8024002AC286869680B
:1059A000AA68EB680FC48DF804606846FFF75AFCDC
:1059B0000AB070BD30B58BB004464FF0FF33019391
:1059C00040F20D23ADF800300023ADF8023002ADF7
:1059D00000686168A268E3680FC520696169A2690F
:1059E00007C51C3409946846FFF73CFC0BB030BD7A
:1059F00030B58BB005460C462422FF2101A80FF0DC
:105A0000EFFC4FF40373ADF80030ADF802508DF8A1
:105A100008406846FFF726FC0BB030BD10B58AB0D1
:105A200004462422FF2101A80FF0DAFC40F20B23E8
:105A3000ADF80030ADF802406846FFF713FC0AB03D
:105A400010BD10B58AB00C462422FF2101A80FF02A
:105A5000C7FC40F20A23ADF80030ADF802406846BA
:105A6000FFF700FC0AB010BD10B58AB00C46242226
:105A7000FF2101A80FF0B4FC40F20923ADF800307B
:105A80000023ADF8023020680290A288A379ADF817
:105A90000C208DF80E306846FFF7E4FB0AB010BD0D
:105AA00070B58AB005460E4614462422FF2101A88F
:105AB0000FF096FC4FF40273ADF80030ADF80260C1
:105AC0008DF804508DF808406846FFF7CBFB0AB00C
:105AD00070BD30B58BB004460D462422FF2101A8CD
:105AE0000FF07EFC40F20723ADF80030ADF8025015
:105AF0008DF804406846FFF7B5FB0BB030BD30B5FC
:105B00008BB005460C462422FF2101A80FF068FC4B
:105B100040F20623ADF80030ADF8025002AB206829
:105B20006168A26807C3A2891A806846FFF79AFBDA
:105B30000BB030BD70B58AB005460E46144624221F
:105B4000FF2101A80FF04CFC4FF44073ADF800307A
:105B5000ADF802608DF804502388ADF8083068462F
:105B6000FFF780FB0AB070BD30B58BB005460C4620
:105B70002422FF2101A80FF033FCADF80250002CC5
:105B800040F2052308BF4FF40173ADF800306846BA
:105B9000FFF768FB0BB030BD30B58BB005460C4647
:105BA0002422FF2101A80FF01BFC4FF6FF73ADF874
:105BB0000030ADF80250032C07D8DFE804F0020BE8
:105BC00010154FF40073ADF800306846FFF74AFB3C
:105BD0000BB030BD40F20123ADF80030F5E740F2E4
:105BE0000223ADF80030F0E740F20323ADF80030B7
:105BF000EBE7000000B58BB00A4B01221A7024229B
:105C0000FF2101A80FF0ECFB4FF48073ADF80030DA
:105C10000023ADF802306846FFF724FB0BB05DF8B7
:105C200004FB00BF54FE003008B5074B1B783BB99E
:105C300041B1064B1860064809F00EFE002008BD71
:105C40000F20FCE70220FAE754FE003050FE00303F
:105C5000E0430030F0B58BB02E4B1A782E4B1C6809
:105C6000002C34D02379934233D02468002CF9D10E
:105C70000C204CE0D4F810C0DCF8086026B39CF887
:105C80000C70012F98BF00220FD900220123D908E0
:105C9000715C03F00700014111F0010F1CBF0132DC
:105CA000D2B20133DBB2BB42F1D1DCF800301B8849
:105CB0002381DCF8001009880A4492B26281ADF8B1
:105CC0000830ADF80A2019E09CF80C20EDE70C2014
:105CD0001DE023691B68E2881A80206964F43AD4C5
:105CE00005462422FF2101A80FF07AFB40F205436C
:105CF000ADF80030ADF80250002DBBD0E3680BB119
:105D000068469847034A137801331370E8B20BB022
:105D1000F0BD00BF55FE003060FE00302DE9F041BF
:105D20000446002800F0AD80038840F2044293420C
:105D300014D8B3F5806F09D3A3F58063042B00F268
:105D4000A280DFE803F0495052545600A3F2013319
:105D50009BB2012B25D90020BDE8F081B3F5A16FDE
:105D600011D2B3F5A06F5BD80BD101F015FC4A4BF3
:105D70001D68002D00F08B80267AB04604F10907DB
:105D80003BE00020E8E740F20162934205D1434B3B
:105D90001D68002D55D10020DEE740F201729342CC
:105DA00073D13E4B1D683DB93B4B1D6865B9002062
:105DB000D2E72D68002DF7D0EB68002BF9D02046F4
:105DC0009847F6E72D682DB1EB68002BFAD02046F6
:105DD0009847F7E70020BFE702894FF6FF739A4222
:105DE00037D10020B8E70289F7E70289F5E7428951
:105DF000F3E7028AF1E72D6885B12B79B342FAD136
:105E000042463946A8680FF0A1F90028F3D1EB68A3
:105E1000002B3ED02046984700209DE700209BE7BE
:105E20001D4B1D681DB9002096E72D682DB1EB684C
:105E3000002BFAD020469847F7E700208CE72D6822
:105E40002DB1EB68002BFAD020469847F7E70020E9
:105E500082E7124B1B681BB901207DE71B6873B1F9
:105E600019899142FAD859899142F7D3DB68012008
:105E7000002B3FF471AF2046984701206CE70120CA
:105E80006AE7002068E7002066E7002064E700205A
:105E900062E7002060E700BF58FE003060FE00307F
:105EA00070B50D460646C8B10E4868F45DD384B29D
:105EB0000CB1204670BD142075F4D0D780B10661B6
:105EC00032681288C280C56007490A7802710132BF
:105ED0000A70064A116801601060EAE70224E8E7E8
:105EE0001024E6E760BB01015CFE003060FE00307C
:105EF000F0B5ADF5117D0D461C0A204662F46AD757
:105F00000746204662F466D7504B514A002818BF16
:105F10001346009323464F4A1021002006F43ED733
:105F2000FF2C03D100200DF5117DF0BD2B884A4ECA
:105F300033806B887380AB88B380EB88F3802B7AD7
:105F400033726B7A737237742B4653F80A2FC6F884
:105F50000A209B88F381414B03EBC402002143F8E4
:105F6000341051602A8823F8342040F291122BA873
:105F70000FF036FA2BA85FF455D4737A012B04D1B5
:105F8000F37B03F0C003402B25D005F10A0632460F
:105F9000697A204674F410D23246697A204601F0BC
:105FA000A7FA002F43D12E4B032283F8A820D3F861
:105FB000AC301B78012BB5D100206AF461D1294B9C
:105FC0001B682BB19B6B1BB1234A002120469847CD
:105FD0006AF48CD1A6E7224B93F81C3113F0040F1E
:105FE000D3D09DF8AC60002ECFD0A022002103A812
:105FF0000FF0F6F903AB0DF1B50206F1FF3C5FFAC5
:106000008CFC07A901EB0C1C176855689068D168D7
:106010001F605D609860D960103328326345F3D10A
:10602000334603AA104920466DF46CD07AE700206D
:106030006AF426D10B4B1B682BB19B6B1BB1064A34
:106040000021204698476AF451D16BE76CBB0101EF
:1060500074BB01017CBB0101182780002A27800046
:106060007C2780009821800022278000F8B50E460A
:10607000EFF311871E4A92F8021302F54062D268CC
:10608000C2F302220132012000FA02F20A4482F332
:1060900011881C0A174B03EBC402002543F8345047
:1060A00055604FF6FF7223F8342087F31188B378D8
:1060B000114A1021284606F471D6204674F414D2F1
:1060C00020466EF489D6204674F416D128466AF428
:1060D000D7D00A4B1B683BB1DB6B2BB1B278703A5F
:1060E000D2B22946204698476AF400D10020F8BD74
:1060F00000E100E02A278000B0BB01019821800068
:1061000070B584B00C464E781D0A02960A7801924A
:1061100000955B4B5B4A1021002006F43FD62278A5
:10612000013A182A35D8DFE802F098344F4F34345A
:106130001F1F65340D3434343434343434823434F1
:10614000391F1F006378222B23D100206AF498D0D6
:106150004D4B1B682BB15B681BB100220F212846F9
:1061600098476AF4C3D014E06AF480D70446474BDA
:1061700003EBC503002058716AF482D0444B1B68BE
:106180002BB15B6D1BB122463146284698476AF415
:10619000ADD06AF471D7002004B070BD6AF466D740
:1061A00004463A4B03EBC503002018716AF468D02B
:1061B000374B1B682BB19B681BB1224631462846E2
:1061C00098476AF493D0E4E76AF450D704462F4B1B
:1061D00003EBC503002098716AF452D02C4B1B6866
:1061E0002BB19B6D1BB122463146284698476AF475
:1061F0007DD0CEE76AF43AD70446244B03EBC503BF
:10620000002098706AF43CD0214B1B6863B1DB6CB2
:1062100053B12EB944B1224600212846984703E0E5
:1062200022463146284698476AF460D0B1E76AF4BE
:106230001DD70446154B03EBC5030020D8706AF444
:106240001FD0134B1B682BB1DB6D1BB122463146AF
:10625000284698476AF44AD09BE76378002B98D089
:1062600000206AF40DD00A4B1B682BB1DB6B1BB10D
:1062700000226178284698476AF438D089E700BF41
:1062800000BC0101CCBB0101EC2380002A27800067
:1062900098218000F8B50C46194623781BB1012BD4
:1062A00026D00020F8BD022340F60D6065F442D3ED
:1062B00005460028F5D06388F82B07D9482343709A
:1062C00023782B70284665F47BD3EAE700234370DC
:1062D000271D3A46A178022009F0D2F80C4E6288B8
:1062E000394630460EF066FF638806F8013CE7E762
:1062F000022340F60D6065F41DD30028D1D022782A
:1063000002706188034AA2F8701265F459D3C8E795
:10631000F42880007C278000F0B585B00446EFF3B8
:1063200011867B4B93F8022303F54063DB68C3F3CC
:1063300002230133012101FA03F3134483F311888B
:1063400069F4D4D70546734F97F8A5200094724B93
:1063500053F82230714A1021002006F41FD58DF821
:106360000D4097F8A530092B00F2CB80DFE803F051
:106370000520C9C9C930435D64726BF423D3654BF2
:10638000012283F8A520002283F8A820614B93F80E
:10639000A520614B53F82230614A1021002006F4F9
:1063A000FDD4284669F46CD786F3118805B0F0BD9A
:1063B000002CEBD0574B002083F8A50083F8A600F3
:1063C0000C238DF80C300DEB03016AF455D0DDE79A
:1063D000504B93F8A630A22B06D06BF4E1D44D4B72
:1063E000092283F8A520D1E76DF4ACD3494B0622EE
:1063F00083F8A520CAE75CB16BF4D2D4454B0922DF
:1064000083F8A520042283F8A82083F8A940BDE7DB
:10641000404B072283F8A5200C238DF80C300DEBA0
:10642000030100206AF428D0B0E76DF4DDD4394BC5
:10643000082283F8A520A9E7002CA7D0354B072216
:1064400083F8A5200D238DF80C3003A900206AF4F1
:1064500013D09BE72F4B002283F8A520FF2283F85F
:10646000A42093F8A830042B21D0062B2FD0012B89
:1064700038D0032B8AD1274B002283F8A820D3F8E9
:10648000AC301B78012B81D0104669F4F9D6254B2E
:106490001B684BB19C6B3CB1234F38886FF4C2D161
:1064A0003A460021C0B2A04769F420D76EE7194BE5
:1064B000002083F8A8000C228DF80C2093F8A93056
:1064C0008DF80D300DEB020169F4D6D75EE70020A0
:1064D000104B83F8A8000D238DF80C3003A969F444
:1064E000CBD753E700200B4B83F8A80069F4C8D63C
:1064F0000C4B1B6813B15B6C03B1984769F4F6D67B
:1065000044E74FF477720949094800F4F9D43DE7AC
:1065100000E100E07C278000282280001CBC0101F3
:1065200058BC0101982180001827800050BC01014F
:1065300058C601012DE9F041CAB006238DF8273174
:10654000B04B032283F802210F2283F8032100229B
:1065500083F8312183F830214FF40072A3F8282109
:10656000A3F82A210A2283F82C21FB22A3F8242154
:1065700040F64802A3F8262148AA0DF2271101206F
:1065800008F0E4FE00282DD19E4B002283F81C2148
:106590009C4B4FF46172A3F80421B3F8222142F01E
:1065A0008002A3F8222142A84DF4C4D64298439B0E
:1065B00018440EF067FF00233E933F9340934193AE
:1065C00044A809F01FFB00287ED110223EA944A850
:1065D0000EF0BCFD002877D08B4C44AB0FCB84E889
:1065E0000F0074E044A809F00DFB0028CCD1854BC6
:1065F000012283F81C21854B1B788BB39DF8103149
:10660000412B1BD07F4B9DF81A2183F806219DF862
:106610001D2183F807219DF81E2183F808219DF88C
:106620001F2183F8092109F05FFC764B83F80A01EA
:10663000000A60F03F0083F80B01A9E7714B9DF859
:10664000182183F806219DF8192183F807219DF868
:106650001A2183F808219DF81B2183F80921E2E71C
:106660009DF81031412B1BD0664B9DF81A2183F801
:1066700008219DF81D2183F809219DF81E2183F82A
:106680000A219DF81F2162F03F0283F80B2109F0D7
:106690002BFC5C4B83F80701000A83F8060177E7BF
:1066A000584B9DF8182183F808219DF8192183F88B
:1066B00009219DF81A2183F80A219DF81B2162F017
:1066C0003F0283F80B21E2E74F4873F4C1D54FF442
:1066D000B57200214E480EF083FE4722002101A82A
:1066E0000EF07EFE01A85FF42FD068B99DF804304B
:1066F000484A1021002006F451D39DF8043043B1DC
:106700000025434C444E42E0444A1021002006F448
:1067100045D34AB0BDE8F081237803EBC3039B0067
:106720000233E2183968E150B988BB7991809371DE
:106730009DF84C3013F0080F42D0237803EBC303CD
:1067400004EB8303DDF89200DDF89610DDF89A2063
:10675000DDF89E70C3F80A00C3F80E10C3F81220CB
:10676000C3F81670DDF8A200DDF8A610DDF8AA2047
:10677000C3F81A00C3F81E10C3F82220237801338F
:10678000237001359DF80420EBB29A42C1D9AC22A6
:10679000002113A80EF024FE5FFA85F8C8EBC807A5
:1067A000013701AB1F4413A938465FF485D0002898
:1067B000B2D0434632461021002006F4EFD2E0E783
:1067C000237803EBC30304EB8303DDF87600DDF8E5
:1067D0007A10DDF87E20DDF88270C3F80A00C3F875
:1067E0000E10C3F81220C3F81670DDF88600DDF82D
:1067F0008A10DDF88E20C3F81A00C3F81E10C3F803
:106800002220BBE77C27800088288000D4FF00304E
:1068100064FE00309CBC0101B0BC01017CBC0101E4
:10682000034B044A1A60044B044A1A60704700BFC5
:106830000C228000356500011822800019630001D8
:10684000F0B583B004460D46EFF311877E4B93F805
:10685000022303F54063DB68C3F302230133012104
:1068600001FA03F3134483F3118869F43FD5064614
:10687000042C5AD8002D5FD0C4EBC403734A02EB3A
:106880008303DB68002B57D0C4EBC4036F4A02EBD1
:1068900083035B7A002B56D1C4EBC4036B4A02EB33
:1068A00083031B69002B5FD0C4EBC403674A02EB70
:1068B0008303DB685A8812F0020F40F08A8019784F
:1068C000022900F08B8012F0080F05D02A88013AC7
:1068D00092B27F2A00F292805B78022B00F09580C2
:1068E000C4EBC403594A02EB8303DB69002B00F0BD
:1068F0009B80C4EBC403554A02EB8303DB692A681F
:106900001A602146002069F44DD6002500952346E3
:106910004F4A1021002006F441D2304669F4B0D429
:1069200087F31188284603B0F0BD4A4A10210020A1
:1069300006F434D21525E9E7474A1021002006F471
:106940002DD20225E2E767F42BD4C4EBC4033F4AFF
:1069500002EB83035B7A002B9ED0404A102100207B
:1069600006F41CD20F25D1E7C4EBC40302EB83036A
:10697000DB681A7852B95A8812F0040FA3D1384A4A
:106980001021002006F40AD22325BFE7012A19D1DD
:106990005A8812F0020F0ED0C4EBC4012B4800EB52
:1069A0008101496900298ED12E4A1021002006F468
:1069B000F5D12525AAE72C4A1021002006F4EED1B6
:1069C0002325A3E7294A1021002006F4E7D1232537
:1069D0009CE7197801297FF472AFDDE7C4EBC401AD
:1069E0001A4800EB8101896900297FF46CAF204AC5
:1069F0001021002006F4D2D1242587E71D4A10215A
:106A0000002006F4CBD1262580E72B88013B9BB2E2
:106A100044F24F6293427FF663AF174A1021002081
:106A200006F4BCD1262571E70021042064F45CD76C
:106A3000C4EBC403054A02EB8303D86100287FF44A
:106A400058AF102562E700BF00E100E07C2780001E
:106A500058BD0101E0BC0101ECBC0101F8BC010121
:106A600004BD010128BD010110BD01011CBD0101D2
:106A700034BD010140BD01014CBD010110B582B022
:106A80000C468B7801934A78644B53F8223000937C
:106A90000B78634A1021002006F480D16378032B21
:106AA00071D8DFE803F002607D9820786BF4F6D5AA
:106AB000C3B2C3EBC3015B4A02EB810205215172F1
:106AC000A278452A20D0C3EBC302564901EB8202CB
:106AD00092F82020013AD2B2012A36D9C3EBC30280
:106AE00001EB8202032182F82010C3EBC3034D4A5D
:106AF00002EB8303DB681B78022B30D04A4B1B6808
:106B00000021C0B298473EE0C3EBC302454901EB08
:106B10008202D2681278022A10D0C3EBC302414924
:106B200001EB820292F82020022A2CD0C3EBC30290
:106B300001EB8202012182F82010D6E7C3EBC302E9
:106B400001EB820207215172BDE7C3EBC302354955
:106B500001EB820292F82020022A14D0C5E7A37824
:106B6000452BCBD10FE02F4B052283F89920A3783A
:106B7000452B0BD02B4B93F89C30022B03D02B4B87
:106B80001B6800209847002002B010BD254B93F8E9
:106B90009C30022BF7D0234B012283F89C20EEE798
:106BA000204B052283F8A520A378452B09D01D4B47
:106BB00093F8A830062BE6D01D4B1B6800209847A1
:106BC000E1E7184B93F8A830062BDCD0154B0122D7
:106BD00083F8A820F0E720786BF4C2D5C2B2114B3D
:106BE00003EB0213052183F8B110A378462B09D0DB
:106BF000CE2B07D00B4B03EB021292F8B330022BD3
:106C0000C1D005E0074B03EB0212052382F8B33035
:106C1000084B1B680021C0B29847B4E76822800087
:106C200078BD01017C2780001022800014228000A2
:106C3000182280001C228000F0B5B1B005460C4639
:106C400017461E460978032918D001294BD001F1B7
:106C50005700C0B202284ED85D4B93F89420C2EB87
:106C6000C20203EB82035B7A072B3FD033463A46DE
:106C7000214628466DF4DED231B0F0BD02200BF47F
:106C8000A3D3002305938DF8183005A901F4DCD3B4
:106C90000028EBD14FF4205105A801F4A7D7002814
:106CA000E4D142F6010105A801F4A0D70028DDD106
:106CB00042F6030105A801F499D70028D6D142F67F
:106CC000020105A801F492D70028CFD14FF4245136
:106CD00005A801F48BD70028C8D1059A938843F002
:106CE000F8039380C2E702F04BFBBFE720466AF44B
:106CF000D3D30020C0E71729B8D16AF4B7D105462D
:106D00000378092B36D86378002B5BD105A90730AF
:106D10005EF4ECD52F4B9DF83D205A72DDF83720FC
:106D2000C3F80A20BDF83B20DA812E782A4DA5F160
:106D30000A0705AB00932B4615F8012C6178304605
:106D400074F49ED02A4615F8011C304600F0D0FBA2
:106D5000002069F495D2214B1B682BB19B6B1BB1B2
:106D60003A4600213046984769F4C0D26AF484D18B
:106D7000002081E700230393CDF80F3063788BB1B7
:106D8000174B1B6853B1002069F47AD2144B1B686F
:106D90002A7803A96078984769F4A8D26AF46CD17C
:106DA000002069E705A907305EF4A0D59DF83D30C5
:106DB0008DF81230DDF837000390BDF83B30ADF8A8
:106DC0001030DDE7034B18886EF42CD5C6B2ADE762
:106DD0007C278000182780002227800098218000CF
:106DE000D0FF003070B58AB00C46C879FF2832D089
:106DF0006BF434D410F0FF0523D0032D26D00026E9
:106E0000002069F43DD22422FF2101A80EF0E8FA07
:106E100040F21223ADF800300023ADF802308DF8B7
:106E200004608DF808502368CDF80930A388ADF8C8
:106E30000D306846FEF716FA69F458D200200AB001
:106E400070BDE0796BF42AD4C6B2D9E7E0796BF46F
:106E500087D4C6B2D4E700210E2064F445D5054698
:106E60000028EBD00346012203F8032B2268C0F868
:106E70000320A188A27999809A71E0796BF40ED4ED
:106E8000A8700E2128466AF405D1284664F42AD554
:106E9000D4E70000F0B583B004460D46EFF3118748
:106EA000254B93F8022303F54063DB68C3F3022309
:106EB0000133012101FA03F3134483F3118869F4C8
:106EC00015D20646009523461C4A1021002005F4E1
:106ED00065D7BDB1631E9BB24AF2B71293420AD87E
:106EE000942B98BF9624164BA3F8044193F81C21C9
:106EF00042F004020FE0134A1021002005F44ED79F
:106F0000012410E00E4B4FF46172A3F8042193F8B2
:106F10001C2102F0FB020A4B83F81C215A8842F024
:106F200002025A800024304669F4AAD187F31188FE
:106F3000204603B0F0BD00BF00E100E0B4BD010198
:106F40007C278000D8BD010110B5C0B0F8238DF8B2
:106F5000FF30384C40F28C42002120460EF040FABF
:106F60006AF48AD0FF23237284F8243084F84030F6
:106F700084F85C3084F8783084F8B03084F8C0301D
:106F800084F8D03084F8E03084F8F03084F8983019
:106F900084F8A43084F8943084F800310023264A21
:106FA0001370264A1370264B1B689847638843F07A
:106FB0000203638001AA0DF1FF01022008F0C6F967
:106FC00048BB9DF8FF2084F8772101A904F5BC7027
:106FD0000EF0F0F8174B0822A3F872220A22A3F849
:106FE00074220024A3F87642C822A3F878221C71E8
:106FF0005022214613480EF0F3F92146114A4FF66C
:10700000FF7322F8313001310A29FAD100206CF4E3
:1070100033D040B010BD0C4C20460EF0D1FA421CCB
:10702000D2B2044880F87721214600F5BC700EF0FA
:10703000C1F8CFE77C278000082280000922800069
:107040000C2280002A27800088D307002DE9F8430E
:1070500004460D461746EFF31188214B93F802239F
:1070600003F54063DB68C3F302230133012101FA16
:1070700003F3134483F3118869F438D10646A5B1AC
:10708000042C22D8F82F01D901241FE0DFF85890F2
:107090003A46294648460EF08DF8F9B209F8011C27
:1070A0002A46022008F0ECF901E0042C16D80D4B1A
:1070B000B3F8220120F007000443A3F822415A88C4
:1070C00042F002025A80002400E00124304669F4B4
:1070D000D7D088F311882046BDE8F8830124F5E76E
:1070E00000E100E07C278000F428800010B584B027
:1070F0001C0A0A78122A1CD0132A04BF01238DF817
:1071000004308A88ADF808204A88ADF80620063198
:107110000391002069F4B4D00D4A12686AB19369F2
:107120005BB101A92046984769F4E0D0002004B083
:1071300010BD00238DF80430E3E79DF80430012BE7
:10714000F2D1BDF80810204600F07EF8ECE700BF51
:10715000B422800070B582B00D46140A002300935B
:10716000CDF803306946204673F408D19DF8062017
:107170006946204600F0BCF8064668B162F406D7BE
:10718000014660B900232A8830466DF4E7D269468B
:10719000204600F02DFA38B9002002B070BD62F42C
:1071A000F5D6C11C89B2EDE7044A4021002005F460
:1071B000F5D5314668465EF447D4EDE7ECBD0101F4
:1071C000092805D8034B53F82030002283F88F207C
:1071D000704700BFC40E800038B5140A0888104AF2
:1071E00004EB4403190102EB0313505201229A707D
:1071F0002046FFF7E5FF002069F442D0094B1B68E9
:107200004BB11D683DB104EB44031B01044AD25A43
:1072100000212046A84769F469D0002038BD00BF8E
:10722000D42E8000B8228000092809D8054B33F8F5
:1072300030004FF6FF7398420CBF032000207047C8
:10724000032070472A27800038B504460D46FFF713
:10725000EBFF00B138BD2946204661F4ABD6F9E713
:1072600038B504460D46FFF7DFFF00B138BD2946AB
:10727000204663F491D0F9E738B504460D46FFF790
:10728000D3FF00B138BD2946204663F471D380B2E4
:10729000F8E738B504460D46FFF7C6FF00B138BD24
:1072A0002946204662F432D780B2F8E770B504462A
:1072B0000C4A4021002005F471D50B4B1B78A342EA
:1072C00000D870BD04EB4404A601084D2868C02214
:1072D000002100EB84100EF083F82B6800229A55F1
:1072E000EFE700BFFCBD0101E4238000DC22800049
:1072F00070B5114B1B78834217D900EB4000850114
:107300000E4B1C6804EB80140E68C4F80360898877
:10731000A4F80710196801EB801082701A68012127
:10732000515518682844023070BD054A402100209C
:1073300005F434D50020F7E7E4238000DC22800048
:1073400018BE010130B585B004461C4B1C4A4021D3
:10735000002005F423D502A9204600F049F968B9B8
:107360002046FFF7A3FF20466EF4CED0134B154AFC
:107370004021002005F412D505B030BD124A40214D
:10738000002005F40BD59DF80E2002A92046FFF73A
:10739000AFFF05460028E3D00C4A4021002005F449
:1073A000FDD4EB792A7A0092094A4021002005F4A5
:1073B000F5D4294602A85EF447D3D1E72CBF0101DA
:1073C00038BE010194BE010148BE010158BE010151
:1073D00070BE0101014B024A1A607047D82280003A
:1073E000457300012DE9F04F89B004900391059297
:1073F000002006908DF81C00374B384A402105F4D8
:10740000CDD4374B1B68002B63D01E68002E5AD09A
:10741000DFF8D4A0DFF8D4B041E062F4B7D5033090
:107420002AE0494605986DF431D238BB0021049812
:1074300061F4D2D404E03B690022214604989847C5
:107440000134A4B2A54228D306A920465DF45AD53A
:107450000028F5D1414606A85DF45AD50028EFD0A2
:10746000A14623465A464021002005F497D462F4F1
:107470008DD50028D1D100208145D2D0002FDFD07A
:107480003B69002BDCD0039B002BD4D149460598E7
:107490006DF4FCD10028D3D1CDE736689EB1B48815
:1074A0000134A4B2F588308970F4BAD60746009545
:1074B000234652464021002005F470D4AC42ECD85B
:1074C00042F60218C0E7044B064A4021002005F4AA
:1074D00065D409B0BDE8F08F50BF010138BE01018D
:1074E000E022800094BE0101A4BE0101C8BE0101DA
:1074F00070B582B004460E461546224B224A402102
:10750000002005F44BD420466DF4E6D78DF80660D4
:1075100028680090AB88ADF80430324629462046F2
:10752000FFF7E6FE054600B3014668465EF43AD131
:10753000034648B1154A4021002005F42FD42046C7
:10754000FFF7B4FE012111E02B7A114A40210020FF
:1075500005F424D42B7A0BB9012107E02A466946A9
:1075600020466DF497D4002100E001212A462046F0
:10757000FFF738FF034B074A4021002005F40ED4E3
:1075800002B070BD68BF010138BE0101E8BE010153
:1075900004BF010194BE0101014B1878704700BF80
:1075A0002444003030B5AFB0B42404FB00F40F4DD8
:1075B0002B6823441A4652F8010F2C909288ADF89C
:1075C000B420DB798DF8B63001A92CA85EF474D113
:1075D0002B681C44237A13F0010F04D0003818BF25
:1075E00001202FB030BD0020FBE700BFE823800062
:1075F00070B582B003460D46B42404FB00F4114E6E
:1076000032682244127A00920F4A2021002005F4A9
:10761000C5D3336823441A7A12F0010F0FD05A7A77
:1076200012F0020F14BF53F82B2F53F8012F2A60CA
:107630009A889B79AA80AB71012002B070BD0020AE
:10764000FBE700BFE823800088BF0101F0B585B0EB
:107650001C0A0F783B46304A2021002005F49ED3B7
:10766000B42505FB04F52D4B1B685A195E5D1EB150
:10767000537A13F0010F05D1204673F4D1D30020C3
:1076800005B0F0BD2046FFF78DFF02460028F3D17C
:10769000224B1B681D442B7A13F0010F08D117F001
:1076A000010F05D01E49CA7842F00102CA70324665
:1076B00013F0040F0ED117F0040F0BD01849CA783D
:1076C00042F00402CA7013F0080FD5D117F0080F6A
:1076D0001CD1D1E713F0080F15D0002ACCD1D5F872
:1076E0004EE0D5F852C0D5F856706E4655F85A0F90
:1076F0006968AA68EB680FC6714662463B46204639
:1077000072F41ED6BBE717F0080FE6D0044AD37810
:1077100043F00803D370AFE7B0BF0101E823800056
:10772000F02380002DE9F84F0E461C46774A2021B1
:10773000002005F433D312234B22214640F6186073
:1077400064F4F8D0054600283FD0240A0023804680
:1077500008F8013B6E4F3B706E4BC3F8008000F1A0
:1077600011036D4A13602046FDF76EFE3B787BBB2C
:10777000B42707FB04F7694B1B68DA19DB5D1BB103
:10778000537A13F0010F2BD12B78002B74D028469D
:1077900064F416D12D78C5B9B42303FB04F35F4A12
:1077A0001268D118D35C1BB14D7A05F00105013583
:1077B000002068F465D55A4B1B6823B1DB6813B110
:1077C00029462046984768F491D50020BDE8F88FF7
:1077D000544A2021002005F4E1D201232B70D6E782
:1077E000204661F4EDD210F0080F2AD14B4B1B68F4
:1077F00003EB07090822B11C09F144000DF0A6FCB7
:107800000028C1D1B9F8422033889A42BCD1464AF7
:10781000202105F4C3D201232B70404B1B681F4469
:1078200097F84C306B7457F8320F7968BA68FB6878
:10783000C5F80100C8F80410C8F80820C8F80C30D2
:10784000A5E73A4A2021002005F4A8D201232B7095
:10785000324B1B681F4497F868306B7457F84E0F13
:107860007968BA68FB68C5F80100C8F80410C8F860
:107870000820C8F80C308AE72D4A2021002005F4A2
:107880008DD2264B1B6803EB070909F10109294B2F
:1078900093F800A0BAF1000F3FF479AF9F1C0026C7
:1078A0005FFA86FB0722494638460DF04FFC28B1A7
:1078B00001362437F3B29A45F2D868E7DA457FF605
:1078C00066AF1D4A2021002005F468D201232B70E9
:1078D000F6B2184B06EBC60203EB820292F82420A4
:1078E0006A7406EBC60603EB8606D6F80A00D6F8DD
:1078F0000E10D6F81220D6F81630C5F80100C8F8D8
:107900000410C8F80820C8F80C3040E7CCBF0101CB
:10791000D5FF0030D8FF0030DCFF0030E8238000C6
:10792000EC238000E0BF010110C00101F8BF01019C
:1079300028C0010164FE003040C0010170B504465A
:10794000EFF311862C4B93F8022303F54063DB68B9
:10795000C3F302230133012101FA03F3134483F338
:10796000118868F4C3D40546DCB12279D31FDBB299
:10797000092B18D82378022B37D0052B20D0032BC6
:107980000AD1E37803F00C030C2B01D001240BE0A7
:107990000F2A21D8012407E0043BDBB2012B13D9C5
:1079A0001AE0022400E0012401205FF4C9D7284630
:1079B00068F466D486F31188204670BD0124F3E78D
:1079C000E37813F0040FF9D0637943F00403637193
:1079D000A37943F00403A371084B22681A60A188BD
:1079E000A27999809A710024DEE7E37813F0040FFE
:1079F000F2D10124D8E700BF00E100E0F0238000CD
:107A00002DE9F04106460F4615461C46DBB2043B05
:107A1000042B08D8DFE803F00E0703051000134B12
:107A20000BE0134B09E0A0F510639BB2092B17D9AB
:107A3000002013E00F4B00E00F4B9A881968304686
:107A40006EF430D001F022FB804660B104F47F4236
:107A5000EDB223462A4339463046C047BDE8F0819F
:107A6000DFF81880F2E70020F8E700BFBC228000B2
:107A700098228000A822800000228000ADC6060067
:107A800008B506F0E9FA07F087FD08F0B3FD00F04D
:107A900075F806F001FB08BD08B501F0B5FF03F06D
:107AA0004FFB02F07DFA02F0E9FA02F07FFB01F0F1
:107AB00067FC08F081FBFFF78DFC08F069FD07F01B
:107AC00089FE08F001FB08BD08B503F0BDFF04F016
:107AD0003FF803F0A9FF00F069FD00F07DFF08BD4D
:107AE00008B503F04DF900F0A1FA08BD08B502F0A1
:107AF00067FC08BD08B500F05DF806F0D5FA06F0A1
:107B0000E9FA06F079F905F009FF07F06BFE08F0D5
:107B100019FC06F0F3FAFEF783FE08BD10B582B03B
:107B20000446436801221A704FF48A2210481178E3
:107B300063681344A3F58923A3F2FF73197001321C
:107B40008242F4D10B4A6B4692E8030083E80300BB
:107B5000626803CBC2F80900C2F80D102288112117
:107B6000606867F4C3D7044B00221A7002B010BDDE
:107B70000850040060C001014825800008B5034A90
:107B80000121002067F4F0D708BD00BF1D7B000174
:107B900008B50449044806F059FC0449044806F0B5
:107BA00055FC08BD6D530030F9900100295100309B
:107BB0006D97010008B50649064806F047FC0649DE
:107BC000064806F043FC0649064806F03FFC08BD9F
:107BD000318F0001A1B90200A10201017D5A060006
:107BE000C5900001C10603002DE9F04182B00F46A7
:107BF0009046A0F588500138032824D8DFE800F02B
:107C000002161F1A61490A684868002800F0B98006
:107C10001546002432F834609E4217D001340835EE
:107C20008442F7D1002002B0BDE8F08157498A684C
:107C3000C868EAE7554B9A69D8690B78E5E7534974
:107C40000A694869E1E700200246DEE76C68002C1B
:107C500000F099804E4A944207D04E4A944267D031
:107C6000424639461846A047DDE7788807F41CD31A
:107C70000446FF2801D10020D5E7012107F488D46C
:107C80000A2817D0210201F47F411E23424641F009
:107C9000080140F6166028F483D20B220270BA89DC
:107CA000428257F8041F7A684161826128F4C4D285
:107CB0000020B8E700238DF80730204652F41CD787
:107CC00030B3354B53F8243093F84020302A0ED08F
:107CD00068238DF8073000221146204652F46ED7F3
:107CE0000DF107020321204652F4A6D70EE03122FF
:107CF00083F84020284B53F824301A69012120468C
:107D000052F45CD79DF80730002BE4D100208AE7BD
:107D1000214B53F8243093F84030412B03D0682393
:107D20008DF80730D7E70121204650F4BDD4E9E7AC
:107D3000404628F41FD33F2801D1002073E74FEAC3
:107D400018283C79BD78404607F4D4D203462A4629
:107D50002146404608F4AAD00F4B53F828309A89A0
:107D6000FF2A07D03B780BB1703BDBB201214046C4
:107D700008F4AFD03A79798840460AF4F9D1002066
:107D800051E700204FE700204DE700BF7002800060
:107D9000116F02009D3E0200CC0D8000F0B583B053
:107DA0000D462C4B93E8030000908DF804106A46B2
:107DB000294601200BF448D40446012802D020466D
:107DC00003B0F0BD284609F4F1D010F0FF0605D04D
:107DD000214B1B68314601209847F0E709F472D126
:107DE0000746C0B2FF2833D02B78A03B032B07D81F
:107DF000DFE803F0021E2823294609F40DD60646C3
:107E0000002EE5D16B78002BD9D1144B93F86E304E
:107E100013F0010FD3D0114AFBB202EB8303D968F0
:107E2000134653F8662FC1F816209B884B83C6E78C
:107E300029460BF4C3D50646E2E729460BF4DED209
:107E40000646DDE72946F8B200F070FBC6B2D7E778
:107E50004B26BDE768C00101EC038000000E8000E6
:107E600038B5C38813F001050DD0614A92F86D2032
:107E70000A2A18BF0A2107D15E4A1021002004F403
:107E80008DD743203BE002214279032A2AD812B140
:107E9000032A18BF0A21564C94F86C40A14328D1FC
:107EA000017902292CD813F0040400D07ABB0029F0
:107EB00053D143F01001C18013F0600F2ED125B1D2
:107EC000002C39D113F0020F2FD003F00503042B3F
:107ED0003CD0407A03287AD8013AD2B2012A7DD91F
:107EE00000200CE0444A1021002004F457D7402021
:107EF00005E0424A1021002004F450D7422038BD4A
:107F00003F4A1021002004F449D74020F7E73D4ABA
:107F10001021002004F442D74020F0E73A4A102113
:107F2000002004F43BD74020E9E7384A1021002024
:107F300004F434D74020E2E713F0020FC5D0344AEE
:107F40001021002004F42AD74020D8E7314A10211C
:107F5000002004F423D74020D1E723F01004C4808C
:107F600013F0080F06D101290BD013F0230F27D1EE
:107F70000020C4E7284A1021002004F40FD7402035
:107F8000BDE703F0030103290CD013F0200FA0D0AC
:107F9000013AD2B2012A0CD959B9437A032B16D827
:107FA0000020ACE71D4A1021002004F4F7D6402041
:107FB000A5E71A4A1021002004F4F0D640209EE7DD
:107FC000174A1021002004F4E9D6402097E7154A0B
:107FD0001021002004F4E2D6402090E700288ED043
:107FE000114A1021002004F4D9D6402087E700BFB1
:107FF000000E800070C00101B8C00101E8C001019D
:1080000018C101014CC10101A8C1010108C201014F
:1080100064C20101C4C2010114C301016CC30101A6
:10802000D0C3010130C4010160C40101014B024A07
:108030001A607047F4038000617E00012DE9F04171
:1080400082B00D4603238DF8043000208DF8050022
:1080500001AA0BF4F9D20446012803D0204602B04D
:10806000BDE8F0816F78964B93F86C306B70A98CFB
:10807000688C0AF42DD138B14FF04008914B1B6841
:10808000414600209847E9E78D4B002283F86E2097
:1080900083F86C2000F4C8D107F00A030A2B59D0EA
:1080A00007F00503052B55D002204AF479D6844EFB
:1080B00007F00F0786F86C700AF4DAD5002386F80B
:1080C000753095F82A3086F8743096F86C3033F0B5
:1080D000030300F0EF80EB7E13F0020F00F0E3806B
:1080E00086F86F304120EB8CB3F5006F28BF4FF45A
:1080F0000063834238BF03467149A1F870302A8D6E
:10810000934228BF1346834238BF0346A1F872301A
:108110006B4A2B4653F80A6F58689968DB68C2F8B7
:108120005660C2F85A00C2F85E10C2F86230AB7EE8
:1081300013F0010F08D01346294651F8042FC3F855
:1081400066208A88A3F86A205F4B1B6800210846D6
:10815000984783E75D4B1B7813F0010F49D02B8CB8
:1081600013F0400F61D0564A92F86E3043F020036E
:1081700082F86E307F2617F0050F05D0AB7E13F026
:10818000040F18BF46F4C07646F4C0664C4B00227C
:1081900083F88020B5F92030934248DB2B8C13F410
:1081A000804F06D0464A92F8803043F0020382F8AE
:1081B00080303146A88B0AF445D3804600287FF4EE
:1081C0005DAF2B8C13F0380F36D12B8C13F0070FCB
:1081D00047D1202306F0010141445FFA81F8760877
:1081E000013B13F0FF03F5D1354BB3F85030002BB2
:1081F0004CD1364B1B7813F0020F3FF455AF2B8C4C
:1082000013F0800F06D02E4A92F86E3043F04003F0
:1082100082F86E30298CC1F3C011E88B0EF408D1BE
:10822000804600287FF42AAF3EE71F26A3E7244BB1
:10823000012283F88020B1E704200AF4C5D02A8CFB
:10824000C2F3C202013A920092B20C2113F0ACFACE
:1082500004200AF4B9D04FF40062114613F0A4FAD6
:10826000B3E702200AF4B0D02A8C02F00702013AE8
:10827000920092B20C2113F097FA02200AF4A4D0D3
:108280004FF40062114613F08FFAA2E700228DF836
:108290000320013B03EB08000DF10303012180B231
:1082A00013F072FAA5E723F00203054A82F86F3053
:1082B000172018E7024B002283F86F2028E700BF41
:1082C000000E8000EC038000FC038000F8038000B7
:1082D0002DE9F04106460D462C4B93F87930FF2BE3
:1082E00003D043242046BDE8F081284A92F86D303F
:1082F00092F87D201344092B01DD4324F2E78F1C03
:1083000038460AF4BBD210F0FF04EBD1AB78B3735C
:10831000002386F855303B4606F11C0207F1300871
:10832000D3F800E0D3F804C09868D968C2F800E038
:10833000C2F804C09060D160103310324345EFD1D1
:1083400019685B6811605360AA889AB9B37B012BE6
:1083500016D0327B0D4B83F87A20327B83F879205C
:1083600093F87D20013283F87D20394630460AF4A7
:1083700060D3B7E7072140F6B15028F419D3E5E7F9
:10838000024B93F87E3086F85430E2E7000E80000E
:1083900010B50446C38B3BB9227B064B83F87A2089
:1083A00020460AF43DD310BD072140F6B15028F411
:1083B0006FD2F1E7000E800038B505463A4B93F8CE
:1083C000792003EB8203DC6864B1FF2D5FD0637C0E
:1083D00073B9A37B012B3AD0022B20D0002B54D0B1
:1083E000002038BDD7223149314813F0BDF9ECE700
:1083F00009F4E2D710F0040F0BD009F4DDD710F028
:10840000040FE6D02B4B53F8253093F85F30002B48
:10841000DFD104F11601284607F404D6D9E7290272
:108420000123072241F0080140F6056027F4B8D681
:108430000223037027F400D7E38B0BB90020D0E7A9
:10844000072140F6B15028F423D20020C9E794F860
:1084500054306BB194F85430013BDBB284F85430A3
:108460006BB104F11C0120460AF4E3D20020B8E706
:108470004FF480720D49104813F076F9EAE70721AE
:1084800040F6B15028F404D201E0E38B33B9002266
:10849000012120460AF492D30120A2E7072140F6E9
:1084A000B15028F4F5D1F2E7000E800050BC010174
:1084B000CCC40101CC0D8000D8C4010170B582B0DC
:1084C00004460D46014601A808F484D638B1019E41
:1084D000F37B032B1ED0042B22D0022B02D00020D2
:1084E00002B070BD2C7854B1703C14F0FF0406D07B
:1084F000F38B4BB92246002130460AF45FD3214664
:10850000304608F4D9D6EAE7072140F6B15028F4FE
:10851000BFD1EFE72A46214630461CF4BBD6DEE742
:108520002A46214630461CF4ABD7D8E738B5054675
:108530000C461A4B93F86C3003F00503052B01D061
:10854000432038BD48780AF461D308B94020F8E7E1
:1085500009F432D710F0040F02D06378022B19D03F
:108560005821284608F40AD50546A8B102234373CA
:108570006378437401200AF49BD0A882084B2B60D7
:10858000084B6B60084BAB600021284608F416D5F9
:108590000020D6E74920D4E74B20D2E7000E800028
:1085A000D1820001918300011D2A0100014B024A82
:1085B0001A607047C8048000B983000180B109299E
:1085C00001D800207047074A1060074BA3FB013118
:1085D000C908064B1980064B00221A8001207047FB
:1085E00000207047E8FF0030CDCCCCCCE4FF003059
:1085F000E2FF003008B5084B186828B1074B1A880D
:1086000012B1074B1B7803B908BD02EB820252007E
:1086100000210CF0E5FEF7E7E8FF0030E4FF003052
:10862000E0FF00302DE9F04F83B0064601913F4B4B
:1086300093F800B0BBF1000F52D000286FD0048B2C
:10864000002C51D000F1190100231D4611F8012F13
:1086500003F0010082401544ADB201339BB2A34246
:10866000F4D1334B1F88B7B1324A1468013FBFB20F
:1086700007EB870704F10A0303EB470706F102093A
:108680004FF006084246494620460CF05FFD68B3AD
:108690000A34BC42F6D1284B1B8803EB8303254ADE
:1086A000126802EB430156F8020F42F81300B38838
:1086B0008B80019B4BBB204B1B881E4A126803EB2F
:1086C000830302EB4303DD801B490B880133184A07
:1086D000108893FBF0F200FB12330B804FF0000B7D
:1086E000584603B0BDE8F08F2546BAE7019A2AB98B
:1086F000E388AB42F4D0E5809346F1E72389AB42AF
:1087000010D025814FF0000BEAE70B4B1B88094A7C
:10871000126803EB830302EB43031D81D4E74FF0A0
:10872000000BDDE7DDF804B0DAE700BFE0FF003062
:10873000E4FF0030E8FF0030E2FF00302DE9F84FA1
:10874000814616469A460F46002900F0B28092F8FC
:1087500017808B8B98441FFA88F808F11A039BB294
:108760000722818A40F6A75027F41AD505463B68B0
:10877000002B75D04FF0000B384603F47ED604462C
:108780000BF11A002279611D28440CF013FD2179A8
:1087900059441FFA81FB204627F416D23B68002B70
:1087A000EAD10BF11A00F27D06F1180128440CF011
:1087B00001FDA5F81880464B1B68324629464846FD
:1087C000984700284FD1338813F0080F50D013F08A
:1087D000100F14BF032302236B70338813F0010FB3
:1087E00003D06B7843F010036B70338813F0020FE3
:1087F00003D06B7843F020036B70338813F0040FC1
:1088000003D06B7843F040036B70BAF1000F03D0D4
:108810006B7843F008036B7099F80C302B7096F965
:108820000D306B74337B2B74737AAB74B37AEB7447
:10883000F37A2B75F389EB82B378FF2B1CD12B7263
:10884000338813F0040F22D13188C1F3C0012846C8
:10885000FFF7E8FE40BB284627F4EED4BDE8F88FCA
:108860004FF0000B9DE7A5F10C0027F4DBD4F5E7F2
:10887000C3F300136B70B0E703F001032B723346B0
:1088800053F8032FC5F802209B88EB80D8E7337C90
:1088900003F00103EB73334653F8112FC5F8092099
:1088A0009B88A5F80D30CFE7A5F10C0027F4BAD4CA
:1088B000D4E792F8178008F11A030722818A40F65C
:1088C000A75027F46DD405464FF0000B69E700BFB1
:1088D000CC04800070B504460D461D4B5E6806232F
:1088E00042F24202002141F2051027F459D40570EA
:1088F000002343703379003B18BF0123154A1370DE
:10890000A37B012B0DD0F3B9F3895A1E92B240F22A
:10891000FE318A4298BF4FF48063438000238380F6
:108920000BE0F3895A1E92B240F2FE318A4298BFA0
:108930004FF4806343800023838023F431D042F2DC
:108940004203638270BDF3894380338A8380F4E7F6
:10895000000E8000E0FF003008B513781BB1703BBB
:1089600013F0FF0310D142F24103994204D042F2C6
:108970004203994204D008BD0121FFF7ABFFFAE79B
:10898000002108F499D4F6E7034AFF2182F8781011
:10899000194608F491D4EEE7000E800030B583B09C
:1089A00004460D46FFF726FE214601A808F412D41E
:1089B00028B10198C37B022B04D0042B07D00020E0
:1089C00003B030BD2A462146FFF7C6FFF7E72A4627
:1089D00021461CF45DD5F2E7014B024A1A6070474C
:1089E000D00480003D870001024B1860024B1980C3
:1089F000704700BFF0FF0030ECFF0030F8B541F2E7
:108A00000212904219D041F20412904219D041F260
:108A10000112904201D00020F8BD1A4A1668506831
:108A200060B33446002236F832509D420ED00132F7
:108A300008348242F7D10020EEE7134A16685068E6
:108A4000EEE7124B1E6858680B78E9E76468BCB122
:108A50000F4A108878B10F4A1268013880B202F1CB
:108A6000080505EBC0051068844203D00832AA420D
:108A7000F9D100E054681846A047CDE70020CBE7C5
:108A80000020C9E7E8048000E0048000D8048000EA
:108A9000ECFF0030F0FF003070B582B00D46144698
:108AA000104627F467D40646224B234A4021002073
:108AB00004F474D1202E02D1002002B070BD240A2B
:108AC00000942B7A1D4A4021002004F467D12B78B2
:108AD0002BB1342B11D03F2B0FD00020EDE72946CE
:108AE000204607F005FBFF28E7D12946204612F073
:108AF00007FEFF2808BF0020DFE72B7A13F0400FA6
:108B000001D00020D9E723020026009643F0060397
:108B100001220421204629F487D546802B7A437010
:108B20002B783F2B0CBF06230423037128F4ADD20E
:108B30003046C2E714C5010138BE0101F4C4010189
:108B40002DE9F04F83B00D461646170A022138462C
:108B50000CF4E4D220B10378153BDBB2012B03D92E
:108B6000002003B0BDE8F08F8388002B6AD0009707
:108B7000644B53F82700446B84B1A28840F61A4333
:108B80009A4209D000242B78023B052B57D8DFE806
:108B900003F06767191E560E0C34F4E72B78023B7E
:108BA000052B49D8DFE803F056560E134803002C76
:108BB00053D0343003F461D4204627F43DD300234E
:108BC00001934FE00525CCB9412301933CE00725F3
:108BD000F9E727F427D34123019335E0284627F40A
:108BE00021D34B2301932FE0464B53F82700A4F1E8
:108BF0000C01343003F40AD5042501E0002301936D
:108C00000A233246314640F6034027F4C9D20570A4
:108C1000628A01328280A28AC280022242700022CD
:108C2000028127F409D3019B73B9364B53F82730DF
:108C30005B6B002B94D107E000230193F3E7002343
:108C40000193F0E744230193019A022138460CF482
:108C5000CDD685E70023019304E04123019301E091
:108C600000230193274B53F82700436B002BDAD0E6
:108C700040F6044B4FF0160A343003F4FED3054699
:108C800083885B45A5D1B0F80E90B0F80C80A9EBB5
:108C90000804A4B2642C28BF6424022104FB0AA0A7
:108CA00026F4D2D5002899D0022138460CF46ED291
:108CB0000146013404EB840304EB43035B009BB2E5
:108CC000324640F61A4027F46BD20446AB89438201
:108CD000EB8983822A7C00F8012B05F111010CF04D
:108CE00069FA284627F49ED2C1457FF47DAF20461D
:108CF00027F4A2D2034B009A53F82200436B002BB7
:108D0000BAD190E7C40E80007047704710B506488E
:108D100016F406D6EFF31084012383F3108813F4BE
:108D2000A7D184F3108810BD28440030012181F3BD
:108D300010880D4B9A6D22F080729A65C3F89010DE
:108D40009A6D42F000729A656FF040025A649A6D13
:108D500022F078429A65054A054911609A6D42F001
:108D600080729A65FEE700BF00C500A00070800019
:108D7000646F6F6730B4EFF31081012383F31088C1
:108D80000D4B1B687BB90D4CE2680D4B1A600D4A08
:108D900015680D4805601B6843F08073E360036845
:108DA00043F001031360044A13680133136081F335
:108DB000108830BC704700BF90120130F0ED00E029
:108DC00098120130001000E094120130EFF310818E
:108DD000012383F31088084B1A68013A1A601B6854
:108DE0003BB9064B1A68064B1A60064B1A68064BCD
:108DF000DA6081F3108870479012013094120130CC
:108E0000001000E098120130F0ED00E000B583B0F2
:108E100002238DF807300DF10700FCF79DF9124B86
:108E20001B6873B173F4A2D0031E18BF01230E4850
:108E3000837210F493D2B0FA80F0400903B05DF869
:108E400004FB0A4B084A1360094A1A6001225A605F
:108E50009A60EB22DA609DF80710064A52F821204A
:108E60001A6100225A61DDE7641F8000281F80001C
:108E700000D000A03044003010B5144613460A4616
:108E80000146044812F020FC00280CBF20460020B8
:108E900010BD00BF641F80002DE9F047C0B08046C0
:108EA0008946174613460A460146194812F020FC27
:108EB00050BB3C46B7F5807F28BF4FF480743E46D8
:108EC0000025DFF84CA023466A4605EB0801504612
:108ED00012F0FAFBA0B92246694609EB05000CF036
:108EE00035F968B9361B0DD025443446B6F5807F78
:108EF00028BF4FF48074AF4202D92B19BB42E2D98C
:108F0000002002E0384600E0002040B0BDE8F087D5
:108F1000641F800008B502460B460021034812F08A
:108F20001BFCB0FA80F0400908BD00BF641F800040
:108F300038B50446A0F10C05484B93F83030FF2BB0
:108F400008D047480268DB000221994022EA010369
:108F50000B430360434B1B78002B75D134F8083C5E
:108F600041F2051293421DD041F2061293423BD0CA
:108F70009A233D4A34F8041C34F8080C12F0DCFB48
:108F8000284627F44FD1354B93F83030FF2B08D0CB
:108F900033480268DB00022101FA03F322EA0303EB
:108FA000036038BD34F8040C22F404D10028DFD06B
:108FB000837803F00F03092BDAD801A252F823F0CB
:108FC00037900001E98F000137900001E98F00011F
:108FD000718F0001718F0001718F0001718F00018D
:108FE000718F0001339000016278237843EA0223F5
:108FF000C3F30B03A3F5807292B2FF2A1DD90B2B8A
:1090000008D81A4A1A44127E22B11B0243F0010307
:109010009BB213E034F8082C41F206139A4204D0B4
:10902000134A137801331370A2E7606801F46CD51A
:10903000F6E7022302E0002300E0022324F8063CC6
:10904000204627F4F9D09EE7A4220749094812F0E8
:109050008BFB284627F4E6D095E700BF0808800080
:10906000640000B0A306800050BC010150198000CC
:10907000F8FF003058C60101024B1860024B1980FE
:10908000704700BFFCFF0030FAFF003010B40B4BFC
:10909000198879B10A4B1B6801398AB203F10801BA
:1090A00001EBC2011A68824203D008338B42F9D126
:1090B00000E058685DF8044B704700BFFAFF0030CD
:1090C000FCFF003070B53D4B9B79FF2B08D03C482E
:1090D0000268DB000221994022EA01030B4303608E
:1090E000384C266865684FF0FF33C4F88030C4F808
:1090F0008430BFF34F8FBFF36F8F334803F4BDD17C
:1091000026606560044658B14FF0FF33036026F4D3
:10911000D1D638B347232D4AE188A08812F010FB3E
:10912000284B1D685C684FF0FF32C3F88020C3F8FD
:109130008420BFF34F8FBFF36F8F234B1B68002B2F
:1091400038D0204B1D605C601C4B9B79FF2B08D0F6
:109150001B480268DB00022101FA03F322EA030341
:10916000036070BDE188A08827F410D2FFF78EFF5E
:10917000054680B12389E28804F10C01A088A84744
:109180000128CDD0022810D058B172220F491048C2
:1091900012F0EAFAC4E752230C4AE188A08812F0E0
:1091A000CBFA204627F43ED0BAE72146094803F41B
:1091B00089D1B5E7032026F405D4C2E7080880006A
:1091C000640000B000E100E09009800050BC0101A3
:1091D00058C60101A40980002DE9F84F0F46132B52
:1091E00002D00020BDE8F88F2AF4CCD582463B7827
:1091F000002B4DD00026DFF8B080DFF8B090DFF80C
:10920000B0B028E04223264A0146688812F098FA56
:109210002EE00133DBB20A2B08D051F8040B0028F2
:10922000F7D09C4202D00132D2B2F2E78BF8002094
:10923000AB88B9F808201344A9F8083058F824205E
:1092400092F8323029795B1A82F8323001363A7856
:10925000B3B29A421CD9B5B207EB4505688806F44B
:1092600023D00446FF28F1D058F82030002BC9D075
:10927000BAF1000FDCD158F8243093F83220042AD8
:10928000D6D85B68002BD3D0064900221346C4E72A
:10929000BAF1000FA5D1092026F43AD4A1E700BF06
:1092A00050BC0101CC0D8000180F80004C0F8000D5
:1092B000000001302DE9F047092026F483D32B4B21
:1092C0001F68002F4BD02A4B93F86D30294A127833
:1092D000B2FBF3F603FB1626F6B28BB30024DFF8DD
:1092E0008C80A246A1461CE00130C0B20A2808D0FA
:1092F0005CF8045B002DF7D09A4203D00133DBB257
:10930000F2E75046012383403B4203D01A4B1B68CF
:10931000C9B29847164B93F86D300134E2B29342CC
:109320000ED9B8F8081059B156FA84F090FBF3F250
:1093300003FB1202D2B2DFF844C053464846D7E7D7
:109340000C4A12780132D2B29A420A4B08BF00226C
:109350001A70064B1B6813B1044B1B890BB9BDE88F
:10936000F087092026F4D4D3F9E700BF4C0F800022
:10937000000E80000000013098058000CC0D8000B8
:1093800008B50249092026F4FFD208BDB5920001B4
:10939000F8B504460D461646234B53F82030B3F873
:1093A0004E3013F0010F02D024273846F8BD0121BA
:1093B00030F4D8D40746A0BBEA88B21A92B247F676
:1093C000FE739A4201D82827EFE7210241F00101FC
:1093D00010230A4640F20D1026F4E2D60646062176
:1093E000204600F0EBFE062333710322214630466F
:1093F00030F414D533460D4A43F8082B2A4652F868
:10940000011FB16012791A71EB88F3813246012194
:10941000204630F4C1D400220321204630F4F6D592
:10942000C3E72427C1E700BF381280005568030056
:10943000F8B507460E4614461D46100AB2F5406FB1
:1094400017D20E4B53F82030ABB193F8503003F0E5
:109450000303032B01D100200CE001F09BFE08B1B7
:10946000002007E02B4622463146384638F42CD2FD
:1094700000E00020F8BD0020FCE700BF38128000AB
:109480002DE9F04184B006460D469046012130F4A6
:109490004FD40446714B53F826700B2D0FD0204645
:1094A00030F4BAD4A84213D0204630F4B5D49F2368
:1094B0006B4A294612F040F904B0BDE8F0810B2256
:1094C000314630F4ABD4F98930463DF467D7E6E74E
:1094D000204630F4A1D40738042800F2B480DFE835
:1094E00000F01E5B03060600B8F1000F0FD0224605
:1094F000414630462EF422D2B7F84E3023F0100306
:10950000A7F84E300121304630F43ED5D4E7002292
:109510000121304630F4DED4012384F82C30B7F832
:109520004E3043F01003A7F84E3094F82C30D3B9E6
:109530002189FB89994206D862899A4203D3E0685F
:109540003A69904225D0A3896289E089009030462B
:109550002EF4D8D108223146204630F45FD40123BE
:1095600084F82E30A8E7238D628C94F82610A08C06
:109570000290E0890190A089009030463CF4D6D456
:1095800080460028B3D10A223146204630F446D422
:1095900092E72381FB896381B8F1000F4CD1B7F8C2
:1095A0004E3013F0010F17D12E4B1B682146304669
:1095B0009847214630462EF4EDD409223146204604
:1095C00030F42CD401221146304630F483D4218962
:1095D00030463DF4E3D66FE7310241F0010130231C
:1095E0000A4640F20B1026F4DBD50546231D021D6A
:1095F0002434D3F80080D3F804E0D3F808C0D96845
:10960000C2F80080C2F804E0C2F808C0D16010338C
:109610001032A342EDD1186859689B681060516000
:109620009360114B2B6001223146284630F4F6D36B
:10963000284626F401D65FE7002342460F21304634
:109640002EF43AD658E7204630F4E6D3014640F2ED
:109650001713034A304612F073F82DE738128000D2
:1096600050BC0101D8058000B58B0300F0B583B074
:1096700005460C4616464E4B53F8207089882389C0
:109680000093E3880A462DF403D7002800F08B806E
:10969000B7F84E3013F0010F40F088806289B21A9B
:1096A00092B247F6FE739A4201D828207CE000214E
:1096B000284630F457D3052817D00121284630F426
:1096C00051D305282AD00521284600F077FD012135
:1096D000284630F447D358B309270121284630F4EF
:1096E00041D305283ED024205EE00021284630F4F6
:1096F0001FD3A3880385E38883812389C38163897A
:10970000838463884384637880F82630294B1B6800
:109710000022032128469847002045E001212846E1
:1097200030F406D330F478D30A28CCD124203BE09F
:1097300030230122114640F20B1026F431D50246A7
:10974000052303711C4B0360002380F82D3080F843
:109750002E304FF6FF73C3820121284630F41CD30C
:109760000727BAE70121284630F4E2D206463A46F6
:10977000294630F453D3A3883385E388B381238902
:10978000F3816389B38463887384637886F82630B1
:10979000012386F82C30094B1B68002239462846E5
:1097A0009847002000E0202003B0F0BD2420FBE714
:1097B00038128000D0058000B1A20300D4058000DB
:1097C000F0B583B006460C46354B53F820500121C6
:1097D00030F4C8D218B12425284603B0F0BD23893F
:1097E0000093E3886288A18830462DF451D608B9E9
:1097F0001E25F1E7052048F4C7D400284DD0B5F860
:109800004E3013F0010F42D00521304630F452D2D1
:109810000546002DE0D1310241F0010130230A4616
:1098200040F20B1026F4BCD407460523037107222F
:10983000314630F4F3D21B4B3B6063883B81A388F5
:109840007B81E388BB812389FB81A37A87F827305A
:10985000A389BB82E389FB82238A3B83638A7B8360
:10986000A38ABB83E38AFB83238B3B84002487F892
:109870002D4087F82E403A460121304630F48CD2F4
:10988000094B1B682246072130469847A4E705216B
:10989000304600F093FC0546BBE71A259CE700BF65
:1098A00038128000B1A20300D4058000022302E038
:1098B0000133402B09D090FBF3F2FF2AF8DC03FBC5
:1098C00012010029F4D1D0B2704700207047000087
:1098D000F0B58FB006460C463CF41AD225896D00CF
:1098E0000695628952000792238A022B38BF022311
:1098F0000893099394F8271049008DF82A10B1B203
:10990000ADF8281000F001078DF82B7094F82D7039
:1099100037B9E78A4FF6FF7C674501D0954230D0D2
:1099200006A84CF403D0002853D10C9B2D4A52F8C2
:109930002620B2F84E2012F0010F07D15D1C0B9FBC
:10994000002F40D0B5FBF7F307FB13530022009222
:109950009BB20B9AC2F34F02A18A30463AF4F6D674
:10996000214B83FB0023C017C0EB632060850B985D
:10997000C0F34F002085FFF799FF84F827000FB050
:10998000F0BD02950393ADF8141000EB4707A5B1A5
:10999000B7FBF5F005FB1070049002A84BF466D5F8
:1099A0000028BDD1E38A63850298C0F34F0020856B
:1099B000FFF77CFF84F82700E1E780220B490C4881
:1099C00011F0D2FEE4E780220849094811F0CCFEEC
:1099D000B8E70023638560892085FFF767FF84F877
:1099E0002700CCE738128000AD8BDB6850BC01014A
:1099F00034C5010108B50A46024B1B680621984789
:109A000008BD00BFD0058000034B044A1A60044B18
:109A1000044A1A60704700BFD8058000D198000141
:109A2000D405800081940001F8B507460E4614461F
:109A30001D46100AB2F5406F17D20E4B53F8203076
:109A4000ABB193F8503003F00303032B01D1002096
:109A50000CE001F09FFB08B1002007E02B462246F6
:109A6000314638463CF49CD100E00020F8BD00208F
:109A7000FCE700BF38128000F8B505460E461446D4
:109A80001F46100A01F086FB08B10020F8BD3B46D6
:109A90002246314628463CF4E9D1F7E72DE9F04368
:109AA00083B004460F4615460B287BD8464B53F827
:109AB0002080B8F1000F7FD098F8503003F00303F6
:109AC000032B7BD098F83C3013F0020F04D1B8F888
:109AD0004E3013F0010F73D098F8516016F0100655
