:020000040100F9
:1040000000000430BD4D0001F94900010D500030A1
:10401000E1490001E5490001E94900010000000013
:1040200000000000000000000000000021500030EF
:10403000ED49000100000000F1490001F5490001CF
:104040000000000000000000000000000000000070
:104050000000000000000000000000000000000060
:104060000000000000000000000000000000000050
:104070000000000000000000000000000000000040
:104080000000000000000000000000000000000030
:104090000000000000000000000000000000000020
:1040A0000000000000000000000000000000000010
:1040B0000000000000000000000000000000000000
:1040C00000000000000000000000000000000000F0
:1040D00000000000000000000000000000000000E0
:1040E00000000000000000000000000000000000D0
:1040F00000000000000000000000000000000000C0
:1041000000000000000000000000000000000000AF
:10411000000000000000000000000000000000009F
:10412000000000000000000000000000000000008F
:10413000000000000000000000000000000000007F
:10414000000000000000000000000000000000006F
:10415000000000000000000000000000000000005F
:10416000000000000000000000000000000000004F
:10417000000000000000000000000000000000003F
:10418000000000000000000000000000000000002F
:10419000000000000000000000000000000000001F
:1041A000000000000000000000000000000000000F
:1041B00000000000000000000000000000000000FF
:1041C00000000000000000000000000000000000EF
:1041D00000000000000000000000000000000000DF
:1041E00000000000000000000000000000000000CF
:1041F00000000000000000000000000000000000BF
:1042000058585247010000001555000000400001B9
:10421000004000016E2D5349010100000000000024
:10422000000000000000000000000000000000008E
:10423000000000000000000000000000000000007E
:1042400010B5054C237833B9044B13B10448AFF3D0
:1042500000800123237010BD80B0003000000000FA
:10426000CCF9010108B5034B1BB103490348AFF377
:10427000008008BD0000000084B00030CCF90101CE
:1042800008B500F081F80549054800F073FD01F01C
:10429000CFFB02F069F918F0F7FEF8E700400030B4
:1042A0006D46000110B50749074B084A84B05A24EF
:1042B000CDE9011000940649032001F05DFA04B035
:1042C00010BD00BF3CD10101B8D1010110D10101E5
:1042D00034D1010110B5064C064B074A074982B09C
:1042E0005520CDE90004032001F046FA02B010BDCC
:1042F00054D101019CD1010110D1010134D101013E
:104300000A460146012002F079BE00BF30B50E4DCD
:104310000E4B0F4A83B05F210446CDE90015032000
:104320000C4901F029FA012C0CBF0B4C0B4C074B2C
:10433000074A08490CBF62206620CDE9000403202B
:1043400001F01AFA03B030BD68D10101D0D10101EA
:1043500010D1010134D1010178D101018CD10101C9
:1043600008B50378022B00D008BD818805486BF49E
:1043700081D5BDE8084003494FF48062012002F076
:1043800017BE00BF24F8003070B51E4A82B0062167
:104390004CF201000EF050FA1B481C4B00934FF4F6
:1043A000E1330364032343644FF08063436140F2CD
:1043B0000513012400254FF480666A4614490382E0
:1043C00083804FF080438360C0E91255C0E91454E4
:1043D000019604700476047302F028FD32460D49FC
:1043E000204602F0E5FD00F0F1F9284674F43AD4D5
:1043F000094A0A484FF0837102B0BDE8704001F0ED
:1044000021BF00BFECD10101C4F6003024FC003014
:104410006143000124F800303840003001430001BE
:10442000704700BF70B592B00BA800F0E7FA0C9986
:10443000BDF82E309DF82D207E4E7F4DCDE9043104
:104440009DF82C307D49CDE90232FA22CDE90021D8
:1044500033467B492A46022001F08EF909A861F40F
:10446000A7D50346002877D19DF824209DF8253054
:104470009DF82610CDE906329DF827309DF82820BA
:10448000CDE904319DF829306E49CDE90232FF2291
:10449000CDE90021674B684A6949022001F06CF9B7
:1044A0006949644B4FF48372CDE900210220624ACE
:1044B000634901F061F9654801F002FF002063F4EF
:1044C0003FD263490E22002005F05CFD0346002820
:1044D00040F0A2805F4A604BC2F80A3000240723F4
:1044E0001480214620469373947061F4A1D603464C
:1044F000002840F0848000211223584A084661F4C5
:104500000FD6034600286CD11623554A01210020FE
:1045100061F406D60346002855D1524B002440F6DC
:104520004801FB201C809C7062F440D403460028A4
:104530003CD1F7210122084663F4A6D0034638BBDC
:104540000021084663F436D64649002005F038F9C4
:10455000034670B912B070BD00220E920D920DA8E4
:10456000FE22CDE90F56ADF83830119200F06AFD09
:104570007AE700220E920D920DA84FF48672CDE9D3
:104580000F56ADF83830119200F05CFD12B070BDDE
:1045900000220E920D92344AADF838300DA89D23BA
:1045A000CDE90F52119300F04DFDC9E72E4ACDE938
:1045B0000D440DA8ADF838309A23CDE90F52119370
:1045C00000F040FDB5E700220E920D92264AADF8AC
:1045D00038300DA89423CDE90F52119300F032FD2D
:1045E0009BE700220E920D921F4AADF838300DA8BD
:1045F0009123CDE90F52119300F024FD84E71A4A6C
:10460000CDE90D440DA8ADF838308E23CDE90F5219
:10461000119300F017FD6EE700220E920D92124AE0
:10462000ADF838300DA88423CDE90F52119300F076
:1046300009FD4FE72CD30101F4D101010CD2010196
:1046400034D1010134D2010160D2010121440001C1
:1046500080D20101240001302000900180D30101AB
:1046600094D30101380001301CD3010130B5038817
:1046700040F2013293428FB04AD013D840F2072261
:1046800093425DD0B3F5027F04D1037A002B6DD045
:104690000FB030BDB3F5807FFAD10FB0BDE8304028
:1046A000FFF7C0BE40F20632934258D0B3F5C06F58
:1046B00008D14388002BEBD1C0880FB0BDE8304053
:1046C0006AF4689440F202329342E1D1017A2D4BB0
:1046D0002D4C2E4DB422CDE9013100922C492346B8
:1046E0002A46022001F048F82A49002005F068F81F
:1046F00001460028CCD000230A93099309A8B723C8
:10470000CDE90B54ADF828100D9300F09BFCBFE7EA
:10471000817CC27C057D437D1F4CCDE90621817DD6
:10472000C27DBC20CDE90221CDE90435CDE90004EC
:104730001A4B164A1649022001F01EF80FB030BD80
:1047400041880029A4D0164C164B104AD420CDE93C
:10475000014100900E49032001F00EF898E700791E
:1047600001210FB0BDE8304062F41E920E4C0D4B9B
:10477000064A0749DB20CDE90004032000F0FCFFD6
:1047800086E700BF04D301013CD30101F4D101014C
:1047900034D1010138000130CCD2010158D30101DC
:1047A00090D2010170D30101B4D20101704700BF62
:1047B000704700BF0A464FF47A730146002002F0AA
:1047C00055BC00BF002002F079BC00BF2DE9F043CA
:1047D0003E483F4A3F4991B04FF48063CDE9012301
:1047E000836040F20523038283804FF4E133002489
:1047F0000325012601AA03644FF40063C0E91154A4
:10480000C0E913440470466506760673436102F0FE
:104810000DFB314B314A3249CDF81A3001A84FF027
:10482000100940F2022807278DF8045000F076FFA7
:1048300000F002FC01A90520CDF80490ADF8088035
:104840008DF80A7001F078FF01A90420CDF80490DA
:10485000ADF808808DF80A7001F06EFF4FF48053B8
:104860008DF80E40022202934FF4004040F20513EF
:10487000042405210890ADF80C30ADF81830ADF8DF
:104880002430ADF830308DF832200E92ADF83C3047
:104890008DF83E404FF48043124A8DF81A6001A80B
:1048A0004FF400548DF804108DF810108DF81C1082
:1048B0008DF826508DF834508DF8281005940B9300
:1048C00000F000FD11B0BDE8F08300BF3C040130F2
:1048D0003C000130AD4700011D010101C547000149
:1048E000B5470001B14700012DE9F04782B003460A
:1048F0000168D0F80C800191D0E901A92748D3E9DB
:104900000474D3E9066510F00BFC254810F008FC90
:104910000199244810F0A2FB5146234810F09EFB59
:104920004946224810F09AFB4146214810F096FB78
:104930003946204810F092FB21461F484FF0E024F2
:1049400010F08CFB31461D4810F088FB29461C48AE
:1049500010F084FBD4F8381D1A4810F07FFBD4F80F
:10496000281D194810F07AFBD4F82C1D174810F0B8
:1049700075FBD4F8301D164810F070FBD4F83C1DC0
:10498000144810F06BFB144B1448596A10F066FB86
:10499000034810F0C5FB01F04BF8FEE7ACD3010172
:1049A000C8D30101ECD30101F8D3010104D4010102
:1049B00010D401011CD4010128D4010158D40101F3
:1049C0007CD4010188D4010194D40101A0D4010157
:1049D000ACD40101B8D4010100ED00E0C4D4010160
:1049E000FEE700BFFEE700BFFEE700BFFEE700BF37
:1049F000FEE700BFFEE700BFFEE700BF024A034636
:104A000003CA186059607047F8D40101024B103096
:104A100043F82010704700BF00410030024B1B6874
:104A200003B11847704700BFA405013010B5054C0D
:104A3000012120460DF004FE20460121BDE8104072
:104A40000DF09CBC00F00F0110B5714B5A681006B8
:104A500082B000F1D0805B68590600F1CC806C4BCD
:104A60005B6C5A0604D56B4A137843F00403137049
:104A7000694B6A4C40F25F109847002301205A09A5
:104A800003F01F016032013300FA01F1222B44F8D8
:104A90002210F4D100200EF081FC00200BF06EFA01
:104AA000014600200BF060FA01200CF0C3F85C48CE
:104AB00001210DF063FC002840F0A68064200BF07B
:104AC000ABF900234FF4FA72184601210BF0BAF942
:104AD0000BF0FCFD0CF098F84D4A53685B070ED0C4
:104AE000536850490B4043F4002343F005035360DF
:104AF00000BF00BF00BF00BF53680B4053604A4B6C
:104B00004A4A1A6074F476D200200CF007F8484B39
:104B10003F4C484A93E80300ADF8041000906368E6
:104B200003F0070308336B4413F8084C02FB04F44A
:104B300007F0FAF9404A516853685B1A9C42FBD867
:104B400007F01EFA18F0BCFA0EF024FB3B4BD3F82A
:104B5000102242F48022C3F81022D3F8082222F453
:104B60008022C3F80822D3F8102222F48012C3F85E
:104B70001022D3F8082242F48012C3F80822D3F896
:104B8000102242F40002C3F81022D3F8082222F4C3
:104B90000002C3F80822D3F8102242F48002C3F8BE
:104BA0001022D3F8082222F48002C3F80822D3F896
:104BB000102242F40012C3F81022D3F8082222F483
:104BC0000012C3F80822D3F8102242F40022C3F8DE
:104BD0001022D3F8082222F40022C3F8082247F258
:104BE000305001F08DFD00200BF0ECFE02B0BDE86E
:104BF000104002F05FB8124B9847124B9847124B87
:104C00009847124B98472AE7FFF710FF56E700BF77
:104C100000C500A0A00501308950003000E100E08F
:104C200000F00F01F8FFE3FFC84100300090D0030F
:104C3000D8D40101A0860100001000E000E000A02F
:104C40003950003029500030695000304950003050
:104C5000BFF35F8F044B054A9968096811609A6039
:104C6000BFF34F8F704700BF00ED00E00041003000
:104C7000BFF35F8F044B054A9968096811609A6019
:104C8000BFF34F8F0BF0C6BF00ED00E000410030D6
:104C900008B50E4B1B6E4FF275129BB2934211D0AA
:104CA00002200CF0E5FD01F067FC00B9FEE70BF017
:104CB0003FF9FFF7C9FE06F0A5FF054A054B12684C
:104CC0001A6008BD07F070F8FEE700BF00C500A03D
:104CD000004000019C050130052810B425D8144976
:104CE0004B6803F0070383421DD04A68114C2240F1
:104CF00042F4002242F005024A6000BF00BF00BF3C
:104D000000BF0D4A4B6852F820202340034343EA7A
:104D100082434B60094A0A4B52F820205DF8044B4D
:104D20001A6074F467911846F4E75DF8044B704715
:104D300000C500A0F8FFE3FFE0D4010100D50101A8
:104D4000C8410030024B5B6803F0070303707047F3
:104D500000C500A0044B05495B68054A03F0070342
:104D600051F823301360704700C500A000D5010141
:104D7000C841003038B504460D460D48242107F0DF
:104D8000CDFB0C480A210AF09FFC03210A4806F0DB
:104D9000A7FD05F0FDFD052005F024FE05F010FE41
:104DA00005F01AFE29462046BDE8384003F0E4BE6F
:104DB00034420030E4410030CC41003000F03EF895
:104DC00000F030F8FEE700BF08B5FFF741FF0DF037
:104DD00039FEBDE80840FFF75BBF00BF08B50C49CE
:104DE0000C4A0D4B9A42BEBF51F8040B42F8040B1B
:104DF000F8E70A490A4A00209142BCBF41F8040B77
:104E0000FAE7FFF7E1FFBDE80840FFF739BA000015
:104E1000D8F901010040003028B0003080B00030E7
:104E2000B42E013008B573F463D618B9BDE8084054
:104E3000FFF7D4BFFFF71CFFFEE700BF034AD2F81D
:104E4000883043F47003C2F88830704700ED00E00A
:104E500070B50026ADF5826D264D04964FF47F7235
:104E60003146044605A810F0A7F8202385F83F3006
:104E700085F89B30C4B1012C6B6DEA6C27D01E49BC
:104E800004A810F0BDF91D4B6A6C009204A9CDE98D
:104E900001312A461A4B1B49304600F06DFC00F0E8
:104EA000CFFD0DF5826D70BD05F15C02164904A8B9
:104EB00010F0A6F9114B6A6C009204A9CDE90131FA
:104EC0002A460F4B0F49204600F056FCE7E70F49F2
:104ED00004A810F095F9094B6A6C009204A9CDE979
:104EE00001312A46064B0749304600F045FC0DF5D6
:104EF000826D70BDA805013054D5010120D5010196
:104F0000D4ED010124D5010118D5010134D50101E9
:104F10002DE9F84307461046984615460E4610F010
:104F20008FF9114C81469C220021204610F044F854
:104F30004A46402A28BF4022294620460FF0A2FFB9
:104F40004FF0113323644FF02233C4E911834FF043
:104F500033324FF04433C4E91372C4E915630120BE
:104F6000BDE8F843FFF774BFA80501302DE9F84309
:104F700007460E461546984672B6104610F060F980
:104F8000104C81469C220021204610F015F84A461C
:104F9000402A28BF4022294620460FF073FF4FF0D9
:104FA000553323644FF06633C4E911834FF07732F1
:104FB0004FF088330220C4E91372C4E91563FFF788
:104FC00047FFFEE7A80501302DE9F84305460E46E8
:104FD000174672B6084610F033F98146284610F09D
:104FE0002FF9144C80469C22002120460FF0E4FF4C
:104FF0004A46402A28BF4022314620460FF042FF51
:105000004246402A28BF4022294604F15C000FF0A6
:1050100039FF4FF0AA33C4E910374FF0BB314FF0DE
:10502000CC324FF0DD330020A1642265A365FFF789
:105030000FFFFEE7A8050130014876F41D9400BF7C
:105040005443003030B51C4D044685B04FF4007217
:10505000002128460FF0B0FF237813BBA28842B38B
:10506000164801239C46013300EBC30131F8081CAC
:105070009142F7D100EBCC00436811490E4810F083
:10508000BFF8D4E903300F49A2680090CDE90115BB
:1050900000200D4900F070FB05B0BDE8304000F085
:1050A000C7BC012BEDD162680849284610F0A8F86A
:1050B000E7E7074BE1E700BF4406013080DB010171
:1050C0007CD5010120D50101B0D5010194D50101A4
:1050D00070D5010110B582B00446019100F000FBCB
:1050E000019938B9074A084B105D1B6802B0BDE84A
:1050F00010401847054802F0B3FC054B0199002207
:105100001A70EFE7E8080130E4080130F8080130D0
:10511000200901302DE9F041174F3B7843B30025BA
:10512000164E2C460EE098F80910A1F10101B1FAD3
:1051300081F14909204600F0CDFA01353B78ECB207
:10514000A34215D906EB04182301D8F80410F05C2B
:1051500001F0FCFB0028E6D0012807D198F80910DF
:10516000A1F10201B1FA81F14909E3E70021E1E788
:10517000BDE8F04100F0C0B9F20801304408013048
:1051800070B500283ED04A4B1A78DAB3494B017803
:1051900093F800C08C4550D0012A33D093F810C04A
:1051A0008C4530D0022A2DD093F820C08C4538D0C1
:1051B000032A27D093F830C08C4538D0042A21D058
:1051C00093F840C08C453ED0052A1BD093F850C0C0
:1051D0008C453ED0062A15D093F860C08C4546D049
:1051E000072A0FD093F870C08C4546D0082A09D002
:1051F00093F880C08C4546D0092A03D093F89020BC
:105200008A422CD070BD44685D692C42CAD0012608
:10521000294C2578002D3DD03046BDE8704000F087
:1052200051BA44685D6A2C42C2D00226F0E7456854
:105230005C6B2542C2D00326EAE744685D682C42D5
:10524000AAD00026E4E745685C6C2542BCD0042661
:10525000DEE745685C6D2542BCD00526D8E742688C
:10526000D3F894301A4218BF0926D1D170BD4568D1
:105270005C6E2542B4D00626CAE745685C6F2542BD
:10528000B4D00726C4E74568D3F884402542B3D09C
:105290000826BDE7094A0A48012102F0BFFC084878
:1052A0002A460A2102F094FA01232370B4E700BFD2
:1052B000F208013044080130200901301551000185
:1052C000F80801300A2938B50C46154600F2F98075
:1052D000002A00F0F880002900F0E6800278052A14
:1052E00001D0032A0AD1794B79491A7042685A6071
:1052F000827A0A7002891A81764ADA60012C00F0FB
:10530000D380027B052A01D0032A0CD16F4B90F881
:1053100016C01A7402695A61828A6D491A836D4AED
:1053200081F801C0DA61022C00F0BE80027E052AFD
:1053300001D0032A0DD1654B90F822C083F82020BC
:10534000C2695A62028C62491A85624A81F802C0B7
:10535000DA62032C00F0A88090F82420052A01D0FE
:10536000032A0DD1594B90F82EC083F83020826A61
:105370005A63828D56491A87564A81F803C0DA6308
:10538000042C00F0918090F83020052A01D0032AE7
:105390000ED14E4B90F83AC083F84020426B5A64CD
:1053A000028F4B49A3F848204A4A81F804C0DA64C6
:1053B000052C79D090F83C20052A01D0032A0FD182
:1053C000424B90F846C083F85020026C5A65B0F802
:1053D00044203F49A3F858203E4A81F805C0DA65C9
:1053E000062C61D090F84820052A01D0032A0FD15D
:1053F000364B90F852C083F86020C26C5A66B0F801
:1054000050203349A3F86820324A81F806C0DA6692
:10541000072C49D090F85420052A01D0032A0FD137
:105420002A4B90F85EC083F87020826D5A67B0F8FE
:105430005C202749A3F87820264A81F807C0DA675C
:10544000082C31D090F86020052A01D0032A11D110
:105450001E4B90F86AC083F88020426EC3F8842007
:10546000B0F868201A49A3F888201A4A81F808C0C1
:10547000C3F88C200A2C17D190F86C20052A01D093
:10548000032A11D1114B90F876C083F89020026F57
:105490000F49C3F8942081F809C00E4AB0F874107F
:1054A000A3F89810C3F89C202146084801F0C8FBD7
:1054B000094A0A4B0A4814701D6000F013F80120D5
:1054C00038BD002038BD104638BD00BF440801304B
:1054D000E808013081510001F2080130E408013090
:1054E000D5500001034618B1024A012013607047ED
:1054F000704700BF600901302DE9F84FDFF8B48133
:10550000694FDFF8B4A1694EDFF8B091684DDFF85C
:10551000B0B100240EE001340A2C08F1010807F1B3
:1055200001070AF1010A06F1010609F1010905F175
:1055300002055FD02B78E0B2002BECD03378032B40
:1055400068D8DFE803F04D401D0215F8013C002B40
:1055500052D03B78052B22D0082B00F08A80002BFC
:10556000D9D19AF800200132D2B2132A7ED98AF812
:10557000003008233B700421DBF800309847CAE76D
:1055800015F8013C002B5AD099F800300133DBB2FA
:10559000632B89F800303B787BD8052BBBD198F87A
:1055A00000300133DBB2312B88F80030B3D94FF033
:1055B00000033B704FF0000325F8013C0121DBF8AC
:1055C00000309847A7E715F8013C43B34FF00003BC
:1055D00089F800303B780222052B32709BD1DEE740
:1055E00015F8013CB3B14FF0010333703B78052B44
:1055F00091D1D4E7BDE8F88F3A783370052A25F8C1
:10560000013CCCD0082A86D13B700521DBF8003064
:10561000984780E73B78052B7FF47DAFBFE739786B
:1056200033700529BBD008293FF475AF00297FF4FA
:1056300072AF25F8011CDBF8003098476BE73A7829
:105640003370052A0AD0082A3FF465AF002A7FF498
:1056500062AF052388F800203B705CE73B7025F8BB
:10566000013C0221DBF80030984754E78AF800201B
:1056700051E79AF800200132D2B2132AF6D93B70D2
:105680004FF000038AF800300421DBF8003098471F
:1056900041E70321052B317081D0082B3FF43BAF4C
:1056A000002B7FF438AFC6E74809013054090130B8
:1056B0006509013030090130240901303C0901300D
:1056C00060090130024B03EB400001234370704737
:1056D00064090130014B03F8101070476409013070
:1056E0000D4B1878A8B99A7892B9187988B99A792F
:1056F00072B9187A68B99A7A52B9187B38B99A7B14
:1057000032B91A7C22B9987C80F0010070471046AB
:1057100070470020704700BF64090130F0B40F46A5
:1057200016460446D8B10378032B15D8114D012332
:10573000AB7600686168E368A268AC46ACE80F002D
:1057400020696169ACE80300238BACF80030C5E93F
:1057500007760020F0BC70470120F0BC7047054D73
:10576000C5E90000C5E90200C5E90400A876288360
:10577000EDE700BF780901302DE9F043A64E3478FB
:1057800085B0002184420291ADF80C1003D2B17EA5
:10579000002940F0F5800EA90191EFF311849F4993
:1057A00091F8025301F540610127C968C1F3022154
:1057B000013107FA01F1294481F31188311891F878
:1057C00016C01CEA070100F0DE80954951F8201050
:1057D000002900F0D8800878002800F00D81914D54
:1057E00040F20119AE4603E001374F4500F0E68074
:1057F0000EF8010B11F8010F1FFA87F80028F3D1FA
:105800001CF01C0F00F09A80B8F5807F40F0C0803B
:1058100047461CF0040F00F0C980D2B11078C0B127
:10582000FF2F00F3EF80BE46C2F1010902E0BEF196
:10583000FF0F0ADC05F80E0009EB020112F8010F58
:1058400089B201EB070E0028F1D141441FFA81F81B
:1058500047461CF0080F00F0B980FF2F07DC20221C
:1058600008F1010105F808201FFA81F84746C3B185
:105870001978B1B1FF2F00F3C9803846C3F1010E8A
:1058800001E0FF2808DC29540EEB030213F8011F86
:1058900092B2D0190029F4D102EB08011FFA81F865
:1058A00047461CF0100F36D0FF2F16DC20235E4831
:1058B00005F808304C220123D919FF2903F1010C06
:1058C00006DC6A5410F8012F1FFA8CF3002AF3D17A
:1058D00003EB08011FFA81F84746544A0C9B052147
:1058E00002A80FF049FC9DF80820A2B1FF2F25DC8B
:1058F00002A83946002301E0FF2907DC6A5401337E
:1059000010F8012F9BB2D919002AF5D103EB080139
:105910001FFA81F84746FF2F10DC2923FF2F05F8D7
:10592000083007F1010261D008F1020120231FFABB
:1059300081F8AB54474601E03A4DB8464046C7F5BA
:105940008071019B0D9A284412F0B0FF002827DBDC
:105950000744B7F5807F23DC08EB000189B2FE29FC
:1059600028BFFE210D23481C6B5480B2F3690A2224
:1059700002312A5489B20BB12A48984784F311881E
:1059800005B0BDE8F0831CF01C07D5D0254D884636
:10599000282105F8081008F101011FFA81F837E7FE
:1059A0000D2385F8FE30FF20FE21DFE71CF0080FF5
:1059B0007FF45DAF1CF0100FADD08EE71CF01C0122
:1059C0004FF4807710D13846B846BAE71CF0100F74
:1059D000A1D0FF2F81DC3A2308F1010105F808303E
:1059E0001FFA81F8474678E7B84612E708F1010147
:1059F0001FFA81F84746A1E71CF01C079CD0094D0F
:105A00008046C5E71CF0080F7FF431AF1CF0100F83
:105A10007FF463AF92E700BF7809013000E100E056
:105A200024DD0101A0090130F5DC0101F0DC0101F8
:105A3000024B1B6A03B11847704700BF7809013059
:105A4000024B5B6A03B11847704700BF7809013009
:105A5000F8B5171E0C460CDD074ECD192046012166
:105A600014B1F36903B198470134A542F6D1384621
:105A7000F8BD00273846F8BD780901302DE9F84314
:105A80004368884A1D78002115F00F0704461170FD
:105A90002CD14288292A00F090808349D3F8012034
:105AA000824E834DCA60D3F805302B6032600020EF
:105AB00069F466D530684FF4805169F4B7D46368EF
:105AC000002877D001221A707A4B2288606800265D
:105AD00001211E606AF40AD0774B28681E7069F4B1
:105AE00027D73046BDE8F84369F44A95B91E012925
:105AF0000DD96D49D3F801206C4E6D4DCA60D3F8B5
:105B000005302B600120326069F43AD5D2E7418834
:105B100001202929107000F09380644E644D624981
:105B2000D3F80120D3F8053032602B60CA60C3F38C
:105B30000B02002A00F081801B0B01339BB2022F65
:105B4000DFF898810CBF00200120A8F8003069F42C
:105B500017D55A4A316811606268B8F800300126DA
:105B60001670626856706268937062681B0AD37020
:105B700022886068042169F4B9D7514B514A4D48D5
:105B8000167000241C70504B504A1C80504B5149D9
:105B9000146004604FF4A0524F481C7002F066F885
:105BA0004D4802F041F9286869F4C2D6424B1C7096
:105BB000BDE8F88302221A7086E7DFF8EC805D1CEE
:105BC000474603F1210C28686968AA68EB683E46DD
:105BD0000FC6103565453746F5D12868696803C793
:105BE000B8F8002044F244739A421CD1D8F80C3023
:105BF000C3F30B02BAB903F17F43B3F5005F12D3CD
:105C000069F424D7D8F80420002848D002F562723D
:105C1000D8F80C30264D254E2A6023F47F6323F0FC
:105C20000F03336043E7636802221A7022886068BA
:105C30000121BDE8F84369F45997C3F30F337EE7B8
:105C4000DFF864801E1803F12109C64630687168C8
:105C5000B268F368F446ACE80F0010364E45E646ED
:105C6000F4D130687168114EAEE80300D8F80C30FA
:105C700023F47F6323F00F03336069F4E7D6D8F889
:105C8000043038B92D09013D012D03D9084D3033B9
:105C90002B604CE7064D03F562732B6047E730320B
:105CA000B6E700BFF0220130FC2201308C248000D6
:105CB000F422013090248000482580002423013004
:105CC00029230130F1220130EE220130A4220130DB
:105CD00028230130A40A0130A8220130EC2201302F
:105CE00010B54368012119704FF48A224368117876
:105CF0005970517899709178D970D178197111795A
:105D00005971517999719179D97182B0D2791A7298
:105D100004466846FEF772FE6B4603CB6368C3F821
:105D20000D10C3F80900636802225A742288606863
:105D3000142169F4DBD6024B00221A7002B010BDA8
:105D40004825800010B4044C03460A4620785DF8CC
:105D5000044B194602F094B98443003010B5404A10
:105D60001378FF2B1ED090F801C0634500D010BD02
:105D7000017801390829FAD80FF2040E5EF821F0F3
:105D8000F95D00016F5D00016F5D00016F5D000155
:105D9000E15D0001D95D00011F5E00016F5D000142
:105DA000115E0001017801390829E0D80FF2040CD6
:105DB0005CF821F0F95D00016F5D00016F5D00018D
:105DC0006F5D0001E15D0001D95D00011B5E000116
:105DD0006F5D00010D5E0001BDE8104069F4BC90EC
:105DE000204B1B7813B1204B1B78FBB10189406815
:105DF000BDE8104069F49C9069F4B0D119481A4983
:105E00001A4A002303700B70137010BD90F801C084
:105E10006345ACD1FF23137010BD43781370144B4E
:105E20001B68002BA3D0BDE8104018470F4B028918
:105E3000416810484FF0020C83F800C001F02CFFBD
:105E40000C4801F0E1FFB0F5806F90D20A4B1A7850
:105E5000002A8CD1094801210270197010BD00BFC1
:105E600084430030F022013028230130F122013038
:105E7000B8220130A8220130292301301E068000FB
:105E80002DE9F047344F354EDFF8D490DFF8D8A035
:105E900082B0C8254FF6FF78387802F0D1FF404530
:105EA00096E803003DD00090ADF80410D9F8043016
:105EB00003F0070308336B4442F2107213F8084CE6
:105EC00002FB04F406F030F8DAF80420DAF80430C3
:105ED0009B1A9C42FAD806F053F8013DDCD11521FB
:105EE000387803F08BFD96E803001D4BADF80410E5
:105EF00000905B681B4A03F0070308336B4413F8F8
:105F0000084C02FB04F406F00FF8DAF80410164A05
:105F100053685B1A9C42FBD802B0BDE8F04706F01C
:105F20002FB80F4BADF8041000905B680D4A03F0DA
:105F3000070308336B4413F8084C02FB04F405F024
:105F4000F3FF094A516853685B1A9C42FBD802B0C0
:105F5000BDE8F04706F014B884430030D8D40101FE
:105F600000C500A0A0860100001000E038B505467D
:105F70000C4675F4FBD7F8B917492246284669F450
:105F8000D9D275F4F3D770B964B1144D144B2868A5
:105F9000611E5A1C12FA81F113F8012F9942104424
:105FA000FAD1286038BD0F4B18786FF479D70E4BB3
:105FB0001B6883F31088E7E76FF424D7094B187048
:105FC000EFF31081084A0123116083F31088002049
:105FD0006FF466D7D0E700BFA41E01309024800084
:105FE000A31E0130F8220130A00A01304268224B82
:105FF00030B5012515704268196851701A684168FA
:10600000120A8A7042685988D1704268DB7813712D
:1060100043685D71416883B006310191044675F4AF
:10602000A5D7019980B92822144800F0D9FA75F44F
:106030009DD7C0B922886068362169F457D5104BC6
:1060400000221A7003B030BD6FF4DCD60D4B18700F
:10605000EFF310820C4B1A6085F3108800206FF468
:106060001FD70199DFE7074B18786FF419D7064B54
:106070001B6883F31088DDE7BC220130002000019B
:1060800048258000F8220130A00A013008B5436895
:106090001B78012B06D11D4B1D491E48C8620022EA
:1060A0001A7008BDFFF7ECFE194B1B4ADA6275F453
:1060B0005DD780B94FF48051184800F0F1FA1449C7
:1060C0001648302200F09CFA75F450D790B9BDE81C
:1060D000084005F069BE6FF495D6114B1870EFF3C8
:1060E0001081104A0123116083F3108800206FF49F
:1060F000D7D6DFE70A4B18786FF4D2D6094B1B6866
:1061000083F31088BDE8084005F04EBE48258000A6
:10611000BC22013042594244424E425300300001F9
:10612000F8220130A00A0130F8B542683D4BD2F8A0
:1061300001101D6814783C4E8D420CBF01210221D4
:106140001170426804F00F07577032780CBF0D468B
:106150000025002A49D04268196851701A684168C0
:10616000120A8A7042685988D170DA7843681A71C5
:1061700002884068052169F4B9D4002333701DB149
:1061800004F00D04012C09D0284669F4C5D3002081
:1061900069F4F6D1254B00221A70F8BD04F098F985
:1061A000284669F4B9D375F4E1D668BB204A214C7E
:1061B000D36850682146184441F8043B282200F077
:1061C0000FFA4FF480511C4800F06AFA3022214641
:1061D000194800F015FA75F4C9D660B9012FD3D16A
:1061E000FFF74EFE05F0E0FDD1E70288406801218F
:1061F00069F47CD4C3E7114B18786FF451D6104B77
:106200001B6883F31088E9E76FF4FCD50B4B18701B
:10621000EFF310820A4B1A6085F3108800206FF4A8
:106220003FD6C3E790248000F0220130482580004B
:10623000FC220130BC22013000300001F822013084
:10624000A00A013070B504460D46164614483022A7
:1062500000210EF0B1FE0CB1124B5C6032461249C7
:10626000104869F421D20E4B104A1D600121002014
:1062700069F47AD40E4A2321062069F475D40D4AB4
:106280002521082069F470D40B4A41211C2069F4AF
:106290006BD40A4A1D20422169F466D4002070BDE7
:1062A000BC22013060430030A40A0130E15C0001EF
:1062B0007D5A0001296100018D600001ED5F000140
:1062C00000B583B008B1064B1860064A064B01932F
:1062D000FF2101A8117001F0F9FE03B05DF804FB85
:1062E000B8220130844300305D5D00012DE9F041AA
:1062F0008B4D2B78012B82B021D0022B1CD18948E9
:1063000001F070FD83B2B3F5806F65D2864C87498A
:106310002368096882B213448B4200F09C80844C4D
:1063200023784BB1834B1D7835B97E4801F06CFD65
:10633000B0F5806F00F2A78002B0BDE8F0817E4F1B
:106340007E4E3B8832889A421CD9DFF8188214248A
:10635000D8F800004FF4805100EB033069F466D0A8
:1063600000286CD03B88328801339BB29A423B8034
:1063700040F28E80013CEBD1714A40F20121118044
:10638000538005E06E4A002140F2013329701380EA
:106390006B486C4C2322042169F4A8D36A4B93E820
:1063A0000300ADF804100090636803F0070308339E
:1063B0006B4447F2305213F8084C02FB04F405F02A
:1063C000B3FD624A516853685B1A9C42FBD802B025
:1063D000BDE8F04105F0D4BD5D4952484FF48062FC
:1063E00001F0B0FC044675F4C1D5A7B200285BD11A
:1063F000584E57493068A4B2224669F43BD18442D2
:1064000005D055494B4A00230B7013702B7075F45F
:10641000ADD500283FD130683946FFF7A7FD424A85
:1064200013682344136033682344414C3360384677
:1064300069F48CD22378002B3FF47EAF72E7464993
:106440003F4B3C4C3A88087040F202512870207053
:1064500019805A809CE73E49324801F073FC1FFACC
:1064600080F80746B8F1000F2DD1404669F46ED28E
:106470003348304B0121FF220170197069F436D383
:1064800000232B704BE75A2008F0F4F8257053E7EF
:106490002B4A538077E7314B18786FF401D5304B96
:1064A0001B6883F31088B6E76FF4ACD42B4B1870DD
:1064B000EFF310822A4B1A60012383F31088002027
:1064C0006FF4EED494E775F451D588B9214E204984
:1064D0003068BFB23A4669F4CDD075F447D5B0B94B
:1064E00030684146FFF742FD23681F442760BCE740
:1064F0006FF488D4194B1870EFF31082184B1A60A0
:10650000012383F3108800206FF4CAD4DEE7134B15
:1065100018786FF4C5D4124B1B6883F31088DFE73B
:10652000F1220130A8220130A4220130F4220130EE
:106530002923013028230130EE220130EC220130E2
:10654000A40A013000C500A0D8D40101001000E069
:10655000A41E013024230130F0220130F822013042
:10656000A00A01308C24800008B569F467D2BDE828
:106570000840FFF7BBBE00BF10B5154C82B0022328
:106580000DF107008DF80730FEF7DCFB22686AB1D9
:1065900075F4ECD4031E18BF01230D48A37212F446
:1065A000DDD6B0FA80F0400902B010BD09499DF86F
:1065B00007C0094B094851F82C105A611860012294
:1065C000EB20C3E90122C3E903012360E0E700BF38
:1065D000641F800088430030281F800000D000A086
:1065E000844610B5144623460A460448614616F010
:1065F0006BFD00280CBF2046002010BD641F8000EA
:10660000844610B5144623460A460448614616F0EF
:1066100007FD00280CBF2046002010BD641F80002D
:106620002DE9F0478046C0B08946174613461B48FF
:106630000A46414616F0F4FC50BBB7F5807F3D4654
:10664000DFF858A028BF4FF4807504463E4610E09E
:106650000EF0E4FBE0B9761B1ED0B6F5807F354620
:1066600028BF4FF48075A74204EB050310D9BB4245
:106670000ED804EB08012B466A46504616F024FD5E
:1066800003462A4609EB040069462C44002BDFD060
:10669000002040B0BDE8F0873846FAE7641F80006C
:1066A00008B502460B460448002116F085FCB0FAF6
:1066B00080F0400908BD00BF641F800008B50023BA
:1066C0001A460121034816F077FCB0FA80F0400921
:1066D00008BD00BF641F800008B50AF073F9064AC0
:1066E000064B12681968914200D108BD1A60BDE8D6
:1066F00008400CF04FBD00BFC444003058230130A7
:1067000010B5044618B9BDE810400AF0F9B90848B8
:1067100001F0A6F9074A0648012101F07FFA214657
:106720000348002201F054F8BDE810400AF0E8B92F
:1067300030230130D96600012DE9F0415C4B8046E1
:1067400003F1100703F1200E0C460FCB8EB001AD04
:1067500085E80F0097E80F0005AE86E80F00BEE859
:106760000F000DF1240CACE80F00DEF80030CCF87F
:106770000030002C00F089804E490620FEF746F9D3
:106780004D490720FEF742F94C491220FEF73EF929
:10679000B8F1050F00F28A80DFE808F00303032058
:1067A0003A5C2279464B617933F81230454A0293BC
:1067B000236832F81110A27901939BB2CDE903123C
:1067C000002B66D0404B53F83800002861D0294692
:1067D00005F00EFB00200EB0BDE8F08122793848AC
:1067E0006379216805910932033330F8122006924B
:1067F000344AA07932F813200890CBB20792002BCC
:1068000047D0304605F00EFA00200EB0BDE8F0810A
:1068100023791A1F032A47D903F11201022B284AB0
:10682000637932F8110027492268099203F10603BF
:1068300031F813300C93A1790D9114BF0124022477
:10684000D3B2CDE90A4023B3002009A905F0F8FA34
:106850000020C0E721791A4B1A4A33F811306179C8
:10686000029332F811102368A279CDE903129AB28B
:106870009AB9180C00040028ADD014481B0C294606
:10688000019305F0B5FA0020A5E7E5200EB0BDE8BC
:10689000F081E4200EB0BDE8F0810D480192294658
:1068A00005F0A6FA2368E4E7E72094E7E62092E7FC
:1068B00034DD01019D500030A95000309950003066
:1068C00080DD0101B8DD010168DD0101001001A0DA
:1068D000000001A010B50C4605282ED8DFE800F016
:1068E00003030320190D8BB20BB3154B53F8300083
:1068F000E8B105F091FA002010BD89B2C9B9200CA9
:1069000000040028F8D00F48210C05F085FA00207B
:1069100010BDCBB25BB1002005F098FA002010BD8D
:10692000CBB223B1084605F08FF9002010BDE4205A
:1069300010BD054805F070FAE1E7E62010BD00BF84
:1069400068DD0101001001A0000001A010B50C4697
:10695000052828D8DFE800F003030317110B134BB9
:10696000BDE8104053F8300089B213F4B09088B2FB
:10697000A0B9230C1B045BB910BDBDE8104089B25F
:10698000002005F0CBBABDE8104088B211F4729037
:10699000210C0748BDE8104013F4999089B20548CE
:1069A00013F495D0E5E7002010BD00BF68DD0101BC
:1069B000001001A0000001A02DE9F04F042883B0D1
:1069C00006460C461746984664D00D682946FFF7E0
:1069D00081FF21463046FFF7AFFE834600285BD19A
:1069E000032E74D0052E00F087804FEA06195FFA57
:1069F00089F94FF0100A4C4B03EBC60300930024B7
:106A000022E0009B93F90400002800F08A80EFF355
:106A1000108C012383F31088444B04EB090101EB34
:106A2000410103EB8103C3E901788CF310880190E5
:106A300015F4F2D3019815F40DD4611CCBB2534573
:106A40004FEA55051C4627D2EB07F6D5032E27D073
:106A5000D7D9052E1ED1EFF31080012383F31088C0
:106A600004EB090101EB4101304B03F8216003EB1A
:106A70008103C3E9017880F31088062015F4CCD394
:106A8000062015F4E7D3072015F4C6D3072015F424
:106A9000E1D3D2E74FF0E60B584603B0BDE8F08FE4
:106AA000EFF31080012383F31088214B04EB0901DD
:106AB00001EB410103EB8103C3E9017880F3108806
:106AC000122015F4A9D3122015F4C4D3B5E7237905
:106AD000043B032B07D8DFE803F0021E1813002144
:106AE000284616F07DFA4FF0007072F401D34FF093
:106AF000080A4FF000097EE74FF0200A81467AE746
:106B00000C49284616F06CFAEDE74FF001112846C3
:106B100016F066FAE7E740F20111284616F060FA2F
:106B2000E1E74FF0E40BB7E768DD0101BC2301307A
:106B30005C2301300101010010B511F0010384B0A4
:106B400053D10A465208D40703F10103FAD59BB288
:106B5000274A0C04904208BF2146264CA04230D060
:106B6000904216D110339BB2234A03EB430302EB4E
:106B7000830012F8233042688068052B18BF012378
:106B8000CDE902108DF804300AB101A8904704B095
:106B900010BD0028FBD120339BB2174A03EB4303FF
:106BA00002EB830012F8233042688068052B18BF7F
:106BB0000223CDE902108DF80430002AE5D104B09B
:106BC00010BD0D4A03EB430302EB830012F82330A0
:106BD00042688068052B18BF0023CDE902108DF8AC
:106BE0000430002AD1D104B010BD0023B0E700BFAB
:106BF000001001A0000001A0BC230130F0B585B059
:106C000003230E4E8DF8043005460024012715F0AD
:106C1000010F07FA04F34FEA550504F1010406D009
:106C2000D6E9012101A8CDE9023102B19047082C33
:106C300006F10C06EBD105B0F0BD00BF5C230130BE
:106C4000F0B583B008B3E9B14D1EEDB2044600EBD8
:106C50000515072602E0AC4214D01C46B4F808C063
:106C60006768E2682078009700236946ADF804C0A1
:106C70008DF80660FFF7A0FE04F110030028EAD0AB
:106C800003B0F0BD002003B0F0BDE52003B0F0BDBF
:106C900038B5074C04F1400554F8043B1BB11B68A0
:106CA0000BB1984710B1AC42F6D1012038BD00BFFE
:106CB00040250130074B10B51C7804B110BD0648C3
:106CC00001221A7071F41ED621460448BDE8104016
:106CD00072F47A903C250130BD500030916C000177
:106CE000F8B50F4B1E7807460D46144676B10F2CAB
:106CF0000AD86B1E022B07D80A4B1A1943F82470C6
:106D000082F840502046F8BD1020F8BD0122064808
:106D10001A7071F4F7D50548314672F455D0E6E79C
:106D20003C25013040250130BD500030916C000100
:106D300070B5194C206818B190F86C50012D07D02F
:106D4000606818B190F86C50012D09D0012070BD19
:106D5000043005F0B5F910F0EF0F12D0002070BD2F
:106D6000043005F0ADF910F0EF0FF7D1EFF3108616
:106D700085F31088606804301AF402D686F3108810
:106D8000E4E7EFF3108685F31088206804301AF4E6
:106D9000F7D586F31088D3E79025013070B5194DEB
:106DA000044655F82000703001F01CF886B255F802
:106DB0002430C6B193F80121AAB97F2E17D98022B9
:106DC000991803F1700000F0BDFF802655F82400EB
:106DD000002380F8043100F18001324604301AF4B7
:106DE0006FD660B970BD002083F8000170BD82B21B
:106DF00003F1800103F1700000F0A4FFE6E780B228
:106E000070BD00BF90250130024B186804301AF4A1
:106E1000239400BF90250130024B586804301AF4C7
:106E20001B9400BF90250130002070472DE9F043EE
:106E30000F4685B00446002800F08880002A00F044
:106E400085800678012E7CD8DFF86081D2E90012B7
:106E500000F15803C83048F8263000F007FF237BC4
:106E60008DF80D30A368029363798DF80E300023FE
:106E70008DF80F302079D4F85090032302A98DF8B3
:106E80000C30FFF759FC054600285BD1237E8DF8B6
:106E90000D3063690293207C637C8DF80E3002A96B
:106EA000FFF74AFC054600284CD1B9F1220F52D019
:106EB00058F82600231D4366034643F8087B374FE6
:106EC000D4F848E0D4F84CC0226C616C826007EBC7
:106ED000C607C3F808E0C3F80CC05960226D616DA5
:106EE00059611A617B6840F8043F05F0D7F858F8FB
:106EF0002600043005F0C0F8012203212848FFF7DE
:106F0000EFFE58F826300022012183F8002183F893
:106F10006C1083F80121A3F8022122490C20FDF70F
:106F200075FD21490D20FDF771FD97F901000190D4
:106F300015F472D1019815F48DD1284605B0BDE83D
:106F4000F083E825284605B0BDE8F083E52528460E
:106F500005B0BDE8F08394F824308DF80D30236A35
:106F60000293207F637F8DF80E3002A9FFF7E4FBC8
:106F700008B10546E6E794F830308DF80D30E36A45
:106F8000029394F8280094F829308DF80E3002A965
:106F9000FFF7D2FB00288BD00546D3E7CCDD0101FB
:106FA000DCDD0101096E0001196E00019025013040
:106FB000012810B51AD8104B53F82000A0B190F852
:106FC0006C308BB1B1B1AAB190F803313BB14368D9
:106FD000002480F803410224C3F888401B68043071
:106FE00005F077F820B910BDE52010BDE82010BDF0
:106FF00080B210BDE42010BD902501300128F8B505
:10700000044627D8184E56F82000F8B190F86C7056
:10701000E7B109B302B3002380F80231703000F009
:107020003BFE56F8243093F800218AB993F80121E9
:1070300002F0FF0562B993F86C20012A08D183F8A9
:1070400000212046FFF7AAFE40B9F8BDE520F8BDB3
:10705000E220F8BDE820F8BDE420F8BD56F8243061
:1070600083F80051F8BD00BF90250130012870B5AC
:1070700019D8104E56F8200098B190F86C6086B17F
:1070800099B192B10C4CA3F59C4CACF1210CA445E8
:107090000BD9002480F8024104301AF490D430B99E
:1070A00070BDE52070BDE82070BDE42070BD80B2E9
:1070B00070BD00BF90250130DDB1FFFF2DE9F0412B
:1070C000012882B0054606D8494E56F8207097F838
:1070D0006C30012B02D002B0BDE8F08197F800219E
:1070E000002AF8D097F80121002AF4D17A6887F8AD
:1070F0000131D36F5807FCD597F80431002B5FD0CE
:10710000D7E9033119447B69073103F001031944BE
:10711000384B0022186807E0BB68B0FBF3F301FBB3
:1071200003F3B2EBC31F05D897F83B30102B02F1E5
:107130000102F1D13846703000F054FE84B256F8A6
:10714000250094B1012270300DF1070100F0FAFD25
:1071500056F825004268D36F9907FCD5013C9DF88D
:1071600007301360A4B2002CECD1703000F03AFE6E
:1071700010B156F82500DEE77A6853695B06FCD546
:10718000EFF31088012484F3108856F8250070303E
:1071900000F028FE50B1EFF3108184F310887A6874
:1071A000536843F08203536081F3108856F825300A
:1071B000002283F8002183F8012188F310888AE7F0
:1071C000FC8CB7F82480381D1AF4ACD056F8250092
:1071D000A4B200F18001A8EB0408224641F28833F2
:1071E000414404301AF4EBD356F82500A3E700BF5E
:1071F00090250130C841003030B5184A03689342E9
:1072000083B024D002F58072934223D00224224618
:10721000458C038C5B1B124DADF8043055F82430BF
:1072200093F8043101218DF80010104663B1FFF787
:10723000FBFD55F8243093F800211AB91B680BB1F7
:107240006846984703B030BDFFF7A8FDF1E700247A
:107250002246DDE701242246DAE700BF00C600A08F
:107260009025013000B5104A0368934283B018D0CE
:1072700002F58072934214BF022301230B4A418D11
:1072800052F82320038D4FF0020C8DF800C01268D5
:107290005B1AADF804300AB16846904703B05DF858
:1072A00004FB0023EAE700BF00C600A090250130E0
:1072B00000B50F4A0368934283B016D002F580727E
:1072C000934214BF022301230A49C06B51F82330B3
:1072D00000228DF80020196883F80021019009B17F
:1072E0006846884703B05DF804FB0023ECE700BF65
:1072F00000C600A09025013000B50E4A03689342F5
:1073000083B015D002F58072934214BF022301238B
:107310000949052251F823308DF800201A68002110
:1073200083F800110AB16846904703B05DF804FB8A
:107330000023EDE700C600A09025013000B50E4AFD
:107340000368934283B015D002F58072934214BF54
:10735000022301230949032251F823308DF800202C
:107360001A68002183F800110AB16846904703B0FB
:107370005DF804FB0023EDE700C600A09025013076
:1073800000B50E4A0368934283B015D002F58072AF
:10739000934214BF022301230949042251F82330E8
:1073A0008DF800201A68002183F800110AB16846A0
:1073B000904703B05DF804FB0023EDE700C600A092
:1073C0009025013010B40246EFF3118C1E491F4B7B
:1073D00091F80203D9680123C1F3022119448B40BB
:1073E000034483F311881A4C236B33B3F2B104F1D5
:1073F000100100E00346934208D0186A194600289D
:10740000F8D18CF311885DF8044B70472268013A7B
:1074100022601A6A0A62184600225A701A62236BA6
:1074200063608CF311885DF8044B70472268196A19
:107430002163013A22601846EEE718468CF3118862
:107440005DF8044B704700BF00E100E000ED00E094
:10745000A025013016F440962DE9F04184B0044691
:10746000019104F0D7FD0199254FDFF8A080064671
:1074700020460DF051F8044630460D460DF008F850
:1074800002460B46204629460DF07CF81AA3D3E9A4
:1074900000230DF0A1F91B4B1B4C00220CF0BCFE8D
:1074A0000DF0AAFA0146012004F096FD40F2E936FB
:1074B00004F0DAFD18B104F09DFD013017D197E812
:1074C00003000290ADF80C10D8F8043003F0070365
:1074D00010336B4413F8085C04F026FD626863689F
:1074E0009B1A9D42FBD804F04BFD013EE0D104B055
:1074F000BDE8F081AFF300800000000080842E41E1
:10750000D8D401010000E03F001000E000C500A059
:107510002DE9F84FEFF31185A848A94990F80243E7
:10752000CB68C3F302230122013302FA03F323449D
:1075300083F31188EFF3118690F80203CB68C3F34D
:10754000022313449A40024482F311889D4F3C6BFE
:10755000002C00F02D81236A3B633B68013B3B60BC
:107560000023637023623B6B7B6086F31188D4E950
:107570000406954B984276F11E03C7E9020680F097
:107580009180A378012B00F0A78085F31188EFF399
:10759000118ADFF82882DFF8289298F80223D9F8B8
:1075A0000C300125C3F302232B4405FA03F31344E3
:1075B00083F311883E6BEEB1B96833697269786CF8
:1075C0005B1AF96862EB0102396C994270EB0203B5
:1075D00010D335703046FFF7F5FEB178012900F081
:1075E000B18000233362BB6B002B55D1BE633E6B71
:1075F000002EE1D18AF311887B6843B1D3E90401FD
:10760000BB68C01AFB6861EB0301FFF725FFE36964
:107610000BB1A0699847EFF31186684A684B92F85E
:107620000213DA680123C2F302221A4493400B4486
:1076300083F311883C6BACB1644D4FF0000802E05D
:1076400025462C6A74B12378012BF9D1E369002B0C
:1076500000F0A880A06998472D6A84F800802C6A01
:10766000002CF0D1BC6B9CB1E269002552B1A0693D
:107670009047236A2570BB6325624BB11C46E269C3
:10768000002AF4D1236A2270BB632262002BF5D159
:1076900086F31188BDE8F88F1A461B6A002BFBD1D0
:1076A000166287E73B6B6BB1D3E90421824271EB31
:1076B000060C43D3121A61EB0601C3E904211B6ACD
:1076C000002BF1D100230022C7E90223A378002078
:1076D000012B06467FF459AFA26812182261E268B6
:1076E00046EB02026261EFF3118E344A92F8021304
:1076F00002F54062D268C2F30222013293400B4489
:1077000083F3118800232362304B07E0D3E904029E
:10771000D4E90461864271EB020247D39C461B6A9E
:10772000002BF3D10123CCF8204063703B68013378
:107730003B603B6B7B608EF3118826E71B6A002B56
:10774000B2D1BFE7B268BB689B18FA683361F368CF
:1077500042EB03037361EFF3118E98F80223D9F81B
:107760000C30C3F3022301339940114481F3118893
:1077700000233362154B06E0D6E9040219698842FA
:1077800059698A4110D39B461B6A002BF4D1CBF870
:10779000206075703B683A6B0133C7E900328EF3A5
:1077A000118807E7254658E73362F0E72362B9E717
:1077B00086F31188D4E90423FFDE00BF00E100E076
:1077C00000ED00E0A02501300010C32CB0250130F1
:1077D0002DE9F04F8B4685B015460446F0B1964B27
:1077E0004A1E9A421AD2EFF31186944B93F8021371
:1077F00003F54063DB68C3F302235A1C0123934063
:107800000B4483F31188C36913B18378012B09D921
:1078100086F311880F2005B0BDE8F08F012005B078
:10782000BDE8F08F4778002FF2D104F0E3FBB0F110
:10783000FF3FDFF82482814600F0A38004F0EAFBDA
:10784000D8F804A00190BAF1000F00F09A8007EE7A
:10785000909ADFED7B6A07EE100AF8EE677AB8EED1
:10786000477A67EEA67AC7EE877A17EE900A0DF090
:107870004BF9DAE9042CD8F80830D21AD8F80C30D1
:107880006CEB030C82427CEB01033CBF104661466B
:107890004FF47A7202FB0BF24FF0000EEFF3118CF3
:1078A000664B93F8029303F54063DB68C3F302234E
:1078B00003F1010A012303FA0AF34B4483F311880D
:1078C000D8F80430002B5FD082427EEB01035BD3FB
:1078D0008CF31188D8F8042013691B1A506960EBE7
:1078E00001004FF47A72ABFB02125B18A16040EB0F
:1078F00002000021A5612361E26060612162EFF373
:10790000118E4E4B93F8020303F54063DB68C3F31B
:1079100002235A1C01239340034483F31188494DE9
:10792000216207E0296920696B696269884272EB0C
:10793000030360D3AC462D6A002DF3D10125CCF8AA
:1079400020406570D8F800302B44C8F80030D8F8D3
:107950003030C8F804308EF311883B4C2378002B6C
:1079600059D0364B1A68520105D5002F45D186F300
:107970001188002053E74FF08062C3F880211A601D
:10798000F3E70020014683E78CF31188D8F8043030
:10799000002B46D01A695B69DFF8C090121A63EBBE
:1079A0000101C8F80820C8F80C1004F009FB40F2E7
:1079B000E93704F059FBD0B1244B93E80300244B82
:1079C0000290ADF80C105B6803F0070310336B44B2
:1079D00013F808AC04F0A8FAD9F80400D9F8043078
:1079E0001B1A9A45FAD804F0CBFA013FE1D1D8E945
:1079F0000230012775E72562A0E7D8F80420D8F8FF
:107A00000800D8F80C10D2E90432181A62EB010110
:107A1000FFF722FDABE70F491A20FCF7F7FF2570AF
:107A20009FE79FED037B184688ED027BE1E700BFEF
:107A30000000000000000000008AB90700E100E03B
:107A400000247449B025013098250130D8D40101B3
:107A500000C500A055740001A0250130001000E011
:107A60002DE9F04F044685B000B3EFF31186644A68
:107A7000644B92F80213DB68C3F302235A1C012300
:107A800093400B4483F311884378012B12D086F383
:107A90001188002200230020FF21C4E90223C4E949
:107AA00004236170E06105B0BDE8F08F012005B0EE
:107AB000BDE8F08FDFF85C81D8F8043098422BD015
:107AC000FFF780FCD8F80430002BE0D104F078FAFE
:107AD000DFF83C81DFF840914B4D40F2E93704F08C
:107AE000C3FA0028D3D098E803000290ADF80C1038
:107AF000D9F8043003F0070310336B4413F808ACD3
:107B000004F012FA6A686B689B1A9A45FBD804F075
:107B100037FA013FE3D1BAE704F06CFA431C05469B
:107B20006BD004F077FAD8F804700190002F64D07D
:107B300007EE905ADFED356A07EE100AF8EE677A25
:107B4000B8EE477A67EEA67AC7EE877A17EE900A04
:107B50000CF0DAFF0346D7E90420D8F80850521B8E
:107B6000D8F80C5060EB05009A4270EB01053CBF61
:107B7000134601462269264FDFF89C90DFF888A063
:107B8000D31AC8F80830636963EB0103C8F80C30F6
:107B900004F016FA40F2E93504F066FAC8B197E845
:107BA00003000290ADF80C10D9F8043003F007037D
:107BB00010336B4413F808BC04F0B6F9DAF804206B
:107BC000DAF804309B1A9B45FAD804F0D9F9013D44
:107BD000E2D12046FFF7F6FBD8F80430002B3FF443
:107BE00056AFD3E90423D8F80800D8F80C10101ABF
:107BF00063EB0101FFF730FC49E700231946B9E7C1
:107C000000E100E000ED00E0001000E00024744915
:107C1000D8D40101A025013000C500A0012910B56C
:107C20001ED8E8B1E2B14378012B1BD0EFF3118EDF
:107C30000D4B93F8024303F54063DB68C3F3022363
:107C400003F1010C012303FA0CF3234483F311889D
:107C5000002343708170C2618EF31188184610BDF5
:107C6000012010BD062010BD00E100E089B108B17F
:107C70000AB910467047EFF3108C012383F3108884
:107C800002600022C0E90112C2608CF3108818461D
:107C900070470846704700BF2DE9F04704460E467E
:107CA000EFF31087012383F31088416861B32EB38B
:107CB000D0E9020398422DD2013B1B1A934228BF00
:107CC00013461D4600EB03089A464FF00009524642
:107CD000084431460DF0D6F860684A4606EB0A01C2
:107CE0000DF0D0F82368984528BFA8EB0308C4F826
:107CF000088087F310882846BDE8F087354687F36B
:107D000010882846BDE8F0870D4687F3108828467E
:107D1000BDE8F087D4F800904B44013B1B1A934216
:107D200028BF134600EB0308C1451D4605D8A9EB43
:107D3000080A9A44A8EB0909C9E79A464FF00009D6
:107D4000C5E700BF2DE9F0470B460446EFF3108767
:107D5000012181F31088416849B313B3D0E902903F
:107D600081452AD3A9EB0005954228BF154646193F
:107D7000AA464FF000080144524618460DF082F81A
:107D80006168424650440DF07DF82368B34202D842
:107D9000B14538BFF61AE66087F310882846BDE87B
:107DA000F0871D4687F310882846BDE8F0870D460A
:107DB00087F310882846BDE8F087D4F8008008EBE8
:107DC00009052D1A954228BF15464619B04505D814
:107DD000A8EB060AAA44A6EB0808CCE7AA464FF08F
:107DE0000008C8E770B1EFF31081012383F3108816
:107DF000D0E9023293423BBF0068C018981A801A3B
:107E000081F31088704700BFEFF31081012383F3E3
:107E10001088D0E902239A4224BF00681B18013B56
:107E2000981A81F310887047EFF31082012383F3CF
:107E3000108810B10023C0E9023382F31088704724
:107E4000F0B5044685B048B3038840F2023293424D
:107E500000F09D80A3F580639AB2042A1ED8042BFB
:107E60001CD8DFE803F041601B811D0020690CF085
:107E7000C9F92B6804464BB102280CBF0322042227
:107E80008DF805608DF8042001A8984706F10C03D1
:107E900025F813406946304602F08AF905B0F0BD76
:107EA000468A0779248A304600F07EF90028F5D00A
:107EB000704D714BA98D2046092200F039F9032835
:107EC00000F0B1800828E9D12B684BB1022E0CBF1D
:107ED000032204228DF805708DF8042001A898472C
:107EE0000C3725F81760D9E7067A624D624B0479A2
:107EF000A98D0922304600F01BF900230328ADF8B4
:107F000004608DF8083000F09E80082800F0A380FF
:107F10000122ADF806308DF8082001A9204602F0B4
:107F20003BF905B0F0BD077A524D534B0679A98D48
:107F30000922384600F0FCF800230338ADF8007041
:107F40008DF8023005286AD801A353F820F000BF4D
:107F5000F77F00011F800001D57F00011F80000115
:107F6000A77F00016D7E0001424B1B68002B95D05E
:107F7000827801798DF80510002A8FD1027A002AC3
:107F80008CD106228DF8042001A8984786E7394B4A
:107F900002791B688DF8052009218DF8041001A8CD
:107FA000984705B0F0BD002320698DF804308DF8A6
:107FB00005600CF029F9314B98422B6854D0002B06
:107FC0003FF468AF9DF80420002A3FF463AF01A896
:107FD00098475FE72B68002B3FF45CAF2169A289CB
:107FE0008DF8056005208DF804000291ADF80C2095
:107FF00001A898474EE720690CF004F92B68044665
:108000004BB101280CBF012202228DF805608DF8CA
:10801000042001A8984705EB4605AC803AE7012308
:108020008DF8023036E72B684BB1012E0CBF0122D0
:1080300002228DF805708DF8042001A8984705EB01
:108040004705AE802AE7A31C022205EB4305ADF8E5
:108050000620039561E704F10C03022205EB4305BA
:10806000ADF80620039558E707228DF80420002B71
:10807000ADD10FE7E8250130A0430030444F4F4712
:10808000104B70B5044603EB400084B08088012893
:108090000D46164602D01A2004B070BD998D0A4ACA
:1080A000002302208DF8043000F062F801A9034695
:1080B0002046ADF80630ADF80860039502F085F86B
:1080C00004B070BDE8250130A043003010B510B3F6
:1080D000124C03682046002140F83C3B1E220CF065
:1080E0006BFF2346002223F82C2F0D480D490E4A22
:1080F0002164C4E90C304FF0090C4FF4A07384F8EC
:108100003CC004F13000A263A4F85A300749BDE82E
:10811000104000F06DBE022010BD00BFE825013008
:10812000ACDE0101E4DD0101A0430030417E00012D
:108130000131012A30B505461FFA81FE15D901200B
:108140004FEAD00C00F0070113F80CC04CFA01F113
:10815000C90700F1010405D5754507D00EF1010EE0
:108160001FFA8EFEE0B28242EAD1002030BD00BF8D
:1081700030B5B8B10C46012300214FEAD30E03F00D
:10818000070C12F80EE04EFA0CFC1CF0010F03F184
:10819000010504D00134A4B2984208BF2146EBB2D5
:1081A0009842EAD2084630BD02288CBF0020012048
:1081B000704700BF10B5044638B100F057FD20B934
:1081C000024B1B680BB12046984710BD4426013076
:1081D00070B58AB005460E4614462422FF2101A838
:1081E0000CF0EAFE40F20153ADF80030ADF8026049
:1081F0008DF8045034F8043BADF808300394684619
:10820000FFF7D8FF0AB070BD70B58AB005460E46BC
:1082100014462422FF2101A80CF0CEFE40F20253A6
:10822000ADF80030ADF802608DF8045034F8043B2E
:10823000ADF8083003946846FFF7BCFF0AB070BD84
:1082400070B58AB005460E4614462422FF2101A8C7
:108250000CF0B2FE40F20353ADF80030ADF802600E
:108260008DF8045034F8043BADF8083003946846A8
:10827000FFF7A0FF0AB070BD70B58AB005460E4684
:1082800014462422FF2101A80CF096FE40F204536C
:10829000ADF80030ADF802608DF8045034F8043BBE
:1082A000ADF8083003946846FFF784FF0AB070BD4C
:1082B00070B58AB005460E4614462422FF2101A857
:1082C0000CF07AFE40F20553ADF80030ADF80260D4
:1082D0008DF8045034F8043BADF808300394684638
:1082E000FFF768FF0AB070BD70B58AB005460E464C
:1082F00014462422FF2101A80CF05EFE40F2065332
:10830000ADF80030ADF802608DF80450ADF80840CB
:108310006846FFF74FFF0AB070BD30B58BB0054619
:108320000C462422FF2101A80CF046FE40F2075320
:10833000ADF800300023ADF802308DF8045002ABE8
:1083400020686168A26807C36846FFF733FF0BB077
:1083500030BD70B58AB005460E4614462422FF2172
:1083600001A80CF029FE4FF4A063ADF80030ADF881
:1083700002608DF8045002AD20686168A268E3686D
:108380000FC520692860A38AAB801634089468461C
:10839000FFF710FF0AB070BD10B58AB00446242262
:1083A000FF2101A80CF008FE40F20273ADF8003086
:1083B0000023ADF802308DF804406846FFF7FAFE5E
:1083C0000AB010BD30B58BB005460C460A4B0022F2
:1083D0001A702422FF2101A80CF0EEFD40F2016387
:1083E000ADF80030ADF802508DF806406846FFF752
:1083F000E1FE0BB030BD00BF4926013030B58BB077
:1084000005460C462422FF2101A80CF0D5FD4FF4AF
:108410008063ADF800300023ADF802308DF80450D1
:108420002388ADF808306846FFF7C4FE0BB030BDB6
:1084300030B58BB005460C462422FF2101A80CF074
:10844000BBFD40F20143ADF800300023ADF802302F
:108450008DF8045020680290A388ADF80C300634E3
:1084600004946846FFF7A6FE0BB030BD30B58BB064
:1084700005460C462422FF2101A80CF09DFD40F288
:108480000243ADF800300023ADF802308DF80450FF
:108490002388ADF808306846FFF78CFE0BB030BD7E
:1084A00030B58BB0054614462422FF2101A80CF0FC
:1084B00083FD40F20343ADF800300023ADF80230F5
:1084C0008DF80450236802936846FFF773FE0BB0E3
:1084D00030BD70B58AB006460D4614462422FF21F1
:1084E00001A80CF069FD40F20443ADF80030002310
:1084F000ADF802308DF804604FF0FF33CDF80B304B
:10850000ADF81050ADF812406846FFF753FE0AB0C0
:1085100070BD30B58BB005460C462422FF2101A862
:108520000CF04AFD40F20473ADF800300023ADF8C2
:1085300002308DF804508DF805406846FFF73AFE8A
:108540000BB030BD30B58BB005460C462422FF2160
:1085500001A80CF031FD40F20373ADF800300023A8
:10856000ADF802308DF804508DF805406846FFF7ED
:1085700021FE0BB030BD70B58AB0054614460E46DC
:1085800009B16036F6B22422FF2101A80CF014FDD7
:1085900040F20173ADF80030ADF802608DF8045080
:1085A0008DF805406846FFF705FE0AB070BD70B54E
:1085B0008AB04FF6FF73ADF826304FF4E063ADF8A4
:1085C00000300023ADF802308DF804000B460DF1A9
:1085D000050220311E685D689C68D8681660556089
:1085E0009460D060103310328B42F3D11B7813703B
:1085F0006846FFF7DFFD0AB070BD70B58AB005466A
:108600000E4614462422FF2101A80CF0D5FC4FF49D
:10861000C063ADF80030ADF802608DF80450ADF8DD
:1086200006406846FFF7C6FD0AB070BD30B58BB096
:1086300005460C462422FF2101A80CF0BDFC40F2A7
:108640001123ADF80030ADF8025020680290A288E6
:10865000A379ADF80C208DF80E306846FFF7AAFD1F
:108660000BB030BD70B58AB005460E4614462422C4
:10867000FF2101A80CF0A0FC40F20A33ADF8003055
:10868000ADF802608DF8045002AB2068616803C346
:108690006846FFF78FFD0AB070BD70B58AB0054619
:1086A0000E4614462422FF2101A80CF085FC40F25E
:1086B0000933ADF80030ADF802608DF8045002AB1C
:1086C0002068616803C322891A806846FFF772FD3B
:1086D0000AB070BD70B58AB005460E461446242215
:1086E000FF2101A80CF068FC4FF44273ADF8003094
:1086F000ADF802608DF8045020680290A388ADF8B0
:108700000C306846FFF756FD0AB070BD30B58BB02F
:1087100005460C462422FF2101A80CF04DFC40F236
:108720000633ADF800300023ADF802308DF8045068
:1087300002AB2068616803C36846FFF73BFD0BB0DE
:1087400030BD70B58AB005460E4614462422FF217E
:1087500001A80CF031FC40F20533ADF80030ADF863
:1087600002608DF8045020680290A388ADF80C30A8
:108770006846FFF71FFD0AB070BD30B58BB00546E7
:108780000C462422FF2101A80CF016FC40F207330E
:10879000ADF800300023ADF802308DF8045002AB84
:1087A0002068616803C3083404946846FFF702FD3B
:1087B0000BB030BD00B58BB02422FF2101A80CF016
:1087C000FBFB4FF44173ADF800300023ADF80230ED
:1087D0006846FFF7EFFC0BB05DF804FB10B58AB0FC
:1087E00004462422FF2101A80CF0E6FB40F20333EB
:1087F000ADF80030ADF802406846FFF7DBFC0AB088
:1088000010BD70B58AB005460E4614462422FF21DD
:1088100001A80CF0D1FB40F20233ADF80030ADF806
:1088200002608DF804508DF808406846FFF7C2FCDE
:108830000AB070BD70B58AB004460E4615462422B3
:10884000FF2101A80CF0B8FB40F20133ADF8003075
:10885000ADF802608DF8044002AC28686968AA6827
:10886000EB680FC42B8A23806846FFF7A3FC0AB08D
:1088700070BD10B58AB004462422FF2101A80CF077
:108880009BFB4FF40473ADF800300023ADF80230C9
:108890008DF804406846FFF78DFC0AB010BD30B576
:1088A0008BB004460D462422FF2101A80CF084FB66
:1088B00040F20F23ADF80030ADF802508DF80440BF
:1088C0006846FFF777FC0BB030BD70B58AB006463E
:1088D0000C4615462422FF2101A80CF06DFB40F246
:1088E0000E23ADF80030ADF8024002AC286869688C
:1088F000AA68EB680FC48DF804606846FFF75AFC5D
:108900000AB070BD30B58BB004464FF0FF33019311
:1089100040F20D23ADF800300023ADF8023002AD77
:1089200000686168A268E3680FC520696169A2698F
:1089300007C51C3409946846FFF73CFC0BB030BDFA
:1089400030B58BB005460C462422FF2101A80CF05F
:1089500033FB4FF40373ADF80030ADF802508DF8DF
:1089600008406846FFF726FC0BB030BD10B58AB052
:1089700004462422FF2101A80CF01EFB40F20B2329
:10898000ADF80030ADF802406846FFF713FC0AB0BE
:1089900010BD10B58AB00C462422FF2101A80CF0AE
:1089A0000BFB40F20A23ADF80030ADF802406846F8
:1089B000FFF700FC0AB010BD10B58AB00C462422A7
:1089C000FF2101A80CF0F8FA40F20923ADF80030BD
:1089D0000023ADF8023020680290A288A379ADF898
:1089E0000C208DF80E306846FFF7E4FB0AB010BD8E
:1089F00070B58AB005460E4614462422FF2101A810
:108A00000CF0DAFA4FF40273ADF80030ADF8026002
:108A10008DF804508DF808406846FFF7CBFB0AB08C
:108A200070BD30B58BB004460D462422FF2101A84D
:108A30000CF0C2FA40F20723ADF80030ADF8025056
:108A40008DF804406846FFF7B5FB0BB030BD30B57C
:108A50008BB005460C462422FF2101A80CF0ACFA8D
:108A600040F20623ADF80030ADF8025002AB2068AA
:108A70006168A26807C3A2891A806846FFF79AFB5B
:108A80000BB030BD70B58AB005460E4614462422A0
:108A9000FF2101A80CF090FA4FF44073ADF80030BC
:108AA000ADF802608DF804502388ADF808306846B0
:108AB000FFF780FB0AB070BD30B58BB005460C46A1
:108AC0002422FF2101A80CF077FAADF80250002C07
:108AD00040F2052308BF4FF40173ADF8003068463B
:108AE000FFF768FB0BB030BD30B58BB005460C46C8
:108AF0002422FF2101A80CF05FFA4FF6FF73ADF8B6
:108B00000030ADF80250032C07D8DFE804F0020B68
:108B100010154FF40073ADF800306846FFF74AFBBC
:108B20000BB030BD40F20123ADF80030F5E740F264
:108B30000223ADF80030F0E740F20323ADF8003037
:108B4000EBE7000000B58BB00A4B01221A7024221B
:108B5000FF2101A80CF030FA4FF48073ADF800301B
:108B60000023ADF802306846FFF724FB0BB05DF838
:108B700004FB00BF4826013008B5074B1B783BB902
:108B800041B1064B186006480AF0B4F8002008BD51
:108B90000F20FCE70220FAE7482601304426013086
:108BA00030440030F0B58BB02E4B1A782E4B1C6839
:108BB000002C34D02379934233D02468002CF9D18F
:108BC0000C204CE0D4F810C0DCF8086026B39CF808
:108BD0000C70012F98BF00220FD900220123D90861
:108BE000715C03F00700014111F0010F1CBF01325D
:108BF000D2B20133DBB2BB42F1D1DCF800301B88CA
:108C00002381DCF8001009880A4492B26281ADF831
:108C10000830ADF80A2019E09CF80C20EDE70C2094
:108C20001DE023691B68E2881A80206961F492D4F0
:108C300005462422FF2101A80CF0BEF940F20543AD
:108C4000ADF80030ADF80250002DBBD0E3680BB199
:108C500068469847034A137801331370E8B20BB0A3
:108C6000F0BD00BF49260130542601302DE9F04106
:108C70000446002800F0AD80038840F2044293428D
:108C800014D8B3F5806F09D3A3F58063042B00F2E9
:108C9000A280DFE803F0495052545600A3F201339A
:108CA0009BB2012B25D90020BDE8F081B3F5A16F5F
:108CB00011D2B3F5A06F5BD80BD101F04BFC4A4B3E
:108CC0001D68002D00F08B80267AB04604F109075C
:108CD0003BE00020E8E740F20162934205D1434BBC
:108CE0001D68002D55D10020DEE740F2017293424D
:108CF00073D13E4B1D683DB93B4B1D6865B90020E3
:108D0000D2E72D68002DF7D0EB68002BF9D0204674
:108D10009847F6E72D682DB1EB68002BFAD0204676
:108D20009847F7E70020BFE702894FF6FF739A42A2
:108D300037D10020B8E70289F7E70289F5E74289D1
:108D4000F3E7028AF1E72D6885B12B79B342FAD1B6
:108D500042463946A8680CF061F80028F3D1EB6868
:108D6000002B3ED02046984700209DE700209BE73F
:108D70001D4B1D681DB9002096E72D682DB1EB68CD
:108D8000002BFAD020469847F7E700208CE72D68A3
:108D90002DB1EB68002BFAD020469847F7E700206A
:108DA00082E7124B1B681BB901207DE71B6873B17A
:108DB00019899142FAD859899142F7D3DB68012089
:108DC000002B3FF471AF2046984701206CE701204B
:108DD0006AE7002068E7002066E7002064E70020DB
:108DE00062E7002060E700BF4C26013054260130C6
:108DF00070B50D460646C8B10E4865F4B5D384B2C9
:108E00000CB1204670BD142073F428D080B10661E7
:108E100032681288C280C56007490A78027101323F
:108E20000A70064A116801601060EAE70224E8E768
:108E30001024E6E7BCDE0101502601305426013043
:108E400008B50346092807D8074A32F830004FF61C
:108E5000FF72904200D008BD044A1021002003F4A4
:108E60009DD74FF6FF70F6E72A278000C8DE010184
:108E7000F0B5ADF5117D0D461C0A20465FF4AAD76A
:108E8000074620465FF4A6D7504B514A002818BF2A
:108E90001346009323464F4A1021002003F47ED747
:108EA000FF2C03D100200DF5117DF0BD2B884A4E1B
:108EB00033806B887380AB88B380EB88F3802B7A28
:108EC00033726B7A737237742B4653F80A2FC6F8D5
:108ED0000A209B88F381414B03EBC402002143F835
:108EE000341051602A8823F8342040F291122BA8C4
:108EF0000CF062F82BA85CF495D4737A012B04D1A2
:108F0000F37B03F0C003402B25D005F10A0632465F
:108F1000697A204671F450D23246697A204601F0CF
:108F200083FA002F43D12E4B032283F8A820D3F8D5
:108F3000AC301B78012BB5D1002067F4A1D1294BAF
:108F40001B682BB19B6B1BB1234A0021204698471D
:108F500067F4CCD1A6E7224B93F81C3113F0040F31
:108F6000D3D09DF8AC60002ECFD0A022002103A862
:108F70000CF022F803AB0DF1B50206F1FF3C5FFAED
:108F80008CFC07A901EB0C1C176855689068D16828
:108F90001F605D609860D960103328326345F3D15B
:108FA000334603AA104920466AF4ACD07AE7002081
:108FB00067F466D10B4B1B682BB19B6B1BB1064A48
:108FC00000212046984767F491D16BE7E8DE010164
:108FD000F0DE0101F8DE0101182780002A27800059
:108FE0007C2780009821800022278000F8B50E465B
:108FF000EFF311871E4A92F8021302F54062D2681D
:10900000C2F302220132012000FA02F20A4482F382
:1090100011881C0A174B03EBC402002543F8345097
:1090200055604FF6FF7223F8342087F31188B37828
:10903000114A1021284603F4B1D6204671F454D2C7
:1090400020466BF4C9D6204671F456D1284667F401
:1090500017D10A4B1B683BB1DB6B2BB1B278703A6E
:10906000D2B229462046984767F440D10020F8BD87
:1090700000E100E02A2780002CDF01019821800018
:1090800070B584B00C464E781D0A02960A7801929B
:1090900000955B4B5B4A1021002003F47FD62278B9
:1090A000013A182A35D8DFE802F098344F4F3434AB
:1090B0001F1F65340D343434343434343482343442
:1090C000391F1F006378222B23D1002067F4D8D0EA
:1090D0004D4B1B682BB15B681BB100220F2128464A
:1090E000984767F403D114E067F4C0D70446474BB0
:1090F00003EBC5030020587167F4C2D0444B1B68D2
:109100002BB15B6D1BB1224631462846984767F468
:10911000EDD067F4B1D7002004B070BD67F4A6D7D6
:1091200004463A4B03EBC5030020187167F4A8D03E
:10913000374B1B682BB19B681BB122463146284632
:10914000984767F4D3D0E4E767F490D704462F4BF1
:1091500003EBC5030020987167F492D02C4B1B6879
:109160002BB19B6D1BB1224631462846984767F4C8
:10917000BDD0CEE767F47AD70446244B03EBC50392
:109180000020987067F47CD0214B1B6863B1DB6CC6
:1091900053B12EB944B1224600212846984703E036
:1091A000224631462846984767F4A0D0B1E767F4D5
:1091B0005DD70446154B03EBC5030020D87067F458
:1091C0005FD0134B1B682BB1DB6D1BB122463146C0
:1091D0002846984767F48AD09BE76378002B98D09D
:1091E000002067F44DD00A4B1B682BB1DB6B1BB121
:1091F000002261782846984767F478D089E700BF55
:109200007CDF010148DF0101EC2380002A27800078
:1092100098218000F8B50C46194623781BB1012B24
:1092200026D00020F8BD022340F60D6062F482D300
:1092300005460028F5D06388F82B07D948234370EA
:1092400023782B70284662F4BBD3EAE700234370EF
:10925000271D3A46A178022009F06EFB0C4E628869
:10926000394630460BF00EFE638806F8013CE7E70E
:10927000022340F60D6062F45DD30028D1D022783D
:1092800002706188034AA2F8701262F499D3C8E7A9
:10929000F42880007C278000F0B585B00446EFF309
:1092A00011867B4B93F8022303F54063DB68C3F31D
:1092B00002230133012101FA03F3134483F31188DC
:1092C00067F414D00546734F97F8A5200094724BAD
:1092D00053F82230714A1021002003F45FD58DF835
:1092E0000D4097F8A530092B00F2CB80DFE803F0A2
:1092F0000520C9C9C930435D647268F463D3654B06
:10930000012283F8A520002283F8A820614B93F85E
:10931000A520614B53F82230614A1021002003F44C
:109320003DD5284666F4ACD786F3118805B0F0BD6C
:10933000002CEBD0574B002083F8A50083F8A60043
:109340000C238DF80C300DEB030167F495D0DDE7AD
:10935000504B93F8A630A22B06D068F421D54D4B84
:10936000092283F8A520D1E76AF4ECD3494B062201
:1093700083F8A520CAE75CB168F412D5454B0922F1
:1093800083F8A520042283F8A82083F8A940BDE72C
:10939000404B072283F8A5200C238DF80C300DEBF1
:1093A0000301002067F468D0B0E76AF41DD5394B9B
:1093B000082283F8A520A9E7002CA7D0354B072267
:1093C00083F8A5200D238DF80C3003A9002067F445
:1093D00053D09BE72F4B002283F8A520FF2283F870
:1093E000A42093F8A830042B21D0062B2FD0012BDA
:1093F00038D0032B8AD1274B002283F8A820D3F83A
:10940000AC301B78012B81D0104666F439D7254B40
:109410001B684BB19C6B3CB1234F38886CF402D273
:109420003A460021C0B2A04766F460D76EE7194BF8
:10943000002083F8A8000C228DF80C2093F8A930A6
:109440008DF80D300DEB020167F416D05EE70020B9
:10945000104B83F8A8000D238DF80C3003A967F496
:109460000BD053E700200B4B83F8A80066F408D715
:109470000C4B1B6813B15B6C03B1984766F436D78D
:1094800044E74FF477720949094813F029FE3DE794
:1094900000E100E07C2780002822800098DF0101A5
:1094A000D4DF01019821800018278000CCDF010162
:1094B000BCE901012DE9F041CAB006238DF827313E
:1094C000B04B032283F802210F2283F803210022EC
:1094D00083F8312183F830214FF40072A3F828215A
:1094E000A3F82A210A2283F82C21FB22A3F82421A5
:1094F00040F64802A3F8262148AA0DF227110120C0
:1095000009F080F900282DD19E4B002283F81C2100
:109510009C4B4FF46172A3F80421B3F8222142F06E
:109520008002A3F8222142A84AF404D74298439B20
:1095300018440BF0FDFD00233E933F93409341936D
:1095400044A809F0ABFD00287ED110223EA944A812
:109550000BF064FC002877D08B4C44AB0FCB84E835
:109560000F0074E044A809F099FD0028CCD1854B88
:10957000012283F81C21854B1B788BB39DF8103199
:10958000412B1BD07F4B9DF81A2183F806219DF8B3
:109590001D2183F807219DF81E2183F808219DF8DD
:1095A0001F2183F8092109F0EBFE764B83F80A01AD
:1095B000000A60F03F0083F80B01A9E7714B9DF8AA
:1095C000182183F806219DF8192183F807219DF8B9
:1095D0001A2183F808219DF81B2183F80921E2E76D
:1095E0009DF81031412B1BD0664B9DF81A2183F852
:1095F00008219DF81D2183F809219DF81E2183F87B
:109600000A219DF81F2162F03F0283F80B2109F027
:10961000B7FE5C4B83F80701000A83F8060177E781
:10962000584B9DF8182183F808219DF8192183F8DB
:1096300009219DF81A2183F80A219DF81B2162F067
:109640003F0283F80B21E2E74F4870F401D64FF454
:10965000B57200214E480BF0AFFC4722002101A853
:109660000BF0AAFC01A85CF46FD068B99DF8043037
:10967000484A1021002003F491D39DF8043043B1EF
:109680000025434C444E42E0444A1021002003F49C
:1096900085D34AB0BDE8F081237803EBC3039B0078
:1096A0000233E2183968E150B988BB79918093712F
:1096B0009DF84C3013F0080F42D0237803EBC3031E
:1096C00004EB8303DDF89200DDF89610DDF89A20B4
:1096D000DDF89E70C3F80A00C3F80E10C3F812201C
:1096E000C3F81670DDF8A200DDF8A610DDF8AA2098
:1096F000C3F81A00C3F81E10C3F8222023780133E0
:10970000237001359DF80420EBB29A42C1D9AC22F6
:10971000002113A80BF050FC5FFA85F8C8EBC807CE
:10972000013701AB1F4413A938465CF4C5D00028AB
:10973000B2D0434632461021002003F42FD3E0E795
:10974000237803EBC30304EB8303DDF87600DDF835
:109750007A10DDF87E20DDF88270C3F80A00C3F8C5
:109760000E10C3F81220C3F81670DDF88600DDF87D
:109770008A10DDF88E20C3F81A00C3F81E10C3F853
:109780002220BBE77C27800088288000C827013082
:109790005826013018E001012CE00101F8DF010139
:1097A000034B044A1A60044B044A1A60704700BF16
:1097B0000C228000B59400011822800099920001CB
:1097C000F0B583B004460D46EFF311877E4B93F856
:1097D000022303F54063DB68C3F302230133012155
:1097E00001FA03F3134483F3118866F47FD5064628
:1097F000042C5AD8002D5FD0C4EBC403734A02EB8B
:109800008303DB68002B57D0C4EBC4036F4A02EB21
:1098100083035B7A002B56D1C4EBC4036B4A02EB83
:1098200083031B69002B5FD0C4EBC403674A02EBC0
:109830008303DB685A8812F0020F40F08A8019789F
:10984000022900F08B8012F0080F05D02A88013A17
:1098500092B27F2A00F292805B78022B00F0958012
:10986000C4EBC403594A02EB8303DB69002B00F00D
:109870009B80C4EBC403554A02EB8303DB692A686F
:109880001A602146002066F48DD6002500952346F7
:109890004F4A1021002003F481D2304666F4F0D400
:1098A00087F31188284603B0F0BD4A4A10210020F2
:1098B00003F474D21525E9E7474A1021002003F488
:1098C0006DD20225E2E764F46BD4C4EBC4033F4AD3
:1098D00002EB83035B7A002B9ED0404A10210020CC
:1098E00003F45CD20F25D1E7C4EBC40302EB83037E
:1098F000DB681A7852B95A8812F0040FA3D1384A9B
:109900001021002003F44AD22325BFE7012A19D1F0
:109910005A8812F0020F0ED0C4EBC4012B4800EBA2
:109920008101496900298ED12E4A1021002003F4BB
:1099300035D22525AAE72C4A1021002003F42ED287
:109940002325A3E7294A1021002003F427D2232549
:109950009CE7197801297FF472AFDDE7C4EBC401FD
:109960001A4800EB8101896900297FF46CAF204A15
:109970001021002003F412D2242587E71D4A10216C
:10998000002003F40BD2262580E72B88013B9BB2F5
:1099900044F24F6293427FF663AF174A10210020D2
:1099A00003F4FCD1262571E70021042061F49CD743
:1099B000C4EBC403054A02EB8303D86100287FF49B
:1099C00058AF102562E700BF00E100E07C2780006F
:1099D000D4E001015CE0010168E0010174E00101F3
:1099E00080E00101A4E001018CE0010198E00101A7
:1099F000B0E00101BCE00101C8E00101F8B5044696
:109A00000E46EFF31187174B93F8022303F54063DB
:109A1000DB68C3F302230133012101FA03F313448A
:109A200083F3118866F462D40546092C07D9032410
:109A3000284666F425D487F311882046F8BD210214
:109A400002234B2241F0080140F6046061F472D712
:109A500030B101220270467061F4B2D70024E7E70A
:109A60001024E5E700E100E010B582B00C468B78E9
:109A700001934A78644B53F8223000930B78634A81
:109A80001021002003F48AD16378032B71D8DFE81A
:109A900003F002607D98207868F400D6C3B2C3EB6F
:109AA000C3015B4A02EB810205215172A278452A6B
:109AB00020D0C3EBC302564901EB820292F820206A
:109AC000013AD2B2012A36D9C3EBC30201EB8202BA
:109AD000032182F82010C3EBC3034D4A02EB83033A
