:020000040100F9
:1020000000000430092D000139290001255000305D
:10201000292900012D2900013129000100000000BB
:1020200000000000000000000000000039500030F7
:102030003529000100000000F13E0001553F00017C
:102040000000000000000000000000000000000090
:102050000000000000000000000000000000000080
:102060000000000000000000000000000000000070
:102070000000000000000000000000000000000060
:102080000000000000000000000000000000000050
:102090000000000000000000000000000000000040
:1020A0000000000000000000000000000000000030
:1020B0000000000000000000000000000000000020
:1020C0000000000000000000000000000000000010
:1020D0000000000000000000000000000000000000
:1020E00000000000000000000000000000000000F0
:1020F00000000000000000000000000000000000E0
:1021000000000000000000000000000000000000CF
:1021100000000000000000000000000000000000BF
:1021200000000000000000000000000000000000AF
:10213000000000000000000000000000000000009F
:10214000000000000000000000000000000000008F
:10215000000000000000000000000000000000007F
:10216000000000000000000000000000000000006F
:10217000000000000000000000000000000000005F
:10218000000000000000000000000000000000004F
:10219000000000000000000000000000000000003F
:1021A000000000000000000000000000000000002F
:1021B000000000000000000000000000000000001F
:1021C000000000000000000000000000000000000F
:1021D00000000000000000000000000000000000FF
:1021E00000000000000000000000000000000000EF
:1021F00000000000000000000000000000000000DF
:1022000058585247010000001555000000200001F9
:10221000002000016EED52490101000000000000A5
:1022200000000000000000000000000000000000AE
:10223000000000000000000000000000000000009E
:1022400010B5054C237833B9044B13B10448AFF3F0
:1022500000800123237010BDE0B4003000000000B6
:102260008C00020108B5034B1BB103490348AFF3CF
:10227000008008BD00000000E4B400308C000201C2
:1022800008B503F07DFF642001F03EF9F9E700BFD7
:1022900080B5154CDFF858A0DFF85890DFF858806B
:1022A00088B0204604F086FB01F014FA94F801E0AF
:1022B00094F803C0277922780C4907920646A07843
:1022C0005925CDE9050ECDE9037C4B464246022057
:1022D000CDE901A6009503F05BF803F0B5F94FF4E2
:1022E0007A7001F011F9DCE780D40030E4D7010105
:1022F000ECD701014CD80101D0D7010110B5134C26
:10230000134A226041F20C5382B0A380002004F0F3
:102310001BFB204604F03AFB00240920CDE9000411
:1023200023460C490C48802200F0D6FD0823CDE955
:1023300000340A490A4823464FF4006200F0CCFDFD
:10234000204602B0BDE8104000F0BCBE80D4003092
:102350000000010120D80101912200012CD80101C7
:102360008122000100B583B000F018F80749084841
:1023700000F0A6FC0023CDE90033064906484FF4DF
:10238000007200F0A9FD00F015FFFEE700400030EC
:10239000B125000140D80101FD22000108B5094A1C
:1023A00006214CF2010010F08DFD00F0B3F900227F
:1023B0004FF08371104603F051FDBDE80840022044
:1023C00076F450945CD8010170B592B00BA800F07F
:1023D000B5FA0C99BDF82E309DF82D20684E694D48
:1023E000CDE904319DF82C306749CDE902324FF434
:1023F000BC72CDE90021334664492A46022002F02E
:10240000C7FF09A863F4D4D50346002864D19DF81A
:1024100024209DF825309DF82610CDE906329DF840
:1024200027309DF82820CDE904319DF829305849FE
:10243000CDE9023240F27D12CDE90021504B514AE4
:102440005249022002F0A4FF52494D4B4FF4C27290
:10245000CDE9002102204B4A4C4902F099FF0020AF
:1024600003F03AFD002065F46BD24B490D220020A9
:1024700007F0BAFB0346002873D1484A4FF0A01377
:10248000C2F80A300723002493734FF4807313803B
:1024900021462046947063F4CBD60346002853D1DE
:1024A000002118233E4A084663F43AD60346002822
:1024B0003CD10F233B4A0121002063F431D603466F
:1024C00030BB3949002420460C808C7006F0A0FFF8
:1024D000034678B912B070BD00220E920D920DA87D
:1024E0004FF4BE72CDE90F56ADF83830119202F0BC
:1024F000B5FB8CE74FF4C5720DA8CDE90D44CDE9CD
:102500000F56ADF83830119202F0A8FB12B070BD32
:1025100000220E920D92254AADF838300DA8842382
:10252000CDE90F52119302F099FBCAE700220E92F7
:102530000D921E4AADF838300DA88123CDE90F5217
:10254000119302F08BFBB4E7184ACDE90D440DA8B6
:10255000ADF838307E23CDE90F52119302F07EFBA7
:102560009EE700220E920D92104AADF838300DA869
:102570007423CDE90F52119302F070FB7DE700BF89
:10258000A0D9010164D801017CD80101E4D701017F
:10259000A4D80101D0D80101F4D8010144FB0030D6
:1025A000F4D901010CDA010158FB003090D9010186
:1025B00030B5038840F2013293428FB04CD013D82B
:1025C00040F2072293425FD0B3F5027F04D1037A31
:1025D000002B6FD00FB030BDB3F5807FFAD10FB0B4
:1025E000BDE83040FFF7F0BE40F2063293425AD0C9
:1025F00040F20752934209D1037A012BEAD1818933
:1026000000790FB0BDE8304007F0ECBB40F2023279
:102610009342DFD1017A2D4B2D4C2E4D9622CDE9E0
:10262000013100922C4923462A46022002F0B0FED6
:102630002A49002006F0ECFE01460028CAD00023FB
:102640000A93099309A89923CDE90B54ADF82810F2
:102650000D9302F003FBBDE7817CC27C057D437DC9
:102660001F4CCDE90621817DC27D9E20CDE902214E
:10267000CDE90435CDE900041A4B164A164902206B
:1026800002F086FE0FB030BD41880029A2D0164C62
:10269000164B104AB820CDE9014100900E490320A5
:1026A00002F076FE96E7007901210FB0BDE83040D8
:1026B00064F47A920E4C0D4B064A0749BF20CDE9CF
:1026C0000004032002F064FE84E700BF78D9010112
:1026D000B0D9010164D80101E4D7010158FB0030F1
:1026E00040D90101CCD9010104D90101E4D901018A
:1026F00028D90101704700BF704700BF0A464FF458
:102700007A730146002004F0D9BA00BF002004F01B
:10271000FDBA00BF2DE9F0433E483F4A3F4991B022
:102720004FF48063CDE90123836040F205230382E7
:1027300083804FF4E13300240325012601AA0364BA
:102740004FF40063C0E91154C0E9134404704665B6
:1027500006760673436104F0EFF9314B314A324992
:10276000CDF81A3001A84FF0100940F202280727CF
:102770008DF8045002F0DEFD02F06AFA01A905208E
:10278000CDF80490ADF808808DF80A7003F0E0FDF4
:1027900001A90420CDF80490ADF808808DF80A70E6
:1027A00003F0D6FD4FF480538DF80E4002220293C1
:1027B0004FF4004040F20513042405210890ADF8C1
:1027C0000C30ADF81830ADF82430ADF830308DF85D
:1027D00032200E92ADF83C308DF83E404FF48043ED
:1027E000124A8DF81A6001A84FF400548DF80410B5
:1027F0008DF810108DF81C108DF826508DF834507F
:102800008DF8281005940B9302F068FB11B0BDE819
:10281000F08300BF5CFF00305CFB0030F526000158
:102820001D0101010D270001FD260001F92600010F
:102830002DE9F04782B003460168D0F80C80019181
:10284000D0E901A92748D3E90474D3E9066512F059
:10285000AFFF254812F0ACFF0199244812F046FF63
:102860005146234812F042FF4946224812F03EFFEB
:102870004146214812F03AFF3946204812F036FF0F
:1028800021461F484FF0E02412F030FF31461D482A
:1028900012F02CFF29461C4812F028FFD4F8381DEE
:1028A0001A4812F023FFD4F8281D194812F01EFF11
:1028B000D4F82C1D174812F019FFD4F8301D164813
:1028C00012F014FFD4F83C1D144812F00FFF144B03
:1028D0001448596A12F00AFF034812F069FF02F027
:1028E000B3FEFEE71CDA010138DA01015CDA01010E
:1028F00068DA010174DA010180DA01018CDA010180
:1029000098DA0101C8DA0101ECDA0101F8DA010113
:1029100004DB010110DB01011CDB010128DB0101EB
:1029200000ED00E034DB0101FEE700BFFEE700BF81
:10293000FEE700BFFEE700BFFEE700BF024A034616
:1029400003CA18605960704768DB0101024B103000
:1029500043F82010704700BF00410030014B196060
:10296000704700BFC4000130024B1B6803B1184719
:10297000704700BFC400013010B5054C012120464E
:1029800010F0A4F920460121BDE8104010F03CB839
:1029900000F00F0110B5714B5A68100682B000F1BB
:1029A000D0805B68590600F1CC806C4B5B6C5A069A
:1029B00004D56B4A137843F004031370694B6A4CD7
:1029C00040F25F109847002301205A0903F01F01CD
:1029D0006032013300FA01F1222B44F82210F4D1C5
:1029E000002011F023F800200DF00EFE014600201B
:1029F0000DF000FE01200EF063FC5C48012110F098
:102A000003F8002840F0A68064200DF04BFD002361
:102A10004FF4FA72184601210DF05AFD0EF09CF9A0
:102A20000EF038FC4D4A53685B070ED0536850498E
:102A30000B4043F4002343F00503536000BF00BF85
:102A400000BF00BF53680B4053604A4B4A4A1A60AC
:102A500076F4D0D200200EF0A7FB484B3F4C484AFA
:102A600093E80300ADF804100090636803F00703D7
:102A700008336B4413F8084C02FB04F409F0D0FD52
:102A8000404A516853685B1A9C42FBD809F0F4FD38
:102A90001AF02EFE10F0C6FE3B4BD3F8102242F483
:102AA0008022C3F81022D3F8082222F48022C3F82F
:102AB0000822D3F8102222F48012C3F81022D3F88F
:102AC000082242F48012C3F80822D3F8102242F4FC
:102AD0000002C3F81022D3F8082222F40002C3F83F
:102AE0000822D3F8102242F48002C3F81022D3F84F
:102AF000082222F48002C3F80822D3F8102242F4FC
:102B00000012C3F81022D3F8082222F40012C3F8EE
:102B10000822D3F8102242F40022C3F81022D3F87E
:102B2000082222F40022C3F8082247F2305003F0B2
:102B3000F3FB00200EF08CFA02B0BDE8104003F069
:102B4000C5BE124B9847124B9847124B9847124BF1
:102B500098472AE7FFF710FF56E700BF00C500A01F
:102B6000C0000130A150003000E100E000F00F0192
:102B7000F8FFE3FFC84100300090D00348DB0101BB
:102B8000A0860100001000E000E000A051500030DD
:102B9000415000308150003061500030BFF35F8FF2
:102BA000044B054A9968096811609A60BFF34F8F1A
:102BB000704700BF00ED00E000410030BFF35F8FC1
:102BC000044B054A9968096811609A60BFF34F8FFA
:102BD0000EF066BB00ED00E00041003008B50E4B82
:102BE0001B6E4FF275129BB2934211D002200FF070
:102BF00085F903F0CDFA00B9FEE70DF0DFFCFFF731
:102C0000C9FE08F031FE054A054B12681A6008BD7E
:102C100009F046FCFEE700BF00C500A0002000014F
:102C2000BC000130052810B425D814494B6803F0C6
:102C3000070383421DD04A68114C224042F400220F
:102C400042F005024A6000BF00BF00BF00BF0D4A4E
:102C50004B6852F820202340034343EA82434B60F1
:102C6000094A0A4B52F820205DF8044B1A6076F4AA
:102C7000C1911846F4E75DF8044B704700C500A009
:102C8000F8FFE3FF50DB010170DB0101C8410030B8
:102C9000024B5B6803F007030370704700C500A098
:102CA000044B05495B68054A03F0070351F82330DC
:102CB0001360704700C500A070DB0101C8410030FF
:102CC00038B504460D460D48242109F06DFF0C4827
:102CD0000A210DF03FF803210A4808F033FC07F001
:102CE00089FC052007F0B0FC07F09CFC07F0A6FC6F
:102CF00029462046BDE8384005F066BD3442003024
:102D0000E4410030CC41003000F03EF800F030F8F3
:102D1000FEE700BF08B5FFF741FF10F0D9F9BDE8A5
:102D20000840FFF75BBF00BF08B50C490C4A0D4BCC
:102D30009A42BEBF51F8040B42F8040BF8E70A4967
:102D40000A4A00209142BCBF41F8040BFAE7FFF7A2
:102D5000E1FFBDE80840FFF705BB00009800020155
:102D60000040003090B40030E0B40030647C0130AA
:102D700008B575F4BDD618B9BDE80840FFF7D4BF53
:102D8000FFF71CFFFEE700BF034AD2F8883043F488
:102D90007003C2F88830704700ED00E02DE9F04F75
:102DA000444B1D68013583B01D60002D45D0424B5A
:102DB00001931B689D4257D3404EDFF8148133685E
:102DC000DFF810911C68002C6FD03D4F00244FF0AD
:102DD000010A24E0009101F07DFADBF82820009937
:102DE0000BF1180012B101F075FA0099DBF82C0014
:102DF0003B680AFA00F200EB80001A4308EB8000FF
:102E00003A6001F03FFAD9F800203068DBF82C1066
:102E1000D26A0368914228BF0124002B45D0336851
:102E2000DB68D3F80CB0DBF804200BF10401954209
:102E30000846CFD2019B1A601BE0204B214A18683C
:102E400011681960204910600A6801320A601A6826
:102E5000126812BB184B01931A464FF0FF331360F0
:102E600013461B689D42A7D2DFF86480DFF86490A8
:102E70000024D9F800301549DB6A03EB83039B007B
:102E800058F803200B68022A28BF0124002B0CBF2E
:102E90002046012003B0BDE8F08F1B68064ADB68BE
:102EA00001921B681360134683E7019A4FF0FF33CA
:102EB0001360DEE73C020130F0010130CC0001304C
:102EC000C0010130D0000130F40101304002013076
:102ED000D4000130C80001302DE9F84F4FEA8209D3
:102EE0000746484692460D46984601F0BFF806460A
:102EF000002800F08880702001F0B8F8044600280F
:102F000000F08E8006634A463046A52112F09CFBF5
:102F1000266BC4F854A0002D00F08B8005F1FF3C17
:102F200005F11F0104F1330301E08C4505D01CF8C5
:102F3000015F03F8015F002DF7D1002384F85330BF
:102F40000A9D092D28BF09254FF0000B04F1040A42
:102F5000E56225665046C4F864B0A9F1040901F0A1
:102F60008DF9B14404F11800C5F10A0501F086F9A4
:102F7000A56124616462C4F868B084F86CB042460C
:102F8000394629F0070000F083FF0B9B206003B156
:102F90001C6000F091FF3E4A3E4E136801331360FF
:102FA0003368002B48D03C4F3B6883B3E06ADFF8BE
:102FB00010813A4D3A4A2B68D2F800C001332B6099
:102FC0000125A36505FA00F300EB800043EA0C033A
:102FD000514608EB8000136001F054F900F07CFFCB
:102FE0003B681BB33268E36AD26A9A421ED24FF042
:102FF000E0234FF08052C3F8042DBFF34F8FBFF38F
:103000006F8F284601E04FF0FF30BDE8F88F33683E
:10301000E06ADB6ADFF8A880834298BF3460C8E7C3
:10302000304601F0CFF84FF0FF30EEE72846BDE81C
:10303000F88F84F8345083E734601368012B04D090
:10304000E06ADFF87C80144FB3E7DFF87480454610
:1030500008F1C8072846143501F004F9AF42F9D148
:10306000104F114D384601F0FDF8284601F0FAF8EE
:103070000E4801F0F7F80E4801F0F4F80D4801F0A1
:10308000F1F80D4BE06A1F600C4B034F1D6090E799
:10309000B0010130C800013010020130BC01013024
:1030A000C0010130C4010130D8010130FC01013000
:1030B0002802013014020130CC000130D000013070
:1030C000D400013070B50446304D00F0F5FE002C00
:1030D00045D0261D304601F0FDF838B9E26A2C498A
:1030E00002EB82039B00CB58002B30D0A36A1BB1AC
:1030F00004F1180001F0EEF8264A1368013313605A
:103100002B68A34238D0244A24491368013B13603A
:103110000B681B68B3B10A68214BD26812681A6049
:1031200000F0DAFE2B68A34205D0206B01F04AF8CC
:10313000204601F047F81B4B1B6813B12B68A342D4
:103140000FD070BD164B4FF0FF321A60E8E71649FA
:10315000012393400A6822EA03020A60C6E72C684A
:10316000B7E74FF0E0234FF08052C3F8042DBFF3D0
:103170004F8FBFF36F8F70BD0C48314601F082F85E
:103180000B4A136801331360CAE700BFC80001305F
:10319000D4000130BC010130B0010130CC0001305D
:1031A000F001013010020130C0010130280201306D
:1031B000B40101302DE9F8434FF4006000F056FFF0
:1031C0000546002800F09280702000F04FFF044672
:1031D000002800F08F8005634FF40062A521284687
:1031E00012F032FA21464FF40070604B60654922BC
:1031F000266B01F8342F03F11F00984205D013F815
:10320000012F01F8012F002AF7D1002504F104084D
:103210004046C4E9185584F85350E56201F02EF891
:1032200004F1180001F02AF80A2306F2FC702A467D
:103230004F49A36124616462A56684F86C5020F054
:10324000070000F025FE4B4B20601C6000F034FEB0
:10325000494A4A4E1368013313603368002B58D033
:10326000474D2B68002B4CD0E06A464FDFF840C139
:10327000454ADCF800300133CCF80030A365D2F8C1
:1032800000C00123834000EB800043EA0C03414669
:1032900007EB8000136000F0F5FF00F01DFE2B68C7
:1032A00073B13268E36AD26A9A4209D24FF0E023DE
:1032B0004FF08052C3F8042DBFF34F8FBFF36F8FD1
:1032C00000F05EFD012811D14FF0300383F3118827
:1032D000BFF36F8FBFF34F8F2C4A2D4B4FF0FF3151
:1032E0001160002228601A6000F082FE294B1B68E2
:1032F000BDE8F883284600F065FF264B1B68BDE853
:10330000F8833368E06ADB6A1E4F834298BF3460FB
:10331000ACE734601368012B03D0E06A194F184DF5
:10332000A4E7184F3D4607F1C8092846143500F0B8
:1033300099FFA945F9D1DFF87C90174D484600F078
:1033400091FF284600F08EFF144800F08BFF1448D0
:1033500000F088FF134800F085FF134BE06AC3F8C4
:103360000090124B1D60064D80E700BF88DB010115
:10337000A1350001EC010130B0010130C80001307D
:1033800010020130D4000130C0010130F0010130E1
:103390003C02013054430030D8010130FC010130BF
:1033A0002802013014020130CC000130D00001307D
:1033B000BC010130C4010130024A136801331360BB
:1033C000704700BFB80101302DE9F04F444C83B085
:1033D00000F072FD2368013B23602368002B66D157
:1033E000404B1B68002B62D0DFF814B1DBF80030D3
:1033F000002B72D03C4B3D4DDFF808813C4F0193D0
:103400000126DBF80C30D3F80CA00AF104090AF10C
:10341000180000F05FFF484600F05CFFDAF82C006F
:103420002A6806FA00F300EB80001343494608EBD4
:1034300080002B6000F026FF3B68DAF82C20DB6A66
:103440009A423CD3019B1E60DBF80030002BD8D1A0
:10345000284B1A681268002A3AD01A68264BD2689C
:1034600012681A60254E356895B1012706E0FFF70E
:1034700095FC08B1019B1F60013D08D02368002B1B
:10348000F5D03368013D03F101033360F6D13560B7
:10349000019B1B685BB14FF0E0234FF08052C3F8F3
:1034A000042DBFF34F8FBFF36F8F012000E000208A
:1034B000019000F011FD019803B0BDE8F08FDBF83A
:1034C0000030002B9DD10B4B1A681268002AC4D122
:1034D000094B4FF0FF321A60C4E7034B0193C1E779
:1034E000B8010130B001013040020130C0010130AB
:1034F000C8000130CC000130F0010130F80101308A
:10350000FC010130D400013070B5044650B94FF0D1
:10351000E0234FF08052C3F8042DBFF34F8FBFF369
:103520006F8F70BD174A136801331360164B174D28
:103530001E682868043000F0CDFE40B92B6814499D
:10354000D86A0B680122824023EA02030B602B68D1
:10355000A4195C600FD20F4B18682968043100F081
:10356000A1FE0D4B1A68944238BF1C60FFF72CFF78
:103570000028CCD070BD094B18682968043100F0D0
:1035800091FEF3E7B80101303C020130C800013080
:10359000C0010130CC000130F0010130D000013019
:1035A0002DE9F84F3D4C3E4E3E4DDFF818B1DFF8A7
:1035B0001891DFF818A1DFF8188114E000F07CFC06
:1035C000F368DF68381D00F085FE2B68013B2B6037
:1035D0002368013B236000F07FFC386B00F0F2FDB4
:1035E000384600F0EFFD2368002BE7D12E4B1B6817
:1035F000012B09D94FF0E0224FF08053C2F8043D6F
:10360000BFF34F8FBFF36F8FDBF800300133CBF880
:103610000030D9F80030CAF80030244B1B68012B69
:10362000234B1B68DB6A29D90BB91F4B1B6830BFC2
:10363000D9F800301F48C8F80030D8F80030DAF860
:10364000002001680B449B1A036001461A48D8F811
:10365000003002689B1A632B0DD90A6864279A1AF6
:1036600007FB02F2B2FBF3F3144A1360D9F80030FF
:10367000036000230B60FFF7A7FEB4E7002BD6D151
:10368000094B1B68012BD2D80D4B1868D9F80030B4
:10369000C01A0128CBD91AF033F8C9E7B4010130B8
:1036A00028020130B0010130D4000130C0010130E6
:1036B000C8000130A8010130AC0101309C0101308B
:1036C000F0010130B80101303C020130A4010130A9
:1036D000A0010130014B1868704700BF3C02013067
:1036E000024A136818441060704700BF3C02013062
:1036F000054B1B680BB9FFF751BB044A1368013334
:1037000000201360704700BFB8010130F80101309C
:10371000114B1B681BB1114B01221A6070470F49F6
:103720000F4A0B601368B3FA83F3DBB20D4AC3F19F
:103730001F0303EB830302EB83010A464B685B68BC
:103740004B600832934208BF5B68074A08BF4B6072
:10375000DB681360704700BFB801013040020130E0
:10376000C0010130D4000130C800013070B51C4DDB
:103770002B680C4603F1180100F094FD194B1E68EC
:103780002868043000F0A6FD40B92B681649D86AB5
:103790000B680122824023EA02030B60631C17D0EE
:1037A0002B68A4195C6007D3104B18682968BDE822
:1037B0007040043100F076BD0D4B18682968043163
:1037C00000F070FD0B4B1A68944238BF1C6070BD4E
:1037D00029680948BDE87040043100F053BD00BFBE
:1037E000C80001303C020130C0010130D00001307E
:1037F000CC000130F001013014020130F8B5214D48
:103800002B680C4603F11801164600F03BFD1E4BD9
:103810001F682868043036BB00F05CFD58B92B687F
:103820001A49DA6A012303FA02F20B6823EA020357
:103830000B60631C1DD02B683C195C600BD2144BD1
:1038400018682968043100F02DFD124B1A68944263
:1038500000D21C60F8BD104B18682968BDE8F8401C
:10386000043100F01FBD00F035FD20B94FF0FF34EA
:10387000D5E7002EDFD029680848BDE8F8400431BC
:1038800000F000BDC80001303C020130C001013031
:10389000CC000130F0010130D000013014020130C1
:1038A00070B5C368DC6804F1180582B0284600F0E2
:1038B00011FD1B4B1B68E3B9211D1A4D01910846F0
:1038C00000F008FDE36A2E681748019901229A402A
:1038D00003EB8303324300EB83002A6000F0D2FC49
:1038E000124B1A681268A2B9114B4FF0FF321A60DE
:1038F00003E01048294600F0C5FC0F4BE26A1B6844
:10390000DB6A9A4285BF0D4B01200020186002B08F
:1039100070BD1A68064BD26812681A60EDE700BFE6
:10392000B8010130C0010130D4000130CC000130B9
:10393000F0010130FC010130C800013040020130CB
:10394000034A044B12681B68C0E90023704700BF9C
:10395000F40101303C020130F0B50D4683B004465D
:1039600000F0AAFA2B68134A591C10681FD0DFF820
:1039700048C0D4E90061DCF80070BE420AD0814240
:1039800008D800232B600120019000F0A5FA0198CF
:1039900003B0F0BD471ABB42F3D91B1A0B44DCF845
:1039A000001012682B600020C4E90012ECE7002030
:1039B000EAE700BF3C020130F4010130014B012273
:1039C0001A607047400201300B4B186818B90B4B56
:1039D0001B6813B1704700207047094A12680AB18A
:1039E00018467047074A084B10681B68013B98420D
:1039F00014BF012002207047FC0101304002013059
:103A0000F801013014020130B0010130054B1B6890
:103A100033B1054B1B68002B0CBF02200020704700
:103A20000120704710020130B801013070B5044622
:103A300082B038B1436EC16A026E013B9142436667
:103A400000D013B1002002B070BD011D08460191E5
:103A500000F040FC01990F4A30B9E56A1368012073
:103A6000A84023EA00031360236E1668E362C3F1E3
:103A70000A00A0610124084804FA03F503EB83035C
:103A800000EB83003543156000F0FCFB204602B0DC
:103A900070BD00BFC0010130D40001302DE9F043FA
:103AA0001D4EDFF87C9085B04FF000080DE0DB681C
:103AB000DC681F68251D284600F00CFC236A2046A0
:103AC000984794F828305B070AD433681A68002AAC
:103AD000EDD1124A11683160136005B0BDE8F08382
:103AE000A3693B449F42294610D3D9F80030002BEC
:103AF000EBD0CDE901870394FFF788FF0023D9F8C5
:103B000000001A4601A900F02FFCDEE73068636070
:103B1000246100F0C7FBD8E74402013048020130BD
:103B2000780201302DE9F04F914E924D924F934C17
:103B300089B04FF0E0293368D3F800A0BAF1000F44
:103B400000F0A880DB68D3F800A0FFF735FCFFF792
:103B5000C1FD2A6890428046C0F0AC808245286052
:103B600040F2BD8000222068AAEB080100F018FF97
:103B7000FFF72AFC38B94FF08053C9F8043DBFF372
:103B80004F8FBFF36F8F2068002202A900F090FDD5
:103B90000028D0D0029B002BF5DBDDF810B0DBF85D
:103BA00014301BB10BF1040000F094FBFFF792FD01
:103BB0002B6898428046C0F08480029BC5F8008044
:103BC000092BE0D8DFE803F0050505543A5C05054C
:103BD000543A9BF82820039BCBF810B042F0010226
:103BE0008BF82820DBF8182099182CBF0120002022
:103BF0004145CBF8041067D8A8EB03039A4230D8AC
:103C0000DBF82030584698479BF828302068590741
:103C1000BAD50028B8D00023DBF818200593039B01
:103C2000CDF81CB013440693FFF7F0FE0023206884
:103C30001A4605A900F098FB2068A5E79BF82830F4
:103C4000039ACBF8182043F001038BF8283002EBDD
:103C500008034345CBF80430CBF810B038D8002A1D
:103C600091D038680BF1040100F01CFB20688BE751
:103C70009BF82830206823F001038BF8283083E775
:103C80009BF828309A0745D523F0010320688BF86C
:103C9000283079E7FFF790FBFFF71CFD2A68824286
:103CA000804607D83A68C5F800801268B2FA82F2F6
:103CB000520958E7FFF7F2FEC5F80080FFF784FBD2
:103CC00061E7FFF7EBFE78E7434501D9002897D07D
:103CD00030680BF1040100F0E5FA206854E7FFF7C3
:103CE00073FB3268D268D2F80CB00BF104010846BD
:103CF000019100F0EFFA9BF82800019910F0040FF1
:103D00000DD120F001008BF82800DBF82030584658
:103D1000984738E7584600F055FA206834E7DBF852
:103D20001820CBF810B00AEB02004045CBF8040095
:103D300003D9306800F0B6FAE7E7A8EB0A039A4225
:103D400011D82368002BE0D000230593CDF818A0EC
:103D5000CDF81CB0FFF75AFE002320681A4605A9CB
:103D600000F002FBD1E7386800F09CFACDE700BF15
:103D700044020130740201304802013078020130FF
:103D8000F0B5174C83B000F097F8256885B100F0C6
:103D9000A3F8206850B1134A134914480223CDE90F
:103DA000003200234FF48062FFF796F803B0F0BDB5
:103DB0000F4F104E384600F055FA304600F052FAD8
:103DC0000D4B1F600D4B2A460C210A201E6000F08F
:103DD00095FA20600028DAD0094900F0B9FDD6E74D
:103DE000780201307C02013098DB0101253B0001A3
:103DF0004C020130600201304402013048020130BF
:103E000090DB010182B0002301934FF0300383F374
:103E10001188BFF36F8FBFF34F8F019B002BFCD036
:103E200002B0704700000000000000000000000029
:103E3000074B19680868B0E8F04F80F30988BFF3B2
:103E40006F8F4FF0000080F311887047AFF3008050
:103E5000C800013008480068006880F308884FF007
:103E6000000080F3148862B661B6BFF34F8FBFF3D2
:103E70006F8F00DF00BF000008ED00E0DFF80C00EE
:103E8000016841F4700101607047000088ED00E0B6
:103E900010B44FF08073074C40F8043C21F001014E
:103EA0006FF0020340E9034140E909325DF8044B39
:103EB00044387047053E00014FF0300383F311880A
:103EC000BFF36F8FBFF34F8F024A13680133136044
:103ED000704700BF5C430030034A1368013B136026
:103EE0000BB983F3118870475C4300300000000079
:103EF000EFF30980BFF36F8F154B1A681EF0100F98
:103F000008BF20ED108A20E9F04F10602DE909006C
:103F10004FF0300080F31188BFF34F8FBFF36F8FE6
:103F2000FFF7F6FB4FF0000080F3118809BC196819
:103F30000868B0E8F04F1EF0100F08BFB0EC108A10
:103F400080F30988BFF36F8F704700BFAFF3008025
:103F5000C800013008B54FF0300383F31188BFF378
:103F60006F8FBFF34F8F0B4B1B78012B03D00023B8
:103F700083F3118808BDFFF7BBFB0028F7D04FF093
:103F8000E0234FF08052C3F8042D002383F31188FF
:103F900008BD00BFCC020130104B11491A68F0B4C3
:103FA000104C114EA4FB0202920910480A604FF017
:103FB000E02100252D2707606FF07F40B0FBF2F273
:103FC00032600D618D611B68A4FB03039B0907220E
:103FD000013B4B61F0BC0A61704700BFC841003033
:103FE000C4020130D34D6210C8020130C00201305A
:103FF00030B54FF0E02483B0D4F8203D43F47F0384
:10400000C4F8203DD4F8203D43F07F43C4F8203D60
:10401000FFF7C2FF124B00251D60FFF72FFFD4F8FA
:10402000343F104A104943F04043C4F8343F284617
:1040300001231370FEF792FCFFF70CFFFFF768FBFC
:1040400001954FF0300383F31188BFF36F8FBFF3F7
:104050004F8F019B002BFCD0002003B030BD00BF70
:104060005C430030CC020130313E00012DE9F041CB
:104070000446FFF7A1F94C490F68002F46D04B4B7F
:104080001D6814EA05023BD1631E0A3338D8630762
:1040900004F108062FD1DFF828E1DEF800C0B445AE
:1040A0002ED34348036803E01A6822B1184613462A
:1040B0005968B142F8D3BB4222D01C468A1B54F83F
:1040C000088BC0F80080102A45D83A480668ACEB47
:1040D0000102B24238BF0260CEF80020364A2943BE
:1040E0000020C3E90001136801331360FFF76CF986
:1040F0002046BDE8F08126F007030833B34228D8F4
:104100000024FFF761F92046BDE8F0812B4A274DD6
:10411000500714BFD31D134602F5A042A2F10802B6
:1041200022F0070718BF23F00703224A0F60184642
:10413000FB1A1360224A1E491360002208604A607D
:104140004FF00041C7E900222960C0E900730D4625
:1041500097E71E469FE799194A60154A5E60164622
:1041600012689142FBD8706806EB000841450BD0FD
:10417000D1F8048001EB080082420CD00A608E4224
:1041800018BF31605968A0E7496800EB0108C6F81C
:1041900004803146EEE7BA42F0D0506812680A60F7
:1041A00040444860EBE700BFD0020130D4520130F8
:1041B000E8520130DC520130E0520130D4020130CB
:1041C000D852013010B582B040B1214A50F8043CB9
:1041D0001268134202D050F8081C09B102B010BD99
:1041E00023EA020340F8043C1A4C0190FFF7E4F87C
:1041F0000198226850F8041C174B0A4408382260C2
:104200001A461B689842FBD8546802EB040C6045C0
:1042100019D04418A3420CD00360824218BF10602A
:104220000E4A13680133136002B0BDE81040FFF777
:10423000CBB80B4C2468A342EED0D3E90034214420
:10424000C0E90031E9E7214451601046E1E700BFD1
:10425000D4520130D8520130E8520130E4520130DA
:10426000D002013000F108034FF0FF310022C0E915
:104270000131C0E903330260704700BF00230361CE
:10428000704700BF43689A688A60026810B49C68EF
:104290004B600132616099605DF8044B0861026017
:1042A000704700BF30B40D686B1C10D000F10803DC
:1042B0001C465B681A68AA42FAD902684B60013250
:1042C00099608C606160086130BC0260704704696D
:1042D0006368F2E7036910B4D0E901125C688A6090
:1042E0008442516008BF5A601A685DF8044B00218F
:1042F000013A01611A601868704700BFF8B50746B7
:1043000001FB00F050300D461646FFF7AFFE0446A5
:1043100028B335B300F150032360C4E90F75FFF7EC
:10432000CBFDD4E90F132268626003FB01F1CB1AC5
:104330001144A16000211344A163FF2184F84410BB
:10434000E36084F8451004F11000FFF78BFF04F1DF
:104350002400FFF787FFFFF7BFFD84F84C6020467D
:10436000F8BD0346D8E700BF2DE9F043044685B009
:104370001F460192884600F12406FFF79DFDA26BBF
:10438000E36B9A424FF0000979D3022F00F0E480EA
:10439000019D002D00F00E81B9F1000F00F0D880D2
:1043A000FFF79AFDFFF708F8FFF786FD94F8443011
:1043B000FF2B04BF002384F8443094F84530FF2BD2
:1043C00004BF002384F84530FFF786FD01A902A849
:1043D000FFF7C2FA002840F0F380FFF76DFDA26BF3
:1043E000E36B9A425FD0FFF777FDFFF765FD94F826
:1043F000452055B2002D04DC11E06A1ED3B255B23F
:104400006BB1636A304653B1FFF74AFA0028F4D023
:10441000FFF7D4FA6A1ED3B255B2002BF1D1FF23B5
:1044200084F84530FFF758FDFFF746FD94F8442027
:1044300055B2002D14DD04F1100903E06A1ED3B259
:1044400055B26BB12369484653B1FFF729FA0028EA
:10445000F4D0FFF7B3FA6A1ED3B255B2002BF1D1F4
:10446000FF2384F84430FFF737FDFEF7ADFFFFF779
:1044700023FDA26BE36B9A424FF0010985D2226CB7
:10448000A56B002A40F0E4802668002E00F0F6803C
:104490000135A563636A002B7AD1FFF71DFD01206A
:1044A00005B0BDE8F08304F11009FFF715FD01998F
:1044B0004846FFF75BF9FFF7FFFC94F845305DB223
:1044C000002D04DC11E06B1EDAB25DB26AB1636AE2
:1044D000304653B1FFF7E4F90028F4D0FFF76EFA45
:1044E0006B1EDAB25DB2002AF1D1FF2384F84530A9
:1044F000FFF7F2FCFFF7E0FC94F844305DB2002DCA
:1045000004DC11E06B1EDAB25DB26AB12369484681
:1045100053B1FFF7C5F90028F4D0FFF74FFA6B1E2F
:10452000DAB25DB2002AF1D1FF2384F84430FFF7FC
:10453000D3FCFEF749FF002899D14FF0E0234FF05C
:104540008052C3F8042DBFF34F8FBFF36F8F8EE7F8
:1045500002A8FFF7F5F923E7226CA56B002A93D098
:104560004146E06810F0D6FF226CE36851429B1A86
:104570002268E360934204D2A3680B44E360022FF5
:1045800086D1002D85D10123A363636A002B84D0DB
:1045900004F12400FFF784F900283FF47EAF4FF0C8
:1045A000E0234FF08052C3F8042DBFF34F8FBFF3C9
:1045B0006F8F72E7FFF790FC284605B0BDE8F083E7
:1045C000FFF77AFC94F845305DB2002D14DD04F15C
:1045D000240603E06B1EDAB25DB26AB1636A30464C
:1045E00053B1FFF75DF90028F4D0FFF7E7F96B1E30
:1045F000DAB25DB2002AF1D1FF2384F84530FFF72B
:104600006BFCFFF759FC94F844305DB2002D14DDCB
:1046100004F1100603E06B1EDAB25DB26AB12369E1
:10462000304653B1FFF73CF90028F4D0FFF7C6F944
:104630006B1EDAB25DB2002AF1D1FF2384F8443058
:10464000FFF74AFCFEF7C0FE002005B0BDE8F0838E
:1046500007BB4146606810F05DFF6368216CA2688B
:104660000B4493426360FFF413AF0135A563636AA3
:1046700022686260002B3FF410AF89E7A068013523
:10468000FFF7D4F9A563636AA660002B80D10028E8
:1046900085D102E74146E06810F03CFF226CE368F8
:1046A00051429B1A2268E3609342BFF468AF63E70C
:1046B0002DE9F043044685B00F460192FFF7FCFB5D
:1046C000A56B002D40F01B81019B002B00F0CC80DE
:1046D00002A8FFF735F9A84604F12406FFF7FCFB12
:1046E000FEF76AFEFFF7E8FB94F84430FF2B08BFA3
:1046F00084F8448094F84530FF2B08BF84F8458047
:10470000FFF7EAFB01A902A8FFF726F900285AD112
:10471000FFF7D2FBA36B002B40F0AC80FFF7DCFB74
:1047200001993046FFF722F8FFF7C6FB94F84530B1
:104730005DB2002D04DC11E06B1EDAB25DB26AB12D
:10474000636A304653B1FFF7ABF80028F4D0FFF7A7
:1047500035F96B1EDAB25DB2002AF1D1FF2384F87D
:104760004530FFF7B9FBFFF7A7FB94F844305DB283
:10477000002D14DD04F1100903E06B1EDAB25DB206
:104780006AB12369484653B1FFF78AF80028F4D08C
:10479000FFF714F96B1EDAB25DB2002AF1D1FF23E4
:1047A00084F84430FFF798FBFEF70EFE002852D144
:1047B0004FF0E0234FF08052C3F8042DBFF34F8F2A
:1047C000BFF36F8F47E0FFF777FB94F845305DB29A
:1047D000002D04DC11E06B1EDAB25DB26AB1636ACF
:1047E000304653B1FFF75CF80028F4D0FFF7E6F845
:1047F0006B1EDAB25DB2002AF1D1FF2384F8453096
:10480000FFF76AFBFFF758FB94F844305DB2002DC8
:1048100014DD04F1100903E06B1EDAB25DB26AB177
:104820002369484653B1FFF73BF80028F4D0FFF75F
:10483000C5F86B1EDAB25DB2002AF1D1FF2384F80D
:104840004430FFF749FBFEF7BFFDFFF735FBA36BD5
:1048500053B1FFF741FBFFF72FFBA56B002D4ED1A6
:10486000019B002B7FF43AAFFFF736FB002005B029
:10487000BDE8F083FFF730FBFFF71EFB94F84530EF
:104880005DB2002D04DC11E06B1EDAB25DB26AB1DC
:10489000636A304653B1FFF703F80028F4D0FFF7FE
:1048A0008DF86B1EDAB25DB2002AF1D1FF2384F8D5
:1048B0004530FFF711FBFFF7FFFA94F844305DB283
:1048C000002D14DD04F1100903E06B1EDAB25DB2B5
:1048D0006AB12369484653B1FEF7E2FF0028F4D0DD
:1048E000FFF76CF86B1EDAB25DB2002AF1D1FF233C
:1048F00084F84430FFF7F0FAFEF766FDABE7226C70
:1049000052B1E168A36811449942E16024BF216873
:10491000E160384610F0FEFD013DA56323692BB927
:10492000FFF7DAFA012005B0BDE8F08304F11000CA
:10493000FEF7B6FF0028F3D04FF0E0234FF080528F
:10494000C3F8042DBFF34F8FBFF36F8FE8E700BFAD
:10495000124B1A687AB19A6862B11A6992B19A696F
:1049600092B11A6A92B19A6A92B11A6B92B19A6B29
:1049700092B17047012203EBC20C43F83210CCF81D
:10498000040070470222F6E70322F4E70422F2E76C
:104990000522F0E70622EEE70722ECE7F0520130AD
:1049A00070B505460E461446FFF786FA95F8443072
:1049B000FF2B04BF002385F8443095F84530FF2BCA
:1049C00004BF002385F84530FFF786FAAB6B002B58
:1049D00043D0FFF771FA95F845305CB2002C14DD36
:1049E00005F1240603E0631EDAB25CB26AB16B6AB9
:1049F000304653B1FEF754FF0028F4D0FEF7DEFF37
:104A0000631EDAB25CB2002AF1D1FF2385F845308B
:104A1000FFF762FAFFF750FA95F844305CB2002CC9
:104A200014DD05F1100603E0631EDAB25CB26AB170
:104A30002B69304653B1FEF733FF0028F4D0FEF760
:104A4000BDFF631EDAB25CB2002AF1D1FF2385F804
:104A50004430BDE87040FFF73FBA2246314605F1C9
:104A60002400FEF7CBFEB4E770B50026ADF5826DED
:104A7000264D04964FF47F723146044605A810F087
:104A8000E3FD202385F83F3085F89B30C4B1012C2D
:104A90006B6DEA6C27D01E4904A810F0F9FE1D4B7F
:104AA0006A6C009204A9CDE901312A461A4B1B49D0
:104AB000304600F06DFC00F0CFFD0DF5826D70BD4D
:104AC00005F15C02164904A810F0E2FE114B6A6C75
:104AD000009204A9CDE901312A460F4B0F49204627
:104AE00000F056FCE7E70F4904A810F0D1FE094B8F
:104AF0006A6C009204A9CDE901312A46064B0749A8
:104B0000304600F045FC0DF5826D70BD305301302C
:104B1000DCDB0101A8DB01011CD80101ACDB0101D8
:104B2000A0DB0101BCDB01012DE9F843074610467B
:104B3000984615460E4610F0E3FE114C81469C2225
:104B40000021204610F080FD4A46402A28BF40221E
:104B50002946204610F0DEFC4FF0113323644FF05D
:104B60002233C4E911834FF033324FF04433C4E9A8
:104B70001372C4E915630120BDE8F843FFF774BF61
:104B8000305301302DE9F84307460E461546984646
:104B900072B6104610F0B4FE104C81469C220021E3
:104BA000204610F051FD4A46402A28BF402229469F
:104BB000204610F0AFFC4FF0553323644FF06633BE
:104BC000C4E911834FF077324FF088330220C4E9F3
:104BD0001372C4E91563FFF747FFFEE73053013056
:104BE0002DE9F84305460E46174672B6084610F002
:104BF00087FE8146284610F083FE144C80469C2296
:104C00000021204610F020FD4A46402A28BF4022BD
:104C10003146204610F07EFC4246402A28BF402202
:104C2000294604F15C0010F075FC4FF0AA33C4E98A
:104C300010374FF0BB314FF0CC324FF0DD33002056
:104C4000A1642265A365FFF70FFFFEE73053013033
:104C5000014876F4119600BF6043003030B51C4D1A
:104C6000044685B04FF400720021284610F0ECFC99
:104C7000237813BBA28842B3164801239C46013314
:104C800000EBC30131F8081C9142F7D100EBCC00D6
:104C9000436811490E4810F0FBFDD4E903300F4979
:104CA000A2680090CDE9011500200D4900F070FBCD
:104CB00005B0BDE8304000F0C7BC012BEDD1626803
:104CC0000849284610F0E4FDE7E7074BE1E700BF9D
:104CD000CC53013008E2010104DC0101A8DB010131
:104CE00038DC01011CDC0101F8DB010110B582B0E8
:104CF0000446019100F000FB019938B9074A084BBE
:104D0000105D1B6802B0BDE810401847054802F06E
:104D1000CFFC054B019900221A70EFE77056013065
:104D20006C56013080560130A85601302DE9F04113
:104D3000174F3B7843B30025164E2C460EE098F8EB
:104D40000910A1F10101B1FA81F14909204600F0F1
:104D5000CDFA01353B78ECB2A34215D906EB041825
:104D60002301D8F80410F05C01F0FCFB0028E6D029
:104D7000012807D198F80910A1F10201B1FA81F1D7
:104D80004909E3E70021E1E7BDE8F04100F0C0B9DF
:104D90007A560130CC55013070B500283ED04A4BD0
:104DA0001A78DAB3494B017893F800C08C4550D09B
:104DB000012A33D093F810C08C4530D0022A2DD070
:104DC00093F820C08C4538D0032A27D093F830C000
:104DD0008C4538D0042A21D093F840C08C453ED071
:104DE000052A1BD093F850C08C453ED0062A15D01A
:104DF00093F860C08C4546D0072A0FD093F870C056
:104E00008C4546D0082A09D093F880C08C4546D0FE
:104E1000092A03D093F890208A422CD070BD4468B0
:104E20005D692C42CAD00126294C2578002D3DD041
:104E30003046BDE8704000F051BA44685D6A2C42CB
:104E4000C2D00226F0E745685C6B2542C2D003263B
:104E5000EAE744685D682C42AAD00026E4E745688A
:104E60005C6C2542BCD00426DEE745685C6D2542BB
:104E7000BCD00526D8E74268D3F894301A4218BF50
:104E80000926D1D170BD45685C6E2542B4D0062696
:104E9000CAE745685C6F2542B4D00726C4E7456879
:104EA000D3F884402542B3D00826BDE7094A0A4812
:104EB000012102F0DBFC08482A460A2102F0B0FA80
:104EC00001232370B4E700BF7A560130CC5501307E
:104ED000A85601302D4D0001805601300A2938B501
:104EE0000C46154600F2F980002A00F0F8800029EF
:104EF00000F0E6800278052A01D0032A0AD1794B16
:104F000079491A7042685A60827A0A7002891A8155
:104F1000764ADA60012C00F0D380027B052A01D0AA
:104F2000032A0CD16F4B90F816C01A7402695A61AB
:104F3000828A6D491A836D4A81F801C0DA61022CB8
:104F400000F0BE80027E052A01D0032A0DD1654BF8
:104F500090F822C083F82020C2695A62028C62490C
:104F60001A85624A81F802C0DA62032C00F0A88038
:104F700090F82420052A01D0032A0DD1594B90F82E
:104F80002EC083F83020826A5A63828D56491A8770
:104F9000564A81F803C0DA63042C00F0918090F83F
:104FA0003020052A01D0032A0ED14E4B90F83AC08A
:104FB00083F84020426B5A64028F4B49A3F8482083
:104FC0004A4A81F804C0DA64052C79D090F83C2074
:104FD000052A01D0032A0FD1424B90F846C083F82E
:104FE0005020026C5A65B0F844203F49A3F858207D
:104FF0003E4A81F805C0DA65062C61D090F8482059
:10500000052A01D0032A0FD1364B90F852C083F8FD
:105010006020C26C5A66B0F850203349A3F868206B
:10502000324A81F806C0DA66072C49D090F854203D
:10503000052A01D0032A0FD12A4B90F85EC083F8CD
:105040007020826D5A67B0F85C202749A3F8782059
:10505000264A81F807C0DA67082C31D090F8602022
:10506000052A01D0032A11D11E4B90F86AC083F89B
:105070008020426EC3F88420B0F868201A49A3F853
:1050800088201A4A81F808C0C3F88C200A2C17D14E
:1050900090F86C20052A01D0032A11D1114B90F809
:1050A00076C083F89020026F0F49C3F8942081F8EE
:1050B00009C00E4AB0F87410A3F89810C3F89C20E9
:1050C0002146084801F0C8FB094A0A4B0A481470F7
:1050D0001D6000F013F8012038BD002038BD1046D7
:1050E00038BD00BFCC55013070560130994D0001DC
:1050F0007A5601306C560130ED4C0001034618B170
:10510000024A012013607047704700BFE856013023
:105110002DE9F84FDFF8B481694FDFF8B4A1694E8B
:10512000DFF8B091684DDFF8B0B100240EE0013433
:105130000A2C08F1010807F101070AF1010A06F13A
:10514000010609F1010905F102055FD02B78E0B2F3
:10515000002BECD03378032B68D8DFE803F04D4008
:105160001D0215F8013C002B52D03B78052B22D0B4
:10517000082B00F08A80002BD9D19AF80020013248
:10518000D2B2132A7ED98AF8003008233B7004215A
:10519000DBF800309847CAE715F8013C002B5AD0DD
:1051A00099F800300133DBB2632B89F800303B788B
:1051B0007BD8052BBBD198F800300133DBB2312B03
:1051C00088F80030B3D94FF000033B704FF0000374
:1051D00025F8013C0121DBF800309847A7E715F8D6
:1051E000013C43B34FF0000389F800303B780222C2
:1051F000052B32709BD1DEE715F8013CB3B14FF0BF
:10520000010333703B78052B91D1D4E7BDE8F88FCB
:105210003A783370052A25F8013CCCD0082A86D18B
:105220003B700521DBF80030984780E73B78052B81
:105230007FF47DAFBFE7397833700529BBD00829EB
:105240003FF475AF00297FF472AF25F8011CDBF83D
:10525000003098476BE73A783370052A0AD0082A5D
:105260003FF465AF002A7FF462AF052388F8002081
:105270003B705CE73B7025F8013C0221DBF8003015
:10528000984754E78AF8002051E79AF80020013245
:10529000D2B2132AF6D93B704FF000038AF80030DF
:1052A0000421DBF80030984741E70321052B3170DA
:1052B00081D0082B3FF43BAF002B7FF438AFC6E71B
:1052C000D0560130DC560130ED560130B856013071
:1052D000AC560130C4560130E8560130024B03EBA6
:1052E0004000012343707047EC560130014B03F836
:1052F00010107047EC5601300D4B1878A8B99A7809
:1053000092B9187988B99A7972B9187A68B99A7A7B
:1053100052B9187B38B99A7B32B91A7C22B9987C79
:1053200080F001007047104670470020704700BFB2
:10533000EC560130F0B40F4616460446D8B1037857
:10534000032B15D8114D0123AB7600686168E36823
:10535000A268AC46ACE80F0020696169ACE80300C4
:10536000238BACF80030C5E907760020F0BC70470D
:105370000120F0BC7047054DC5E90000C5E90200F9
:10538000C5E90400A8762883EDE700BF0057013087
:105390002DE9F043A64E347885B000218442029175
:1053A000ADF80C1003D2B17E002940F0F5800EA9B3
:1053B0000191EFF311849F4991F8025301F5406187
:1053C0000127C968C1F30221013107FA01F129441B
:1053D00081F31188311891F816C01CEA070100F01A
:1053E000DE80954951F82010002900F0D880087817
:1053F000002800F00D81914D40F20119AE4603E006
:1054000001374F4500F0E6800EF8010B11F8010F4F
:105410001FFA87F80028F3D11CF01C0F00F09A80C7
:10542000B8F5807F40F0C08047461CF0040F00F0C4
:10543000C980D2B11078C0B1FF2F00F3EF80BE4613
:10544000C2F1010902E0BEF1FF0F0ADC05F80E000F
:1054500009EB020112F8010F89B201EB070E0028D7
:10546000F1D141441FFA81F847461CF0080F00F0C3
:10547000B980FF2F07DC202208F1010105F8082080
:105480001FFA81F84746C3B11978B1B1FF2F00F375
:10549000C9803846C3F1010E01E0FF2808DC295419
:1054A0000EEB030213F8011F92B2D0190029F4D1B8
:1054B00002EB08011FFA81F847461CF0100F36D0A6
:1054C000FF2F16DC20235E4805F808304C2201230C
:1054D000D919FF2903F1010C06DC6A5410F8012FD9
:1054E0001FFA8CF3002AF3D103EB08011FFA81F8AD
:1054F0004746544A0C9B052102A810F085F99DF8F7
:105500000820A2B1FF2F25DC02A83946002301E0C4
:10551000FF2907DC6A54013310F8012F9BB2D91917
:10552000002AF5D103EB08011FFA81F84746FF2F47
:1055300010DC2923FF2F05F8083007F1010261D0A4
:1055400008F1020120231FFA81F8AB54474601E01D
:105550003A4DB8464046C7F58071019B0D9A2844E4
:1055600013F004FD002827DB0744B7F5807F23DC18
:1055700008EB000189B2FE2928BFFE210D23481C3B
:105580006B5480B2F3690A2202312A5489B20BB1FA
:105590002A48984784F3118805B0BDE8F0831CF0D1
:1055A0001C07D5D0254D8846282105F8081008F19C
:1055B00001011FFA81F837E70D2385F8FE30FF203F
:1055C000FE21DFE71CF0080F7FF45DAF1CF0100F29
:1055D000ADD08EE71CF01C014FF4807710D1384617
:1055E000B846BAE71CF0100FA1D0FF2F81DC3A2398
:1055F00008F1010105F808301FFA81F8474678E7FD
:10560000B84612E708F101011FFA81F84746A1E701
:105610001CF01C079CD0094D8046C5E71CF0080F04
:105620007FF431AF1CF0100F7FF463AF92E700BF3F
:105630000057013000E100E0ACE3010128570130E0
:105640007DE3010178E30101024B1B6A03B11847B6
:10565000704700BF00570130024B5B6A03B1184727
:10566000704700BF00570130F8B5171E0C460CDD1F
:10567000074ECD192046012114B1F36903B19847B3
:105680000134A542F6D13846F8BD00273846F8BDAA
:10569000005701302DE9F8434368884A1D780021FE
:1056A00015F00F07044611702CD14288292A00F00A
:1056B00090808349D3F80120824E834DCA60D3F88D
:1056C00005302B603260002069F45AD730684FF4FF
:1056D000805169F4ABD66368002877D001221A7034
:1056E0007A4B22886068002601211E606AF4FED190
:1056F000774B28681E706AF41BD13046BDE8F8432A
:1057000069F43E97B91E01290DD96D49D3F80120DE
:105710006C4E6D4DCA60D3F805302B6001203260AD
:1057200069F42ED7D2E7418801202929107000F0B2
:105730009380644E644D6249D3F80120D3F805305C
:1057400032602B60CA60C3F30B02002A00F0818034
:105750001B0B01339BB2022FDFF898810CBF002096
:105760000120A8F8003069F40BD75A4A316811605B
:105770006268B8F800300126167062685670626878
:10578000937062681B0AD3702288606804216AF4EF
:10579000ADD1514B514A4D48167000241C70504BEE
:1057A000504A1C80504B5149146004604FF4A05281
:1057B0004F481C7002F082F84D4802F05DF92868ED
:1057C0006AF4B6D0424B1C70BDE8F88302221A700E
:1057D00086E7DFF8EC805D1C474603F1210C286862
:1057E0006968AA68EB683E460FC6103565453746BE
:1057F000F5D12868696803C7B8F8002044F24473FB
:105800009A421CD1D8F80C30C3F30B02BAB903F199
:105810007F43B3F5005F12D36AF418D1D8F804209F
:10582000002848D002F56272D8F80C30264D254E7B
:105830002A6023F47F6323F00F03336043E7636838
:1058400002221A70228860680121BDE8F8436AF4D8
:105850004D91C3F30F337EE7DFF864801E1803F128
:105860002109C64630687168B268F368F446ACE84E
:105870000F0010364E45E646F4D130687168114E7F
:10588000AEE80300D8F80C3023F47F6323F00F0355
:1058900033606AF4DBD0D8F8043038B92D09013D03
:1058A000012D03D9084D30332B604CE7064D03F52D
:1058B00062732B6047E73032B6E700BF7870013083
:1058C000847001308C2480007C7001309024800032
:1058D00048258000AC700130B17001307970013022
:1058E000767001302C700130B07001302C580130CE
:1058F000307001307470013010B5436801211970A7
:105900004FF48A22436811785970517899709178D0
:10591000D970D17819711179597151799971917939
:10592000D97182B0D2791A7204466846FDF706F83A
:105930006B4603CB6368C3F80D10C3F809006368B6
:1059400002225A742288606814216AF4CFD0024B74
:1059500000221A7002B010BD4825800010B4044C1B
:1059600003460A4620785DF8044B194602F0B0B9A8
:105970009043003010B5404A1378FF2B1ED090F8AA
:1059800001C0634500D010BD017801390829FAD85B
:105990000FF2040E5EF821F0115A00018759000140
:1059A0008759000187590001F9590001F159000197
:1059B000375A000187590001295A0001017801393D
:1059C0000829E0D80FF2040C5CF821F0115A00010C
:1059D000875900018759000187590001F9590001D1
:1059E000F1590001335A000187590001255A00017D
:1059F000BDE8104069F4B092204B1B7813B1204BE6
:105A00001B78FBB101894068BDE8104069F49092B1
:105A100069F4A4D319481A491A4A002303700B7079
:105A2000137010BD90F801C06345ACD1FF23137013
:105A300010BD43781370144B1B68002BA3D0BDE836
:105A4000104018470F4B0289416810484FF0020C74
:105A500083F800C001F048FF0C4801F0FDFFB0F5ED
:105A6000806F90D20A4B1A78002A8CD10948012104
:105A70000270197010BD00BF904300307870013083
:105A8000B0700130797001304070013030700130F9
:105A9000B17001301E0680002DE9F047344F354EBD
:105AA000DFF8D490DFF8D8A082B0C8254FF6FF7891
:105AB000387802F0EDFF404596E803003DD00090B5
:105AC000ADF80410D9F8043003F0070308336B4431
:105AD00042F2107213F8084C02FB04F406F0A0FD29
:105AE000DAF80420DAF804309B1A9C42FAD806F05F
:105AF000C3FD013DDCD11521387803F0A7FD96E800
:105B000003001D4BADF8041000905B681B4A03F0C6
:105B1000070308336B4413F8084C02FB04F406F047
:105B20007FFDDAF80410164A53685B1A9C42FBD8D2
:105B300002B0BDE8F04706F09FBD0F4BADF8041072
:105B400000905B680D4A03F0070308336B4413F8B9
:105B5000084C02FB04F406F063FD094A51685368DF
:105B60005B1A9C42FBD802B0BDE8F04706F084BD4A
:105B70009043003048DB010100C500A0A086010071
:105B8000001000E038B505460C4676F4EFD1F8B9C0
:105B900017492246284669F4CDD476F4E7D170B986
:105BA00064B1144D144B2868611E5A1C12FA81F11D
:105BB00013F8012F99421044FAD1286038BD0F4BD9
:105BC000187870F46DD10E4B1B6883F31088E7E7EB
:105BD00070F418D1094B1870EFF31081084A0123B3
:105BE000116083F31088002070F45AD1D0E700BF11
:105BF0002C6C0130902480002B6C013080700130BF
:105C0000285801304268224B30B501251570426892
:105C1000196851701A684168120A8A704268598876
:105C2000D1704268DB78137143685D71416883B05D
:105C300006310191044676F499D1019980B9282260
:105C4000144800F0D9FA76F491D1C0B9228860687E
:105C5000362169F44BD7104B00221A7003B030BDC7
:105C600070F4D0D00D4B1870EFF310820C4B1A600B
:105C700085F31088002070F413D10199DFE7074BFA
:105C8000187870F40DD1064B1B6883F31088DDE79C
:105C900044700130002000014825800080700130F0
:105CA0002858013008B543681B78012B06D11D4BDD
:105CB0001D491E48C86200221A7008BDFFF7ECFE9D
:105CC000194B1B4ADA6276F451D180B94FF48051F6
:105CD000184800F0F1FA14491648302200F09CFAF6
:105CE00076F444D190B9BDE8084006F0D9BB70F411
:105CF00089D0114B1870EFF31081104A0123116005
:105D000083F31088002070F4CBD0DFE70A4B1878BB
:105D100070F4C6D0094B1B6883F31088BDE80840B7
:105D200006F0BEBB48258000447001304259424411
:105D3000424E42530030000180700130285801303B
:105D4000F8B542683D4BD2F801101D6814783C4EFE
:105D50008D420CBF012102211170426804F00F072F
:105D6000577032780CBF0D460025002A49D0426892
:105D7000196851701A684168120A8A704268598815
:105D8000D170DA7843681A7102884068052169F495
:105D9000ADD6002333701DB104F00D04012C09D0E1
:105DA000284669F4B9D5002069F4EAD3254B0022CE
:105DB0001A70F8BD04F0BEF9284669F4ADD576F442
:105DC000D5D068BB204A214CD3685068214618447E
:105DD00041F8043B282200F00FFA4FF480511C4890
:105DE00000F06AFA30222146194800F015FA76F4DC
:105DF000BDD060B9012FD3D1FFF74EFE06F050FBA6
:105E0000D1E702884068012169F470D6C3E7114BDD
:105E1000187870F445D0104B1B6883F31088E9E7BD
:105E20006FF4F0D70B4B1870EFF310820A4B1A6027
:105E300085F31088002070F433D0C3E790248000ED
:105E40007870013048258000847001304470013042
:105E500000300001807001302858013070B50446D0
:105E60000D4616461448302200210FF0EDFB0CB110
:105E7000124B5C6032461249104869F415D40E4B3F
:105E8000104A1D600121002069F46ED60E4A2321BC
:105E9000062069F469D60D4A2521082069F464D6E4
:105EA0000B4A41211C2069F45FD60A4A1D20422179
:105EB00069F45AD6002070BD447001306C43003044
:105EC0002C580130F958000195560001415D000140
:105ED000A55C0001055C000100B583B008B1064B6C
:105EE0001860064A064B0193FF2101A8117001F0CA
:105EF00015FF03B05DF804FB4070013090430030A3
:105F0000755900012DE9F0418B4D2B78012B82B0A2
:105F100021D0022B1CD1894801F08CFD83B2B3F54E
:105F2000806F65D2864C87492368096882B2134422
:105F30008B4200F09C80844C23784BB1834B1D78BE
:105F400035B97E4801F088FDB0F5806F00F2A7807A
:105F500002B0BDE8F0817E4F7E4E3B8832889A4287
:105F60001CD9DFF818821424D8F800004FF48051AF
:105F700000EB033069F45AD200286CD03B88328899
:105F800001339BB29A423B8040F28E80013CEBD1C0
:105F9000714A40F201211180538005E06E4A0021D0
:105FA00040F20133297013806B486C4C232204218A
:105FB00069F49CD56A4B93E80300ADF80410009097
:105FC000636803F0070308336B4447F2305213F859
:105FD000084C02FB04F406F023FB624A5168536844
:105FE0005B1A9C42FBD802B0BDE8F04106F044BB0E
:105FF0005D4952484FF4806201F0CCFC044675F4D0
:10600000B5D7A7B200285BD1584E57493068A4B223
:10601000224669F42FD3844205D055494B4A0023C8
:106020000B7013702B7075F4A1D700283FD1306826
:106030003946FFF7A7FD424A1368234413603368CB
:106040002344414C3360384669F480D42378002BD4
:106050003FF47EAF72E746493F4B3C4C3A880870AC
:1060600040F202512870207019805A809CE73E4906
:10607000324801F08FFC1FFA80F80746B8F1000F94
:106080002DD1404669F462D43348304B0121FF22C0
:106090000170197069F42AD500232B704BE75A2040
:1060A00008F02EFE257053E72B4A538077E7314BDB
:1060B00018786FF4F5D6304B1B6883F31088B6E779
:1060C0006FF4A0D62B4B1870EFF310822A4B1A6096
:1060D000012383F3108800206FF4E2D694E775F46F
:1060E00045D788B9214E20493068BFB23A4669F495
:1060F000C1D275F43BD7B0B930684146FFF742FDD5
:1061000023681F442760BCE76FF47CD6194B1870D6
:10611000EFF31082184B1A60012383F310880020DC
:106120006FF4BED6DEE7134B18786FF4B9D6124B76
:106130001B6883F31088DFE779700130307001301D
:106140002C7001307C700130B1700130B0700130C2
:1061500076700130747001302C58013000C500A0F9
:1061600048DB0101001000E02C6C0130AC70013004
:106170007870013080700130285801308C24800004
:1061800008B569F45BD4BDE80840FFF7BBBE00BFAB
:1061900010B5154C82B002230DF107008DF80730C1
:1061A000FCF776FD22686AB175F4E0D6031E18BFCD
:1061B00001230D48A37213F4D1D0B0FA80F0400946
:1061C00002B010BD09499DF807C0094B094851F8B4
:1061D0002C105A6118600122EB20C3E90122C3E9A7
:1061E00003012360E0E700BF641F80009443003098
:1061F000281F800000D000A0844610B51446234616
:106200000A460448614617F0D3FA00280CBF20461E
:10621000002010BD641F8000844610B5144623463C
:106220000A460448614617F043FA00280CBF20468E
:10623000002010BD641F80002DE9F0478046C0B0EB
:106240008946174613461B480A46414617F030FA5E
:1062500050BBB7F5807F3D46DFF858A028BF4FF40C
:10626000807504463E4610E00FF020F9E0B9761B39
:106270001ED0B6F5807F354628BF4FF48075A74203
:1062800004EB050310D9BB420ED804EB08012B46E2
:106290006A46504617F08CFA03462A4609EB04007A
:1062A00069462C44002BDFD0002040B0BDE8F087C9
:1062B0003846FAE7641F800008B502460B460448DA
:1062C000002117F035FAB0FA80F0400908BD00BF90
:1062D000641F800008B500231A460121034817F007
:1062E00027FAB0FA80F0400908BD00BF641F8000A3
:1062F00008B50AF0ADFE064A064B126819689142CD
:1063000000D108BD1A60BDE808400DF08BBA00BF8F
:10631000DC440030E070013010B5044618B9BDE827
:1063200010400AF033BF084801F0C2F9074A064896
:10633000012101F09BFA21460348002201F070F888
:10634000BDE810400AF022BFB8700130F1620001D0
:106350002DE9F0415C4B804603F1100703F1200E5C
:106360000C460FCB8EB001AD85E80F0097E80F000B
:1063700005AE86E80F00BEE80F000DF1240CACE876
:106380000F00DEF80030CCF80030002C00F08980DF
:106390004E490620FCF7DAFA4D490720FCF7D6FAF9
:1063A0004C491220FCF7D2FAB8F1050F00F28A80AE
:1063B000DFE808F0030303203A5C2279464B617959
:1063C00033F81230454A0293236832F81110A2794B
:1063D00001939BB2CDE90312002B66D0404B53F8DA
:1063E0003800002861D0294606F07EF800200EB063
:1063F000BDE8F08122793848637921680591093236
:10640000033330F812200692344AA07932F8132070
:106410000890CBB20792002B47D0304605F034FAF3
:1064200000200EB0BDE8F08123791A1F032A47D956
:1064300003F11201022B284A637932F8110027492F
:106440002268099203F1060331F813300C93A17905
:106450000D9114BF01240224D3B2CDE90A4023B325
:10646000002009A906F068F80020C0E721791A4B3E
:106470001A4A33F811306179029332F81110236807
:10648000A279CDE903129AB29AB9180C0004002837
:10649000ADD014481B0C2946019306F025F80020C6
:1064A000A5E7E5200EB0BDE8F081E4200EB0BDE820
:1064B000F0810D480192294606F016F82368E4E7BA
:1064C000E72094E7E62092E7BCE301019D54003009
:1064D000A95400309954003008E4010140E401015E
:1064E000F0E30101001001A0000001A010B50C466E
:1064F00005282ED8DFE800F003030320190D8BB226
:106500000BB3154B53F83000E8B106F001F800204A
:1065100010BD89B2C9B9200C00040028F8D00F487A
:10652000210C05F0F5FF002010BDCBB25BB10020BF
:1065300006F008F8002010BDCBB223B1084605F0E4
:10654000B5F9002010BDE42010BD054805F0E0FFBE
:10655000E1E7E62010BD00BFF0E30101001001A05B
:10656000000001A010B50C46052828D8DFE800F08F
:1065700003030317110B134BBDE8104053F8300011
:1065800089B213F4A49288B2A0B9230C1B045BB99E
:1065900010BDBDE8104089B2002006F03BB8BDE850
:1065A000104088B211F46692210C0748BDE81040F3
:1065B00013F48D9289B2054813F489D2E5E70020DF
:1065C00010BD00BFF0E30101001001A0000001A018
:1065D0002DE9F04F042883B006460C46174698462E
:1065E00064D00D682946FFF781FF21463046FFF74A
:1065F000AFFE834600285BD1032E74D0052E00F039
:1066000087804FEA06195FFA89F94FF0100A4C4B60
:1066100003EBC6030093002422E0009B93F90400DF
:10662000002800F08A80EFF3108C012383F3108898
:10663000444B04EB090101EB410103EB8103C3E986
:1066400001788CF31088019015F4E6D5019815F4C3
:1066500001D6611CCBB253454FEA55051C4627D2E3
:10666000EB07F6D5032E27D0D7D9052E1ED1EFF391
:106670001080012383F3108804EB090101EB410131
:10668000304B03F8216003EB8103C3E9017880F309
:106690001088062015F4C0D5062015F4DBD5072098
:1066A00015F4BAD5072015F4D5D5D2E74FF0E60B8F
:1066B000584603B0BDE8F08FEFF31080012383F359
:1066C0001088214B04EB090101EB410103EB81032D
:1066D000C3E9017880F31088122015F49DD51220AB
:1066E00015F4B8D5B5E72379043B032B07D8DFE8C9
:1066F00003F0021E18130021284616F0D1FF4FF0B8
:10670000007072F4F5D44FF0080A4FF000097EE7EC
:106710004FF0200A81467AE70C49284616F0C0FF60
:10672000EDE74FF00111284616F0BAFFE7E740F217
:106730000111284616F0B4FFE1E74FF0E40BB7E78C
:10674000F0E3010144710130E47001300101010006
:1067500010B511F0010384B053D10A465208D40792
:1067600003F10103FAD59BB2274A0C04904208BFFB
:106770002146264CA04230D0904216D110339BB215
:10678000234A03EB430302EB830012F823304268F1
:106790008068052B18BF0123CDE902108DF8043065
:1067A0000AB101A8904704B010BD0028FBD12033E6
:1067B0009BB2174A03EB430302EB830012F823302A
:1067C00042688068052B18BF0223CDE902108DF8BE
:1067D0000430002AE5D104B010BD0D4A03EB430399
:1067E00002EB830012F8233042688068052B18BF43
:1067F0000023CDE902108DF80430002AD1D104B075
:1068000010BD0023B0E700BF001001A0000001A0F0
:1068100044710130F0B585B003230E4E8DF804307D
:1068200005460024012715F0010F07FA04F34FEA8B
:10683000550504F1010406D0D6E9012101A8CDE9EE
:10684000023102B19047082C06F10C06EBD105B0DD
:10685000F0BD00BFE4700130F0B583B008B3E9B11A
:106860004D1EEDB2044600EB0515072602E0AC42D2
:1068700014D01C46B4F808C06768E2682078009716
:1068800000236946ADF804C08DF80660FFF7A0FE4E
:1068900004F110030028EAD003B0F0BD002003B0DB
:1068A000F0BDE52003B0F0BD38B5074C04F140055C
:1068B00054F8043B1BB11B680BB1984710B1AC42B4
:1068C000F6D1012038BD00BFC8720130074B10B5AA
:1068D0001C7804B110BD064801221A7072F412D05F
:1068E00021460448BDE8104072F46E92C472013033
:1068F000BD540030A9680001F8B50F4B1E7807465B
:106900000D46144676B10F2C0AD86B1E022B07D801
:106910000A4B1A1943F8247082F840502046F8BDFB
:106920001020F8BD012206481A7071F4EBD7054813
:10693000314672F449D2E6E7C4720130C8720130C0
:10694000BD540030A968000138B50E4D0E4903460C
:1069500021202B60FBF7FAFF281D05F069F808B12C
:1069600080B238BD281D05F051F8044608B180B248
:1069700038BD01234FF0006085F8243072F4B8D39D
:10698000204638BD18730130F554003008B5084B67
:1069900093F8242001463AB140B1181D05F06CFB74
:1069A00000B908BD80B208BDE92008BDE52008BDDA
:1069B0001873013008B5084B93F8242001463AB10A
:1069C00040B1181D05F00AFA00B908BD80B208BD33
:1069D000E92008BDE52008BD1873013000B5064B5D
:1069E00083B01B6800228DF804200BB101A89847E2
:1069F00003B05DF804FB00BF1873013000B5064B0F
:106A000083B01B6801228DF804200BB101A89847C0
:106A100003B05DF804FB00BF1873013000B5064BEE
:106A200083B01B6802228DF804200BB101A898479F
:106A300003B05DF804FB00BF1873013070B5194C4A
:106A4000206818B190F86C50012D07D0606818B11B
:106A500090F86C50012D09D0012070BD043005F074
:106A6000ABFE10F0EF0F12D0002070BD043005F027
:106A7000A3FE10F0EF0FF7D1EFF3108685F3108827
:106A8000606804301AF47CD786F31088E4E7EFF3EB
:106A9000108685F31088206804301AF471D786F3C5
:106AA0001088D3E74073013070B5194D044655F88E
:106AB0002000703000F0BEFF86B255F82430C6B119
:106AC00093F80121AAB97F2E17D98022991803F1D2
:106AD000700000F05FFF802655F82400002380F846
:106AE000043100F18001324604301AF4E9D760B96C
:106AF00070BD002083F8000170BD82B203F18001F7
:106B000003F1700000F046FFE6E780B270BD00BF01
:106B100040730130024B186804301AF49D9500BF91
:106B200040730130024B586804301AF4959500BF49
:106B300040730130002070472DE9F0430F4685B0C7
:106B40000446002800F08880002A00F0858006783E
:106B5000012E7CD8DFF86081D2E9001200F15803E1
:106B6000C83048F8263000F0A9FE237B8DF80D30A0
:106B7000A368029363798DF80E3000238DF80F30EF
:106B80002079D4F85090032302A98DF80C30FFF738
:106B9000DFFB054600285BD1237E8DF80D3063694D
:106BA0000293207C637C8DF80E3002A9FFF7D0FBA6
:106BB000054600284CD1B9F1220F52D058F82600D2
:106BC000231D4366034643F8087B374FD4F848E05B
:106BD000D4F84CC0226C616C826007EBC607C3F826
:106BE00008E0C3F80CC05960226D616D59611A61EB
:106BF0007B6840F8043F05F0CDFD58F826000430CE
:106C000005F0B6FD012203212848FFF775FE58F86C
:106C100026300022012183F8002183F86C1083F8CC
:106C20000121A3F8022122490C20FBF78FFE214904
:106C30000D20FBF78BFE97F90100019015F4ECD2C3
:106C4000019815F407D3284605B0BDE8F083E82580
:106C5000284605B0BDE8F083E525284605B0BDE827
:106C6000F08394F824308DF80D30236A0293207F4E
:106C7000637F8DF80E3002A9FFF76AFB08B1054665
:106C8000E6E794F830308DF80D30E36A029394F81B
:106C9000280094F829308DF80E3002A9FFF758FB30
:106CA00000288BD00546D3E754E4010164E40101D8
:106CB000156B0001256B000140730130012870B590
:106CC00019D8104E56F8200098B190F86C6086B133
:106CD00099B192B10C4CA3F59C4CACF1210CA4459C
:106CE0000BD9002480F8024104301AF468D630B978
:106CF00070BDE52070BDE82070BDE42070BD80B29D
:106D000070BD00BF40730130DDB1FFFF2DE9F041E0
:106D1000012882B0054606D8494E56F8207097F8EB
:106D20006C30012B02D002B0BDE8F08197F8002151
:106D3000002AF8D097F80121002AF4D17A6887F860
:106D40000131D36F5807FCD597F80431002B5FD081
:106D5000D7E9033119447B69073103F00103194472
:106D6000384B0022186807E0BB68B0FBF3F301FB67
:106D700003F3B2EBC31F05D897F83B30102B02F199
:106D80000102F1D13846703000F054FE84B256F85A
:106D9000250094B1012270300DF1070100F0FAFDD9
:106DA00056F825004268D36F9907FCD5013C9DF841
:106DB00007301360A4B2002CECD1703000F03AFE22
:106DC00010B156F82500DEE77A6853695B06FCD5FA
:106DD000EFF31088012484F3108856F825007030F2
:106DE00000F028FE50B1EFF3108184F310887A6828
:106DF000536843F08203536081F3108856F82530BE
:106E0000002283F8002183F8012188F310888AE7A3
:106E1000FC8CB7F82480381D1AF484D256F825006B
:106E2000A4B200F18001A8EB0408224641F28833A5
:106E3000414404301AF4C3D556F82500A3E700BF37
:106E400040730130C841003030B5184A036893429E
:106E500083B024D002F58072934223D002242246CC
:106E6000458C038C5B1B124DADF8043055F8243073
:106E700093F8043101218DF80010104663B1FFF73B
:106E800059FE55F8243093F800211AB91B680BB14C
:106E90006846984703B030BDFFF706FEF1E70024CF
:106EA0002246DDE701242246DAE700BF00C600A043
:106EB0004073013000B5104A0368934283B018D084
:106EC00002F58072934214BF022301230B4A418DC5
:106ED00052F82320038D4FF0020C8DF800C0126889
:106EE0005B1AADF804300AB16846904703B05DF80C
:106EF00004FB0023EAE700BF00C600A04073013096
:106F000000B50F4A0368934283B016D002F5807231
:106F1000934214BF022301230A49C06B51F8233066
:106F200000228DF80020196883F80021019009B132
:106F30006846884703B05DF804FB0023ECE700BF18
:106F400000C600A04073013000B50E4A03689342AA
:106F500083B015D002F58072934214BF022301233F
:106F60000949052251F823308DF800201A680021C4
:106F700083F800110AB16846904703B05DF804FB3E
:106F80000023EDE700C600A04073013000B50E4AB3
:106F90000368934283B015D002F58072934214BF08
:106FA000022301230949032251F823308DF80020E0
:106FB0001A68002183F800110AB16846904703B0AF
:106FC0005DF804FB0023EDE700C600A0407301302C
:106FD00000B50E4A0368934283B015D002F5807263
:106FE000934214BF022301230949042251F823309C
:106FF0008DF800201A68002183F800110AB1684654
:10700000904703B05DF804FB0023EDE700C600A045
:107010004073013010B40246EFF3118C1E491F4B30
:1070200091F80203D9680123C1F3022119448B406E
:10703000034483F311881A4C236B33B3F2B104F188
:10704000100100E00346934208D0186A1946002850
:10705000F8D18CF311885DF8044B70472268013A2F
:1070600022601A6A0A62184600225A701A62236B5A
:1070700063608CF311885DF8044B70472268196ACD
:107080002163013A22601846EEE718468CF3118816
:107090005DF8044B704700BF00E100E000ED00E048
:1070A0005073013017F418902DE9F04184B0044674
:1070B000019105F02BFB0199254FDFF8A0800646D2
:1070C00020460DF071FD044630460D460DF028FDBA
:1070D00002460B46204629460DF09CFD1AA3D3E933
:1070E00000230DF0C1FE1B4B1B4C00220DF0DCFBFE
:1070F0000DF0CAFF0146012005F0EAFA40F2E93638
:1071000005F02EFB18B105F0F1FA013017D197E820
:1071100003000290ADF80C10D8F8043003F0070318
:1071200010336B4413F8085C05F07AFA6268636800
:107130009B1A9D42FBD805F09FFA013EE0D104B0B6
:10714000BDE8F081AFF300800000000080842E4194
:1071500048DB01010000E03F001000E000C500A096
:107160002DE9F84FEFF31185A848A94990F802439B
:10717000CB68C3F302230122013302FA03F3234451
:1071800083F31188EFF3118690F80203CB68C3F301
:10719000022313449A40024482F311889D4F3C6BB2
:1071A000002C00F02D81236A3B633B68013B3B6070
:1071B0000023637023623B6B7B6086F31188D4E904
:1071C0000406954B984276F11E03C7E9020680F04B
:1071D0009180A378012B00F0A78085F31188EFF34D
:1071E000118ADFF82882DFF8289298F80223D9F86C
:1071F0000C300125C3F302232B4405FA03F3134497
:1072000083F311883E6BEEB1B96833697269786CAB
:107210005B1AF96862EB0102396C994270EB020368
:1072200010D335703046FFF7F5FEB178012900F034
:10723000B18000233362BB6B002B55D1BE633E6B24
:10724000002EE1D18AF311887B6843B1D3E90401B0
:10725000BB68C01AFB6861EB0301FFF725FFE36918
:107260000BB1A0699847EFF31186684A684B92F812
:107270000213DA680123C2F302221A4493400B443A
:1072800083F311883C6BACB1644D4FF0000802E011
:1072900025462C6A74B12378012BF9D1E369002BC0
:1072A00000F0A880A06998472D6A84F800802C6AB5
:1072B000002CF0D1BC6B9CB1E269002552B1A069F1
:1072C0009047236A2570BB6325624BB11C46E26977
:1072D000002AF4D1236A2270BB632262002BF5D10D
:1072E00086F31188BDE8F88F1A461B6A002BFBD184
:1072F000166287E73B6B6BB1D3E90421824271EBE5
:10730000060C43D3121A61EB0601C3E904211B6A80
:10731000002BF1D100230022C7E90223A37800202B
:10732000012B06467FF459AFA26812182261E26869
:1073300046EB02026261EFF3118E344A92F80213B7
:1073400002F54062D268C2F30222013293400B443C
:1073500083F3118800232362304B07E0D3E9040252
:10736000D4E90461864271EB020247D39C461B6A52
:10737000002BF3D10123CCF8204063703B6801332C
:107380003B603B6B7B608EF3118826E71B6A002B0A
:10739000B2D1BFE7B268BB689B18FA683361F36883
:1073A00042EB03037361EFF3118E98F80223D9F8CF
:1073B0000C30C3F3022301339940114481F3118847
:1073C00000233362154B06E0D6E9040219698842AE
:1073D00059698A4110D39B461B6A002BF4D1CBF824
:1073E000206075703B683A6B0133C7E900328EF359
:1073F000118807E7254658E73362F0E72362B9E7CB
:1074000086F31188D4E90423FFDE00BF00E100E029
:1074100000ED00E0507301300010C32C60730130A8
:107420002DE9F04F8B4685B015460446F0B1964BDA
:107430004A1E9A421AD2EFF31186944B93F8021324
:1074400003F54063DB68C3F302235A1C0123934016
:107450000B4483F31188C36913B18378012B09D9D5
:1074600086F311880F2005B0BDE8F08F012005B02C
:10747000BDE8F08F4778002FF2D105F037F9B0F171
:10748000FF3FDFF82482814600F0A38005F03EF93B
:10749000D8F804A00190BAF1000F00F09A8007EE2E
:1074A000909ADFED7B6A07EE100AF8EE677AB8EE85
:1074B000477A67EEA67AC7EE877A17EE900A0DF044
:1074C0006BFEDAE9042CD8F80830D21AD8F80C3060
:1074D0006CEB030C82427CEB01033CBF104661461F
:1074E0004FF47A7202FB0BF24FF0000EEFF3118CA7
:1074F000664B93F8029303F54063DB68C3F3022302
:1075000003F1010A012303FA0AF34B4483F31188C0
:10751000D8F80430002B5FD082427EEB01035BD3AE
:107520008CF31188D8F8042013691B1A506960EB9A
:1075300001004FF47A72ABFB02125B18A16040EBC2
:1075400002000021A5612361E26060612162EFF326
:10755000118E4E4B93F8020303F54063DB68C3F3CF
:1075600002235A1C01239340034483F31188494D9D
:10757000216207E0296920696B696269884272EBC0
:10758000030360D3AC462D6A002DF3D10125CCF85E
:1075900020406570D8F800302B44C8F80030D8F887
:1075A0003030C8F804308EF311883B4C2378002B20
:1075B00059D0364B1A68520105D5002F45D186F3B4
:1075C0001188002053E74FF08062C3F880211A60D1
:1075D000F3E70020014683E78CF31188D8F80430E4
:1075E000002B46D01A695B69DFF8C090121A63EB72
:1075F0000101C8F80820C8F80C1005F05DF840F249
:10760000E93705F0ADF8D0B1244B93E80300244BE3
:107610000290ADF80C105B6803F0070310336B4465
:1076200013F808AC04F0FCFFD9F80400D9F80430D2
:107630001B1A9A45FAD805F01FF8013FE1D1D8E9A5
:107640000230012775E72562A0E7D8F80420D8F8B2
:107650000800D8F80C10D2E90432181A62EB0101C4
:10766000FFF722FDABE70F491A20FBF76FF92570F2
:107670009FE79FED037B184688ED027BE1E700BFA3
:107680000000000000000000008AB90700E100E0EF
:1076900000247449607301304873013048DB0101F4
:1076A00000C500A0A570000150730130001000E07B
:1076B0002DE9F04F044685B000B3EFF31186644A1C
:1076C000644B92F80213DB68C3F302235A1C0123B4
:1076D00093400B4483F311884378012B12D086F337
:1076E0001188002200230020FF21C4E90223C4E9FD
:1076F00004236170E06105B0BDE8F08F012005B0A2
:10770000BDE8F08FDFF85C81D8F8043098422BD0C8
:10771000FFF780FCD8F80430002BE0D104F0CCFF58
:10772000DFF83C81DFF840914B4D40F2E93705F03E
:1077300017F80028D3D098E803000290ADF80C1099
:10774000D9F8043003F0070310336B4413F808AC86
:1077500004F066FF6A686B689B1A9A45FBD804F0D0
:107760008BFF013FE3D1BAE704F0C0FF431C05469D
:107770006BD004F0CBFFD8F804700190002F64D0D8
:1077800007EE905ADFED356A07EE100AF8EE677AD9
:10779000B8EE477A67EEA67AC7EE877A17EE900AB8
:1077A0000DF0FAFC0346D7E90420D8F80850521B24
:1077B000D8F80C5060EB05009A4270EB01053CBF15
:1077C000134601462269264FDFF89C90DFF888A017
:1077D000D31AC8F80830636963EB0103C8F80C30AA
:1077E00004F06AFF40F2E93504F0BAFFC8B197E847
:1077F00003000290ADF80C10D9F8043003F0070331
:1078000010336B4413F808BC04F00AFFDAF80420C4
:10781000DAF804309B1A9B45FAD804F02DFF013D9D
:10782000E2D12046FFF7F6FBD8F80430002B3FF4F6
:1078300056AFD3E90423D8F80800D8F80C10101A72
:1078400063EB0101FFF730FC49E700231946B9E774
:1078500000E100E000ED00E0001000E000247449C9
:1078600048DB01015073013000C500A0012910B5AB
:107870001ED8E8B1E2B14378012B1BD0EFF3118E93
:107880000D4B93F8024303F54063DB68C3F3022317
:1078900003F1010C012303FA0CF3234483F3118851
:1078A000002343708170C2618EF31188184610BDA9
:1078B000012010BD062010BD00E100E089B108B133
:1078C0000AB910467047EFF3108C012383F3108838
:1078D00002600022C0E90112C2608CF310881846D1
:1078E00070470846704700BF2DE9F04704460E4632
:1078F000EFF31087012383F31088416861B32EB33F
:10790000D0E9020398422DD2013B1B1A934228BFB3
:1079100013461D4600EB03089A464FF000095246F5
:10792000084431460DF0F6FD60684A4606EB0A0150
:107930000DF0F0FD2368984528BFA8EB0308C4F8B4
:10794000088087F310882846BDE8F087354687F31E
:1079500010882846BDE8F0870D4687F31088284632
:10796000BDE8F087D4F800904B44013B1B1A9342CA
:1079700028BF134600EB0308C1451D4605D8A9EBF7
:10798000080A9A44A8EB0909C9E79A464FF000098A
:10799000C5E700BF2DE9F0470B460446EFF310871B
:1079A000012181F31088416849B313B3D0E90290F3
:1079B00081452AD3A9EB0005954228BF15464619F3
:1079C000AA464FF000080144524618460DF0A2FDA9
:1079D0006168424650440DF09DFD2368B34202D8D1
:1079E000B14538BFF61AE66087F310882846BDE82F
:1079F000F0871D4687F310882846BDE8F0870D46BE
:107A000087F310882846BDE8F087D4F8008008EB9B
:107A100009052D1A954228BF15464619B04505D8C7
:107A2000A8EB060AAA44A6EB0808CCE7AA464FF042
:107A30000008C8E770B1EFF31081012383F31088C9
:107A4000D0E9023293423BBF0068C018981A801AEE
:107A500081F31088704700BFEFF31081012383F397
:107A60001088D0E902239A4224BF00681B18013B0A
:107A7000981A81F310887047EFF31082012383F383
:107A8000108810B10023C0E9023382F310887047D8
:107A9000F0B5044685B048B3038840F20232934201
:107AA00000F09D80A3F580639AB2042A1ED8042BAF
:107AB0001CD8DFE803F041601B811D0020690CF039
:107AC000E9FE2B6804464BB102280CBF03220422B6
:107AD0008DF805608DF8042001A8984706F10C0385
